:020000040800F2
:10000000C8530020E9020008E33000086D2A000808
:10001000E130000841080008014B00080000000022
:10002000000000000000000000000000290200089D
:10003000510C0008000000008502000889450008F6
:100040000303000803030008030300080303000878
:100050000303000803030008030300080303000868
:1000600003030008030300085D0C000803030008F5
:100070000303000803030008030300080303000848
:1000800003030008030300080303000869080008CD
:1000900045080008510800085D080008630C0008C6
:1000A0000303000803030008030300080303000818
:1000B0000303000803030008030300080303000808
:1000C00003030008030300080303000803030008F8
:1000D00003030008030300080303000803030008E8
:1000E00003030008030300080303000803030008D8
:1000F0004546000803030008030300080303000843
:1001000003030008030300080303000803030008B7
:1001100003030008030300080303000803030008A7
:100120000303000803030008E1080008C90B0008E6
:100130000303000803030008030300080303000887
:100140000303000803030008030300080303000877
:10015000030300080303000803030008F54A00082E
:100160000303000803030008030300080303000857
:100170000303000803030008030300080000000055
:10018000030300080303000800F002F800F03CF845
:100190000AA090E8000C82448344AAF10107DA45E2
:1001A00001D100F031F8AFF2090EBAE80F0013F0F8
:1001B000010F18BFFB1A43F00103184778720000C3
:1001C00098720000103A24BF78C878C1FAD8520754
:1001D00024BF30C830C144BF04680C6070470000C1
:1001E0000023002400250026103A28BF78C1FBD840
:1001F000520728BF30C148BF0B6070471FB507F0DA
:10020000B3F81FBD10B510BD00F0E4F91146FFF7BB
:10021000F5FF05F01BFB00F002FA03B4FFF7F2FF55
:1002200003BC00F005FA00002C4B19680868B0E820
:10023000F04F80F30988BFF36F8F4FF0000080F319
:10024000118870470000000008480068006880F3CB
:1002500008884FF0000080F3148862B661B6BFF3DF
:100260004F8FBFF36F8F00DF00BF00BF08ED00E0CE
:10027000DFF80C00016841F470010160704700BFB5
:1002800088ED00E0EFF30980BFF36F8F134B1A681E
:100290001EF0100F08BF20ED108A20E9F04F10600B
:1002A00009B44FF0500080F31188BFF34F8FBFF3B4
:1002B0006F8F06F0B1FA4FF0000080F3118809BC8F
:1002C00019680868B0E8F04F1EF0100F08BFB0ECD6
:1002D000108A80F30988BFF36F8F70471C000020DD
:1002E000EFF3058070470000094880470948004740
:1002F000FEE7FEE7FEE7FEE7FEE7FEE7FEE7FEE7D6
:10030000FEE7FEE704480549054A064B7047000032
:100310003546000889010008C84D0020C853002058
:10032000C84F0020C84F002053EA020C00F069803B
:100330002DE9F04B4FF00006002B1FBFB3FA83F5F9
:1003400003FA05F424FA05F65E4012BF1643B2FA2A
:1003500082F502FA05F4C5F120051EBF22FA05FC5C
:1003600044EA0C04203556EA044C4FEA144418BF02
:10037000641C4FF000084FF00009904271EB030C31
:1003800039D3002919BFB1FA81F701FA07F6B0FA9B
:1003900080F700FA07F6C7F120071EBF20FA07FC16
:1003A00046EA0C062037B6FBF4FCA7EB0507103F26
:1003B00007F01F0BCBF120060CFA0BFB2CFA06F60C
:1003C00044BFB3460026202FA4BF5E464FF0000B6B
:1003D0005BEA060C08BF4FF0010B19EB0B09ABFBF6
:1003E000027C48EB0608C01B06FB02CC0BFB03CCCF
:1003F00071EB0C01C1E70B46024641464846BDE899
:10040000F08B13B54FF000004FF00001AFF3008008
:10041000BDE81C407047032A40F2308010F0030C06
:1004200000F0158011F8013BBCF1020F624498BF47
:1004300011F801CB00F8013B38BF11F8013BA2F1E4
:10044000040298BF00F801CB38BF00F8013B11F05F
:10045000030300F06280083AC0F0088051F8043BC2
:10046000083A51F804CBA0E80810F5E7121D5CBF6C
:1004700051F8043B40F8043BAFF30080D20724BF9F
:1004800011F8013B11F801CB48BF11F8012B24BF33
:1004900000F8013B00F801CB48BF00F8012B704782
:1004A00002F0FF0343EA032242EA024200F069B885
:1004B0004FF0000200B5134694469646203922BFFD
:1004C000A0E80C50A0E80C50B1F12001BFF4F7AF48
:1004D000090728BFA0E80C5048BF0CC05DF804EB2A
:1004E000890028BF40F8042B08BF704748BF20F898
:1004F000022B11F0804F18BF00F8012B7047704796
:100500007047704710B500F05DF8006810BD10B579
:10051000044600F057F8046010BD10B5203AC0F052
:100520000B80B1E81850203AA0E81850B1E81850F4
:10053000A0E81850BFF4F5AF5FEA027C24BFB1E831
:100540001850A0E8185044BF18C918C0BDE81040A2
:100550005FEA827C24BF51F8043B40F8043B08BFAB
:100560007047D20728BF31F8023B48BF11F8012B72
:1005700028BF20F8023B48BF00F8012B70474FF01E
:1005800000020429C0F0128010F0030C3FF492AF77
:10059000CCF1040CBCF1020F18BF00F8012BA8BF6E
:1005A00020F8022BA1EB0C01FFF784BF5FEAC17CAE
:1005B00024BF00F8012B00F8012B48BF00F8012BE5
:1005C0007047000000487047644D002000487047A5
:1005D000644D00207546FFF7F9FFAE4605006946F9
:1005E000534620F00700854618B020B5FFF78AFE75
:1005F000BDE820404FF000064FF000074FF0000824
:100600004FF0000B21F00701AC46ACE8C009ACE8A4
:10061000C009ACE8C009ACE8C0098D46704710B508
:100620000446AFF300802046BDE81040FFF7F5BD5B
:1006300001491820ABBEFEE726000200704700000B
:1006400001221021014801F071B9000000000240B0
:1006500000221021014801F069B9000000000240A9
:100660007047000001221146014801F05FB9000007
:100670000004024000220121014801F057B90000A6
:100680000004024030B5437804781B021BB22343B8
:1006900000EE103A1B4CB8EEC00AD4ED000A20EE72
:1006A000200A81ED000AC37885781B021BB22B4318
:1006B00000EE103AD4ED000AB8EEC00A20EE200A8F
:1006C00081ED010A437904791B021BB2234300EE3A
:1006D000103AB8EEC00A20EE200ADFED0B0A81EDD9
:1006E000020A017AC3790904807941EA03210143AE
:1006F00000EE101AB8EE400A20EE200A82ED000A41
:1007000030BD00009C00002000401C42704705F0F6
:10071000CDB8012005F0CAB810B5427803781202AE
:1007200012B21A4300EE102A124BB8EEC00AD3EDF3
:10073000010A20EE200A81ED000AC27884781202B4
:1007400012B2224300EE102AD3ED010AB8EEC00A1D
:1007500020EE200A81ED010A42790079120212B2DC
:10076000024300EE102AB8EEC00A20EE200A81ED06
:10077000020A10BD9C00002010B5FFF771FFFFF7C3
:10078000C5FF04F079FC08B1802402E004F0DEFB30
:10079000044604F03BFE10B144F0400010BD04F0EC
:1007A000C7FD204310BD70B514460D4640F08000D3
:1007B00000F016F806E0552000F012F8641E05F867
:1007C000010BE4B2002CF6D170BD10B50C4640F020
:1007D000800000F005F8552000F002F8207010BDF0
:1007E00001B582B04FF47A700090012301AA02A9EA
:1007F000024801F0C3FC9DF804000EBD200100205A
:1008000002784078D20042EA5010B0F5806F01DBE8
:10081000A0F5006000EE100AB4EE001AF8EEC00A6F
:10082000B3EE070A00EE810A81ED000A704710B5A9
:100830000C46FFF7D5FF2046BDE81040FFF7D0BFBC
:10084000FEE70000014800F08CBB0000F80000202B
:10085000014800F086BB0000F8000020014800F0CD
:1008600080BB0000F8000020014800F07ABB0000C7
:10087000F800002000B58BB000200121CDE9060171
:100880000590019000900390029004900E20CDE915
:10089000081069460A4800F063FA08B100F0E4F96C
:1008A000074800F05DFD08B100F0DEF902210448C0
:1008B00000F0DCF9002801D000F0D6F90BB000BD43
:1008C000F800002090ED370AC823BDEEC00A10EEF4
:1008D000101A0AB20178014804F0D2BFF8000020D3
:1008E0002DE9F05FAF48B04BB04CC06CAE4DAF4E91
:1008F000AD4F0068AC49DFF8B492DFF8ACA2DFF886
:10090000ACB2DFF8A4E2A94A483B60341835183687
:10091000303F09F178090AF1300A4FF4006C0BF10D
:10092000300BAEF1180E884223D99F49543926E086
:10093000A84233D14FF020080AE0504535D1E046B7
:1009400006E000BF4FF4001802E000BF4FF000685F
:1009500011EA080F7CD09449884253D9904205D0BF
:10096000984203D0A04201D0A8422FD14FF0200CD2
:1009700045E08E49A831884203D98B495839096826
:1009800005E08A49483188428949F8D94968904246
:10099000D0D09842CED0A042CCD0C9E7B042CED081
:1009A000B842CCD04845CAD0C7E75845CAD07045F0
:1009B000C8D0DFF8F88108F190084045C2D0DFF8D0
:1009C000E88108F148084045C0D1BBE7B04216D0E5
:1009D000B84214D0484512D0504510D0584509D0DF
:1009E000704507D071499031884203D06E49483133
:1009F000884202D14FF4001C01E04FF0006C6A48BD
:100A00004C382AE06949A831884229D9904205D05A
:100A1000984203D0A04201D0A84202D14FF0200C4E
:100A200019E0B04217D0B84215D0484513D0504510
:100A300011D0584509D0704507D05C4990318842A3
:100A400003D059494831884203D14FF4001C02E0D9
:100A5000A5E04FF0006C54485038C0F800C052E098
:100A600052494831884227D9904205D0984203D054
:100A7000A04201D0A84202D14FF0200C18E0B042B1
:100A800016D0B84214D0484512D0504510D0584521
:100A900009D0704507D045499031884203D042497A
:100AA0004831884202D14FF4001C01E04FF0006C45
:100AB0003F48C0F80CC026E0904205D0984203D0D1
:100AC000A04201D0A84202D14FF0200C18E0B04261
:100AD00016D0B84214D0484512D0504510D05845D1
:100AE00009D0704507D031499031884203D02E4952
:100AF0004831884202D14FF4001C01E04FF0006CF5
:100B00002B48C0F808C02B4C207880070CD52078E3
:100B100020F002002070207840F0040020700122B4
:100B20001146254800F002FF6078244D80070CD55F
:100B3000607820F002006070607840F0040060701F
:100B400001221021284600F0F1FEA07880070CD584
:100B5000A07820F00200A070A07840F00400A070FF
:100B600001221021284600F0E1FE04F097FD2078D4
:100B7000400714D506F042FA012810D010480D495C
:100B80000C31006805F070FDE068002807D00D49C1
:100B90004FF080500860BFF34F8FBFF36F8FBDE8F9
:100BA000F09F0000200100205864024010600240C5
:100BB00000600240C8000020000402400000024023
:100BC0000400002004ED00E0014800F057BC0000E4
:100BD000D801002001681823CAB2103AB2FBF3F220
:100BE000054B6FF30901032A9B5CC36500D9091DFE
:100BF0008165084670470000E073000810B50146A3
:100C000000208B698A6A4FF0C07453B1B3F5005F5E
:100C100015D072B1012A0CD0022A0AD0032A09D1B8
:100C200004E01AB1012A06D0022A03D1C96AC90117
:100C300000D5012010BDC96AA142FAD010BD002A1A
:100C4000F7D0012AF2D0022AF3D0032AF3D010BD44
:100C5000704710B5012004F029FEFBE7102000F0DA
:100C600061BD202000F05EBD72B6FEE790F8202046
:100C7000012A07D0022A05D0416A41F4802141624D
:100C800001207047006842690A43426100207047B2
:100C9000F0B590F820500468A468012D05D0022D0D
:100CA00003D0416A41F4802157E014F0406F01D134
:100CB000E5004FD5C4F301640125A5401D608D6892
:100CC0004FF4C0739DB1CE6835434E6845EAC60502
:100CD000066803EB0417F5514FF4C275076805EB7E
:100CE00004150E697E51097D012905D009E00E88A1
:100CF000CD6845EA4655EBE701684E5946F48076E3
:100D00004E511179D579567941EA056195792D04CD
:100D100045EA062529434FF4C676056806EB041616
:100D2000A9511178D57841EA0561957852782D045A
:100D300045EA022211434FF4C475026805EB04151D
:100D40005151006803EB0411425842F00102425035
:100D50000020F0BD416A41F4001141620120F0BD64
:100D600010B590F82020012A07D0022A05D0416A48
:100D700041F480214162012010BD3B48D0F800229F
:100D800042F00102C0F80022D0F8002222F47C5286
:100D9000C0F80022D0F800224B6A42EA0322C0F8D1
:100DA00000220A7D02F01F0301229A40D0F81C3273
:100DB0009343C0F81C32CB69B3B9D0F80C329343DB
:100DC000C0F80C328C894B6864F31F434C6900EB0C
:100DD000C404C4F840320C890B6864F31F434C69A7
:100DE00000EBC404C4F84432CB69012B16D1D0F80F
:100DF0000C321343C0F80C320C884B6864F31F4369
:100E00004C6900EBC404C4F840320C89CB6864F32D
:100E10001F434C6900EBC404C4F844328B69002BB7
:100E2000D0F804320ED01343C0F804320B69002B03
:100E3000D0F8143208D01343C0F81432096A0129DB
:100E400004D008E09343EFE79343F5E7D0F81C1292
:100E50001143C0F81C12D0F8001221F00101C0F8B3
:100E60000012002010BD000000640040704770B503
:100E700090F82040012C05D0022C03D0416A41F4A7
:100E8000802128E0046809B32469A40720D04FF426
:100E9000D874056804EB01142D5915F0040595600C
:100EA00005682D591AD0ED08556005682C5904F0D5
:100EB0000204D4604FF4DA74056804EB01142E596F
:100EC00006F00F06082E0CD308250DE0E468DCE7D9
:100ED000416A41F400114162012070BD6D0D156041
:100EE000E3E72D5905F00F05156105682D59C5F388
:100EF0000725956105682C59240C54614FF4DC7268
:100F0000046802EB0112A4581C700468A458240A57
:100F10005C700468A458240C9C700468A258120EDB
:100F2000DA704FF4DE72046802EB0112A4581C71EF
:100F30000468A458240A5C710468A458240C9C71A9
:100F40000468A258120EDA71006829B1016941F0F3
:100F500020010161002070BDC16841F02001C16025
:100F6000F8E72DE9F05F0546006800244669D0F8EF
:100F700004908768D0F80CB0D0F810A0D0F8188092
:100F8000F10748D0F90714D001218160B80703D5D3
:100F9000284600F012FA0CE0780702D54FF40064FE
:100FA00007E0380702D54FF4805402E0284600F0ED
:100FB00003FAF80516D529684FF480708860B805E3
:100FC00003D5284600F0FBF90CE0780502D544F47F
:100FD000005407E0380502D544F4804402E0284676
:100FE00000F0ECF9F80316D529684FF480308860DA
:100FF000B80303D5284600F0E4F90CE0780302D5E5
:1010000044F4004407E0380302D544F4803402E09D
:10101000284600F0D5F9300707D55FEACB6004D544
:101020002968102044F40074C86070074FF0080766
:1010300007D55FEA0B7004D52868C760284600F022
:101040006FF9B00706D52868C068800702D0284627
:1010500000F068F9700607D55FEACA6004D5296810
:10106000102044F480640861B00607D55FEA0A7076
:1010700004D528680761284600F06EF9F00606D509
:1010800028680069800702D0284600F066F9B0039E
:1010900008D55FEAC96005D5296810204860284650
:1010A00000F05CF9F00307D55FEA097004D5286801
:1010B0004760284600F086F9300446D55FEA49705B
:1010C00040D5F00504D55FEAC87001D044F00104B2
:1010D000B00504D55FEA887001D544F002047005BC
:1010E00004D55FEA487001D544F00404300529D5E1
:1010F00018F0700F26D008F07000402815D006DCDC
:10110000102809D020280AD0302816D10AE050280B
:101110000ED0602811D10EE044F008040DE044F038
:1011200010040AE044F0200407E044F0400404E026
:1011300044F0800401E044F480742868816921F05F
:1011400070018161296804204860002C05D0686A1C
:10115000204368622846FFF789FEBDE8F09F70B51E
:10116000040003D094F8200010B104E0012070BD09
:10117000204600F081F82068016841F0010101601B
:1011800000F0DAFB0546052604E000F0D5FB401B25
:101190000A2811D820684068C007F6D02068016886
:1011A00021F00201016000F0C7FB05460BE000F0F2
:1011B000C3FB401B0A2806D9606A40F40030606215
:1011C00084F82060D2E7206840688007EFD4207E52
:1011D0000128206801683DD021F080010160607E17
:1011E00001282068016838D021F040010160A07E0C
:1011F00001282068016833D021F020010160E07EE1
:101200000128206801682ED041F010010160207F84
:1012100001282068016829D021F008010160607F61
:1012200001282068016824D021F004010160D4E97C
:1012300002010843D4E90412114308436168491EBE
:1012400008432168C86100206062012084F8200002
:10125000002070BD41F08001C0E741F04001C5E7CA
:1012600041F02001CAE721F01001CFE741F0080169
:10127000D4E741F00401D9E710B586B00446142143
:101280006846FFF715F92349206888423FD1224874
:101290000021026842F000720260006800F00070F5
:1012A00005901D481038026842F00802026000688C
:1012B000022200F0080005900320CDE90210CDE9DC
:1012C0000002092004906946144800F037FA002211
:1012D0000621132000F0A2FB132000F091FB002256
:1012E0000521142000F09AFB142000F089FB002255
:1012F0000521152000F092FB152000F081FB002253
:101300000521162000F08AFB162000F079FB06B0BC
:1013100010BD00000064004040380240000C024054
:101320007047000000B5094987B088420CD1084BCE
:101330006A460021FFF79BFD0498002804D06A4606
:101340000349044804F0F0FF07B000BDF800002096
:10135000E44B0020844C0020704770477047000029
:1013600070B5044690F82000012804D0606A40F46B
:101370000020606218E0022084F8200020680168E4
:1013800021F00101016000F0D7FA05460EE000BF30
:1013900000F0D2FA401B0A2808D9606A40F40030F5
:1013A0006062052084F82000012070BD206840683C
:1013B000C007EDD1606270BD7047704770477047DD
:1013C0007047704770472DE9F0410446876D00F083
:1013D000B3FA064694F835000025022806D080208E
:1013E000606584F834500120BDE8F0812068016810
:1013F00021F0160101602068416921F080014161FE
:10140000206C08B9A06C20B12068016821F00801A7
:1014100001602068016821F0010101600CE000F02A
:101420008BFA801B052807D920206065032084F8EB
:10143000350084F83450D7E720680068C007EED143
:1014400094F85C103F208840B860012084F8350093
:1014500084F834500020C7E790F83510022903D0F3
:101460008021416501207047052180F83510006812
:10147000016821F001010160002070472DE9F84367
:1014800004464FF00009CDF8009063484FF4165120
:10149000A56D0068B0FBF1F72E6894F85C10082089
:1014A00000FA01F131420FD021680A6852070BD5CA
:1014B0000A6822F004020A6094F85C108840A86070
:1014C000606D40F00100606594F85C104FF0010819
:1014D00008FA01F0304208D021684969090604D5AC
:1014E000A860606D40F00200606594F85C10042014
:1014F0008840304208D021680968890704D5A8606F
:10150000606D40F00400606594F85C101020884025
:10151000304218D021680968090714D5A8602068EE
:101520000168490304D50068000308D5A16C07E0F1
:101530000168C90503D4016821F008010160216C2C
:1015400009B12046884794F85C102020884030423A
:1015500031D021680968C9062DD5A86094F83500F6
:1015600005282068016806D0490347D500680003B4
:101570001DD4616C1CE021F01601016020684169F6
:1015800021F080014161206C08B9A06C20B1206875
:10159000016821F00801016094F85C103F20884048
:1015A000A86084F8358084F83490216D1FE0E16BE9
:1015B00009B120468847606D00282BD0606DC007B8
:1015C00014D0052084F835002068016821F001015D
:1015D00001600098401C0090B84203D82068006861
:1015E000C007F6D184F8358084F83490E16C002986
:1015F00010D001B02046BDE8F04308470168C90596
:10160000D5D4016821F01001016084F8358084F898
:101610003490CCE7BDE8F883180000202DE9F041B4
:10162000044600F089F906465CB1022084F83500D2
:10163000002584F834502068016821F00101016020
:101640000DE00120BDE8F08100F076F9801B05284F
:1016500005D920206065032084F83500F2E7206872
:101660000068C007F0D12268116820480140D4E921
:1016700001031843D4E9033633431843636918431D
:10168000A3691843E3691843236A18430843616A4E
:10169000042903D1D4E90B131943084310602068CF
:1016A0004069666A20F0070130460E43012704288E
:1016B0000CD1A06A0643E06A40B12046FFF79EFACB
:1016C00020B14020606584F83570BAE72068466133
:1016D0002046FFF77FFA94F85C203F21914081601B
:1016E000656584F835700020ACE700003F8010F09D
:1016F0000B4910280AD0202811D1087840F00100A9
:101700000870C87800280AD003F0C8BF487840F0B5
:1017100001004870887840F001008870F1E7704758
:10172000C8000020044910B50A68024202D00860CF
:10173000FFF7DEFF10BD0000143C01402DE9F84F1B
:10174000DFF8BCA10022012503264FF00F090AF1A2
:10175000040BAAF1040E00BF0B6805FA02F4234043
:10176000A34270D10F7907F00307012F01D0022F98
:1017700016D187684FEA420806FA08FC27EA0C07E8
:10178000D1F80CC00CFA08FC4CEA070CC0F808C0F1
:101790004768A7430C79C4F3001494403C43446069
:1017A0000C79E443A4070AD0C4684FEA420C06FA55
:1017B0000CF7BC438F6807FA0CF72743C7600C7916
:1017C00004F00304022C12D1D40800EB840CDCF8E2
:1017D00020405707FF0E09FA07F824EA0804D1F859
:1017E000108008FA07F848EA0408CCF8208004685A
:1017F0004FEA420C06FA0CF7BC430F7907F00307D7
:1018000007FA0CF7274307604C6814F4403F70D088
:101810003C4C276847F480472760246822F0030780
:1018200004F480440094384C07EB040CDCF80848BE
:1018300097074FEA177809FA08F7BC43334FB842C5
:1018400002D1002724E054E0314FB84201D10127F2
:101850001EE0304FB84201D1022719E02E4FB842A6
:1018600001D1032714E02D4FB84201D104270FE026
:101870002B4FB84201D105270AE02A4FB84201D1C7
:10188000062705E0284FB84201D1072700E00827C6
:1018900007FA08F72743CCF80878DAF800405746EB
:1018A000D1F804C09C435FEACC2C00D51C433C60BB
:1018B000DBF800405F46D1F804C09C435FEA8C2C03
:1018C00000D51C433C60DEF800407746D1F804C0E8
:1018D0009C435FEA8C3C00D51C433C60084F083FAA
:1018E0003C68D1F804C09C435FEACC3C00D51C4363
:1018F0003C60521C102AFFF42FAFBDE8F88F0000A7
:10190000083C0140443802400030014000000240E1
:101910000004024000080240000C02400010024097
:101920000014024000180240001C02400AB181610C
:1019300070470904FBE70000014880687047000019
:101940000C000020024881680278114481607047D1
:101950000C0000200B4810B5016841F400710160D3
:10196000016841F480610160016841F480710160A7
:10197000032000F073F80F2000F006F800F024F8C0
:10198000002010BD003C024070B50D4D04464FF4E0
:101990007A712878B1FBF0F00A490968B1FBF0F0E0
:1019A00000F0E4FC48B9102C07D200222146501E5A
:1019B00000F034F800206C6070BD012070BD0000A4
:1019C0000C000020180000200C4882B0016841F48F
:1019D00080410160006800F4804000900748001FCB
:1019E000016841F0805101600068002200F08050E1
:1019F00000900F21901E02B000F010B84438024051
:101A0000002809DB00F01F020121914040098000FD
:101A100000F1E020C0F8001170470000F0B40E4B58
:101A20001B680C46C3F30223C3F10705042D00D93C
:101A30000425191D072901D2002300E0DB1E012621
:101A400006FA05F1491E214099409E40761E164037
:101A50003143F0BC03F068B80CED00E0064900F03B
:101A6000070208684FF6FF03184040EA0220034AC5
:101A700010430860704700000CED00E00000FA051C
:101A80002DE9F0470E46050065D0DFF81481D8F83F
:101A90000000F7B200F00700B04207D288F80070EB
:101AA000D8F8000000F00700B04254D128683D4C3F
:101AB000810712D5400703D5206840F4E05020602C
:101AC0002878000703D5206840F460402060206833
:101AD000A96820F0F000084320602878C0072DD0C6
:101AE000304968680839012812D0022813D0032829
:101AF00011D00968890700292DDA216821F0030136
:101B000001432160FFF718FF814641F2883A0EE059
:101B100009688903EFE709688901ECE7FFF70CFF23
:101B2000A0EB0901514502D90320BDE8F0872068E8
:101B3000696800F00C00B0EB810FEFD1D8F800100D
:101B4000404601F00701B14207D90770006800F074
:101B50000700B04201D00120E7E72878400705D50B
:101B60002068E96820F4E0500843206028780007E6
:101B700006D52068296920F4604040EAC100206051
:101B800000F038F82168084AC1F30311515CC840DD
:101B90000649086006480068FFF7F6FE0020C4E723
:101BA000003C024008380240E8730008180000209A
:101BB000100000200448054900680968044AC1F380
:101BC0008221515CC840704718000020083802404C
:101BD000F87300080448054900680968044AC1F31D
:101BE0004231515CC840704718000020083802405C
:101BF000F8730008154810B5006810F00C0214487E
:101C000013D01449042A0FD0082A0ED10F4C241FD8
:101C10002268236802F03F025B0207D52068C0F308
:101C20008810A0FB010106E0084610BD2168C1F341
:101C30008811A1FB00010023FEF776FB2168C1F3A8
:101C40000141491C4900B0FBF1F010BD08380240C9
:101C50000024F400001BB7002DE9F84F04006ED0FB
:101C60002078DFF84C93C007A9F104054AD009F1A8
:101C700004000168C1F38101012908D00068C0F3A4
:101C8000810002280AD1D9F80000400206D5286850
:101C9000800337D560680028E1D033E06068B0F594
:101CA000803F10D0B0F5A02F286810D020F48030ED
:101CB0002860286820F4802028606068A8B1FFF7B9
:101CC0003BFE06460DE0286840F48030F4E740F41F
:101CD00080202860F7E700BFFFF72EFE801B6428F6
:101CE00073D828688003F7D50CE0FFF725FE064679
:101CF00005E000BFFFF720FE801B6428F0D82868AD
:101D00008003F7D42078DFF8AC8280074FF0000A18
:101D10003ED5A748001D016811F00C0F08D00068DF
:101D2000C0F3810002280BD1D9F80000400207D48B
:101D30002868800716D5E068012800D112E033E159
:101D4000E068B8B10120C8F80000FFF7F5FD0646CD
:101D500005E000BFFFF7F0FD801B0228C0D828680F
:101D60008007F7D52868216920F0F80040EAC10013
:101D700028600DE0C8F800A0FFF7DEFD064604E08D
:101D8000FFF7DAFD801B02281FD828688007F7D4E8
:101D90002078000722D5864F87486169703771B176
:101DA00001210160FFF7C8FD064604E0FFF7C4FD0E
:101DB000801B022809D838688007F7D50EE0C0F8E4
:101DC00000A0FFF7B9FD064605E082E0FFF7B4FD8D
:101DD000801B02287DD838688007F7D42078400718
:101DE00068D5DFF8CCB100270BF13C0BDBF8000025
:101DF000C0000BD4DBF8001041F08051CBF800108C
:101E0000DBF80000012700F0805000906B4E306836
:101E1000C00510D4306840F480703060FFF78CFD4E
:101E2000009005E0FFF788FD0099401A022850D87D
:101E30003068C005F6D55E4EA0686C3601280FD01C
:101E40000528306810D020F001003060306820F0A4
:101E500004003060A068B8B1FFF76EFD00900FE09D
:101E6000306840F00100F4E740F004003060F7E72C
:101E7000FFF762FD0099411A41F28830814266D82D
:101E800030688007F4D50EE0FFF756FD009007E0BC
:101E9000FFF752FD0099411A41F28830814256D82D
:101EA00030688007F4D42FB1DBF8001021F08051A6
:101EB000CBF80010A069C8B33D49091D0968C1F3FA
:101EC000810102294AD00228504607D0C8F8600094
:101ED00000E03CE0FFF730FD04463BE04746C8F831
:101EE0006000FFF729FD064605E000BFFFF724FD6F
:101EF000801B02282BD828688001F7D4D4E9070179
:101F00000843A16A2E4A490802EB0141626A41EA8C
:101F10008211084394F82C1040EA0161C9F80010BE
:101F200001203866FFF708FD044606E03EE000BFEA
:101F3000FFF702FD001B022809D828688001F7D5A9
:101F400034E000BFFFF7F8FC001B022802D9032091
:101F5000BDE8F88F28688001F4D427E00128F7D085
:101F6000D9F80000E26900F4800191421CD1226A94
:101F700000F03F01914217D147F6C071626A0140FB
:101F8000B1EB821F10D1A26A4FF0FF3300F4403151
:101F900003EB5202B1EB024F06D194F82C1000F083
:101FA0007060B0EB016F01D00120D1E70020CFE7D6
:101FB0000438024000004742800E47420070004053
:101FC0000000FFFF70B5040009D0606A002540B131
:101FD00025616561A56294F8510040B10CE00120D3
:101FE00070BD6068B0F5827FF4D0E561F2E784F8F7
:101FF0005050204600F044F8022084F85100206838
:10200000016821F040010160A088218900F48270FC
:1020100001F404410843A18901F400610843217CD3
:1020200001F002010843217D01F001010843218BE9
:1020300001F400710843217F01F03801084394F84E
:10204000201001F080010843218D01F40051084364
:1020500021680860A069042101EA104094F8241066
:1020600001F010010843216848602068C16921F42B
:102070000061C1616565012084F85100002070BDD8
:102080002DE9F04186B0064614216846FEF710FAA5
:1020900034493068884262D133480024016841F4F1
:1020A00080510160006800F4805005902E4814387B
:1020B000016841F002010160016801F0020105912F
:1020C000016841F0010101600068022500F0010093
:1020D00005901820CDE9000502AA03274FF0050856
:1020E00082E8900169462148FFF728FB8020CDE96E
:1020F000000502AA694682E890011D48FFF71EFB11
:102100001D4D1C487F062860C5E901744FF48068A6
:10211000C5E903486C61AC61EC612C6228466C62D5
:10212000FFF77CFA08B1FEF79FFDF564AE63124D30
:10213000104860351830E5E802074020A5E8110195
:102140000D4845F814496030AC61EC612C626C625A
:10215000FFF764FA08B1FEF787FDB564AE6306B019
:10216000BDE8F081003001404438024000040240E4
:102170000000024040640240780100202DE9FF4F3A
:1021800081B01D46934604464FF001090E9EFFF7AD
:10219000D3FB074694F851006168012806D0B1F5D9
:1021A000827F3CD1A168C9BB042838D1029800289D
:1021B00071D0BBF1000FFBD0002DF9D094F8500086
:1021C00001282CD04FF0010A84F850A094F8510057
:1021D000042802D0052084F851004FF00008C4F80C
:1021E0005480C4F838B0E587A58702992163E58655
:1021F000A586C4F84080C4F8448020680168490678
:1022000003D4016841F040010160E068B0F5006F5F
:10221000606808D0F0B3012D49D081E0FFE70220CB
:1022200005B0BDE8F08F08B1012D39D1206B2168D0
:102230000088C860206B801C2063E08E401EE08612
:102240002EE02068816889070FD5E18E69B1B9F168
:10225000010F0AD1216B0988C160206B801C2063AB
:10226000E08E401EE0864FF0000920688168C907B3
:102270000CD0E18F51B1C068A16B0880A06B801CAD
:10228000A063E08F401EE0874FF00109FFF754FB89
:10229000C01B01E00BE067E0B04201D3701C50D1DD
:1022A000E08E0028CDD1E08F0028CAD13EE0206B1F
:1022B000216800780873206B401C2063E08E401E6C
:1022C000E0862DE02068816889070FD5E18E69B12D
:1022D000B9F1010F0AD1216B09780173206B401C01
:1022E0002063E08E401EE0864FF000092068816880
:1022F000C9070CD0E18F51B1C068A16B0870A06B09
:10230000401CA063E08F401EE0874FF00109FFF7FB
:1023100013FBC01BB04202D3701C01D011E086B188
:10232000E08E0028CED1E08F0028CBD13A4631464E
:10233000204602F095F850B12020606584F8508066
:1023400012E084F851A084F85080032068E7A06868
:1023500018B92068C1688068009084F851A084F89A
:102360005080606D0028F1D0012059E710B5401E63
:10237000B0F1807F01D3012010BD4FF0E0246061F7
:102380000F21601702F0D0FB0020A0610720206120
:10239000002010BD7047704710B5040003D094F8BA
:1023A0003D0010B107E0012010BD002084F83C0082
:1023B000204600F01FF8022084F83D00211D20680F
:1023C00002F046F9012084F8460084F83E0084F8C3
:1023D0003F0084F8400084F8410084F8420084F80B
:1023E000430084F8440084F8450084F83D00002050
:1023F00010BD000008B500681149884209D1114894
:10240000016841F400310160006800F40030009080
:1024100008BD0D498842FBD10A48001F016841F000
:10242000800101600068002200F08000009005211A
:102430002C20FFF7F3FABDE808402C20FFF7E0BAA4
:102440000044014044380240001C004070472DE920
:10245000F04104460068C66805694FF00007A90707
:1024600013D5B10711D5F91E01610120207720682D
:1024700080698007204602D0FFF7E8FF04E000F003
:10248000A9F8204600F03BF92777680716D57007B2
:1024900014D521686FF004000861022020772068BD
:1024A000806910F4407F204602D0FFF7CFFF04E0A0
:1024B00000F090F8204600F022F92777280715D57C
:1024C000300713D521686FF00800086104202077D9
:1024D0002068C0698007204602D0FFF7B7FF04E0FC
:1024E00000F078F8204600F00AF92777E80616D5BC
:1024F000F00614D521686FF01000086108202077DD
:102500002068C06910F4407F204602D0FFF79EFF8C
:1025100004E000F05FF8204600F0F1F82777E807C4
:1025200008D0F00706D021686FF00100086120464E
:1025300000F0E6F8280608D5300606D521686FF0C9
:10254000800008612046FFF725FF680608D5700661
:1025500006D521686FF040000861204600F0D1F8F0
:10256000A8060AD5B00608D521686FF020000861DA
:102570002046BDE8F041FFF70EBFBDE8F081000046
:1025800010B586B0044614216846FDF791FF0E4948
:102590002068884215D10D480021026842F02002CF
:1025A0000260006800F020000590402000900220AA
:1025B000CDE901010320CDE9031069460448FFF786
:1025C000BDF806B010BD00000044014030380240A4
:1025D00000140240704770B5044690F83C00002695
:1025E0000D4601280FD0012084F83C006AB1042A6E
:1025F0001DD0082A2FD00C2A3FD00126002084F8B5
:102600003C00304670BD022070BD206802F088F8A2
:102610002068816941F0080181612068816921F0A9
:1026200004018161206881692A69114311E02068F1
:1026300002F0A6F82068816941F400618161206898
:10264000816921F480618161206881692A6941EA98
:1026500002218161D2E7206802F0C8F82068C169D0
:1026600041F00801C1612068C16921F00401C16124
:102670002068C1692A69114311E0206802F0EAF874
:102680002068C16941F40061C1612068C16921F419
:102690008061C1612068C1692A6941EA0221C16182
:1026A000ACE710B5040003D094F83D0010B107E08A
:1026B000012010BD002084F83C00204600F01EF8E8
:1026C000022084F83D00211D206801F0C1FF012097
:1026D00084F8460084F83E0084F83F0084F8400007
:1026E00084F8410084F8420084F8430084F84400F0
:1026F00084F8450084F83D00002010BD7047704705
:102700007047704770477047F8B50168044608681D
:10271000CA684B6910F00F0F4FF0000559D003F055
:10272000010602F49077374365D0C10705D0D10583
:1027300003D5616C41F001016164410705D5D907FA
:1027400003D0616C41F002016164810705D5D907AE
:1027500003D0616C41F004016164010707D502F008
:102760002001314303D0616C41F008016164616C68
:1027700000293AD0800604D5900602D5204602F002
:10278000D1F820684069616CC0F38010090700D45B
:1027900060B3204602F09FF820684069400621D5CA
:1027A0002068143050E8001F21F0400140E800127A
:1027B000002AF5D1E06BA8B172490165E06BFEF724
:1027C0004BFE002811D0E06B016D01B0BDE8F04078
:1027D000084783060FD593060DD52046BDE8F8407F
:1027E00002F0A0B82046FFF78EFFF8BD2046FFF7A5
:1027F0008AFF6564F8BD266B2023012E7ED1C606B4
:102800007CD5D6067AD508684868009048694FF0AC
:10281000020640064DD5E26B106840684FF48077A1
:102820000004000C3AD0A18D814237D9E085D069EF
:10283000B8422DD020680C3050E8001F21F4807180
:1028400040E80012002AF5D12068143050E8001F3B
:1028500021F0010140E80012002AF5D1206814306F
:1028600050E8001F21F0400140E80012002AF5D195
:1028700084F84230256320680C3050E8001F21F0B6
:10288000100140E80012002AF5D1E06BFEF79BFD35
:102890006663A08DE18D401A81B206E0A18D814270
:1028A000A8D1D069B842A5D166632046FFF72AFFB8
:1028B000F8BDA08DE18D401A81B2E08D0028F7D0DF
:1028C0000029F5D020680C3050E8002F22F49072D7
:1028D00040E80027002FF5D12068143050E8002F81
:1028E00022F0010240E80027002FF5D184F84230A1
:1028F000256320680C3050E8002F00E006E022F04D
:10290000100240E80023002BF3D1CDE705062BD5BC
:10291000150629D594F841002128C9D1A068B0F541
:10292000805F01D12069B0B1206A411C2162216819
:1029300000784860E08C401E0004000CE084B7D1B1
:102940002068C16821F08001C1602068C16841F041
:102950004001C160F8BD206A0088C0F308004860EB
:10296000206A801C2062E5E74006F3D55006F1D5C9
:10297000CA68204622F04002CA6084F8413000F064
:1029800074F8F8BDC948000870B5040004D094F884
:102990004100002510B106E0012070BD84F84050D0
:1029A000204600F023F8242084F841002068C16804
:1029B00021F40051C160204602F016F82068016938
:1029C00021F4904101612068416921F02A014161AF
:1029D0002068C16841F40051C1606564202084F81A
:1029E000410084F842006563002070BD10B586B0D8
:1029F000044614216846FDF75BFD184920688842AB
:102A000029D117480021026842F0200202600068C4
:102A100000F02000059012481438026842F040028D
:102A20000260006800F0400005904FF48440009080
:102A30000220CDE90101032003900820049069469B
:102A40000848FEF77BFE002205214720FEF7E6FF3F
:102A50004720FEF7D5FF06B010BD0000001401406E
:102A6000443802400018024070477047FEE70000FB
:102A70008AB0072000E0642002F018FFFDF77CFE1A
:102A80000028F8D137489FED322ADFED321A9FED4A
:102A9000321ADFED320A9FED320A00F082FB9FED21
:102AA000320A684600F014FA01F0BEFC2F4D0120F6
:102AB000E8702C4C861E243C3146012003F000FCBB
:102AC0000128F9D12878400709D5287820F004009A
:102AD00028702449254810391D30FDF71DFE6878FF
:102AE00040070AD5687820F0040068701D4A211D4F
:102AF000121FA2F12A00FDF7C5FDA87840070DD5E9
:102B0000A87820F00400A87016491848143912302B
:102B1000FDF776FE94ED040A02F044FE04F1140180
:102B2000684691EC030A211DD1EC031A00F0ECF980
:102B30000C4B68463C331A1F111F02F0F5FC0C4881
:102B4000002302221946006804F0E8F9B4E7000007
:102B50000080894500A08C4500000000CDCC4C3E93
:102B60000000C8442C4C002000007A44C80000201B
:102B700008000020884201DA084670479042FCDDD8
:102B8000104670470F4810B50D49016003214160A0
:102B900000214FF410228160C0E903124FF40012AB
:102BA0004261017641768176C17601774177FEF701
:102BB000D6FA002803D0BDE81040FEF755B810BD86
:102BC00000640040F80000200D4808B5016841F499
:102BD000800101600068002200F48000009005215F
:102BE0003A20FEF71BFF3A20FEF70AFF00220521DC
:102BF0003B20FEF713FFBDE808403B20FEF700BF77
:102C00003038024010B50B4A00210B4802F08AFE12
:102C10000A4C084A002120602432094802F082FE52
:102C2000044A606048320021064802F07BFEA06042
:102C300010BD000074730008530C00080000002051
:102C4000712A0008A54800082DE9F04786B0142134
:102C50006846FDF72DFC50480025016841F0400111
:102C60000160016801F040010591016841F0020135
:102C70000160016801F002010591016841F0010164
:102C80000160016801F001010591016841F008014E
:102C90000160016801F008010591016841F004013B
:102CA0000160016801F004010591016841F08001B3
:102CB0000160016801F080010591016841F0200187
:102CC0000160016801F020010591016841F01001E7
:102CD00001600068314E00F010004FF4E0540590A0
:102CE000012221463046FEF721FEDFF8B4800122A2
:102CF00010214046FEF71AFEDFF8A8907715002253
:102D000039464846FEF712FEDFF89CA00122114624
:102D10005046FEF70BFE00940124694630460194AC
:102D2000CDE90245FEF70AFD1020CDE90004022698
:102D3000CDE9024669464046FEF700FD302000908E
:102D40004FF48810CDE9010469461848FEF7F6FCF7
:102D50000097CDE90145694648460395FEF7EEFC2C
:102D6000CDE902460094694650460194FEF7E6FC20
:102D7000002205210A20FEF751FE0A20FEF740FE40
:102D8000002205211720FEF749FE1720FEF738FE26
:102D900006B0BDE8F087000030380240001C024059
:102DA00000000240001002400004024000080240FF
:102DB000104810B50E4901604FF482714160002146
:102DC00002228160C0E90312012242615202826143
:102DD0003822C0E90721416281620A21C162FFF7FE
:102DE000F1F8002803D0BDE81040FDF73DBF10BD4D
:102DF000003001402001002010B588B01C21684639
:102E0000FDF756FB15481449002401605321C0E921
:102E1000011440F2CF71C0E9031480218161FFF7F2
:102E2000BBFA08B1FDF720FF0C48FFF73AFC08B1E8
:102E3000FDF71AFF6020CDE90004029400226946E4
:102E400006480494FFF7C7FB08B1FDF70DFF0348E0
:102E5000FFF796FB08B010BD004401403802002087
:102E60000C4810B50A49016040F247314160002129
:102E700040F6B732C0E9021201618161FFF78CFAB6
:102E8000002803D0BDE81040FDF7EEBE10BD0000E5
:102E9000001C0040800200200C4810B50A49016067
:102EA0004FF4E1314160002181600C22C160C0E932
:102EB00004128161C161FFF767FD002803D0BDE8FE
:102EC0001040FDF7D1BE10BD00140140C802002023
:102ED000B7EE001ADFED0B0A80ED001AC0ED010A13
:102EE000C0ED020AC0ED030A80ED040A80ED051A68
:102EF000C0ED060AC0ED070AC0ED080AC0ED090AD8
:102F0000704700000000000010B504462DED088B4E
:102F1000F0EE61BAB0EE628AF5EEC0BAF0EE42AA07
:102F2000F0EE418AB0EE609AF0EE409AB6EE00AA5A
:102F3000B7EE00BAF1EE10FA09D1F5EEC0AAF1EE43
:102F400010FA04D1B5EEC08AF1EE10FA69D02BEE7A
:102F5000AB0A0AEEAA0A08EE080A02F061FC2BEEA0
:102F6000801A6AEE801A28EE003AD4ED012AD4EDD8
:102F7000030A94ED000AB0EE4A8A22EEA02A10EE6F
:102F8000008AD4ED023A60EE222A00EE632A43EE74
:102F9000A02A00EEA08A23EE020A61EE220A61EE68
:102FA000883A01EE480A94ED061A41EEC20A43EE51
:102FB000623AB5EEC01AF1EE10FA22DDD4ED041A31
:102FC00021EE232A21EE003ACBEE212AD4ED071A76
:102FD00021EE201A42EE221AC4ED071A94ED082AB7
:102FE00071EEA99A03EE222A84ED082A94ED093A9B
:102FF00032EE099A01EE223A84ED093A73EE288AFC
:1030000007E09FED361A84ED071A84ED081A84ED67
:10301000091A94ED051A41EE239A01EE009A41EE49
:10302000208A94ED040A94ED033ACBEE000A20EED8
:103030008A0A60EE291A20EE092A60EE282A94EC0A
:10304000030A60EEE13A41EE423A43EE623A73EE31
:10305000804A60EE213AC4ED004A41EE223A43EE46
:10306000423A33EEA04A60EE023A20EE220A84EDA4
:10307000014A40EEE23A00EE820A43EE213A01EEC6
:10308000610A73EE813A70EE030A24EEA40AC4EDDD
:10309000023AC4ED030A04EE040A03EEA30A00EEAA
:1030A000A00A02F0BDFBD4ED000A60EE800AC4ED78
:1030B000000AD4ED010A60EE800AC4ED010AD4EDE5
:1030C000020A60EE800AC4ED020AD4ED030A20EE83
:1030D000800A84ED030ABDEC088B10BD00000000DF
:1030E000FEE7FEE700B580ED050AC0ED060A90EDAB
:1030F000071A30EE600A80ED081A034680ED070AD1
:10310000D0ED000A60EE800AC0ED090AD0ED0A0A8F
:10311000D0ED011A41EE800A30EE410AC0ED0A0AF4
:1031200090ED021A20EE010A83ED0B0A93ED030ADB
:10313000BDEEC01AB1EE400ABDEEC00A11EE102A73
:1031400010EE101ABDEEE00A10EE100AFFF712FDA5
:1031500000EE100AB8EEC00A83ED0A0AD3ED090AA0
:1031600030EE800AD3ED0B0A30EE200A83ED0C0A14
:10317000D3ED040ABDEEC00ABDEEE01AF1EE600A1E
:1031800010EE100AFDEEE00A11EE102A10EE901A71
:10319000FFF7F0FC00EE100AB8EEC00A83ED0C0A4F
:1031A00000BD80EC050A70472DE9F74FF84881B063
:1031B00001680A6822F001020A60F6490A68136889
:1031C00023F00103136003E0026822F001020260B1
:1031D000EF4800680268D207F6D103E0016821F0E9
:1031E00001010160EB4800680168C907F6D1EA48AF
:1031F000EA4AEB4BD0F84C90E84CE94DE74EE84FEB
:10320000DFF898E3DFF894C3D9F80000E449483ABE
:10321000603318341835303E78374FF4006A0CF1BB
:10322000300C704535D9884205D0904203D0984281
:1032300001D0A04201D1202026E0A84205D0B04212
:1032400003D0B84201D0604501D150461CE0DFF800
:10325000508308F13008404511D0DFF84083A8F1D1
:10326000180840450BD0DFF8388308F19008404536
:1032700005D0DFF8288308F14808404502D14FF413
:10328000001001E04FF00060DFF81083A8F14C0857
:103290003AE0DFF80C8308F1A808404537D98842A6
:1032A00005D0904203D0984201D0A04201D1202005
:1032B00026E0A84205D0B04203D0B84201D0604514
:1032C00001D150461CE0DFF8D88208F130084045B3
:1032D00011D0DFF8C882A8F1180840450BD0DFF8FC
:1032E000C08208F19008404505D0DFF8B08208F1AF
:1032F0004808404502D14FF4001001E04FF0006053
:10330000DFF89882A8F15008C8F8000074E0DFF8F0
:10331000908208F14808404537D9884205D090424C
:1033200003D0984201D0A04201D1202026E0A8423B
:1033300005D0B04203D0B84201D0604501D150461B
:103340001CE0DFF85C8208F13008404511D0DFF85E
:103350004C82A8F1180840450BD0DFF8448208F1F0
:103360009008404505D0DFF8348208F14808404510
:1033700002D14FF4001001E04FF00060DFF820822E
:10338000A8F11008C8F80C0036E0884205D0904239
:1033900003D0984201D0A04201D1202026E0A842CB
:1033A00005D0B04203D0B84201D0604501D15046AB
:1033B0001CE0DFF8EC8108F13008404511D0DFF85F
:1033C000DC81A8F1180840450BD0DFF8D48108F162
:1033D0009008404505D0DFF8C48108F14808404511
:1033E00002D14FF4001001E04FF00060DFF8B0812F
:1033F000A8F11008C8F80800D9F800004FF4806B55
:10340000704535D9884205D0904203D0984201D00A
:10341000A04201D1102026E0A84205D0B04203D03E
:10342000B84201D0604501D158461CE0DFF87081F8
:1034300008F13008404511D0DFF86081A8F1180884
:1034400040450BD0DFF8588108F19008404505D081
:10345000DFF8488108F14808404502D14FF4801058
:1034600001E04FF08060DFF83481A8F14C083AE0C9
:10347000DFF82C8108F1A808404537D9884205D0EB
:10348000904203D0984201D0A04201D1102026E002
:10349000A84205D0B04203D0B84201D0604501D166
:1034A00058461CE0DFF8F88008F13008404511D09C
:1034B000DFF8E880A8F1180840450BD0DFF8E0807D
:1034C00008F19008404505D0DFF8D08008F14808A1
:1034D000404502D14FF4801001E04FF08060DFF8EA
:1034E000BC80A8F15008C8F800007AE0DFF8B0808E
:1034F00008F14808404537D9884205D0904203D0AA
:10350000984201D0A04201D1102026E0A84205D067
:10351000B04203D0B84201D0604501D158461CE00A
:10352000DFF87C8008F13008404511D0DFF86C806E
:10353000A8F1180840450BD0DFF8648008F1900826
:10354000404505D0DFF8548008F14808404502D1D5
:103550004FF4801001E04FF08060DFF84480A8F164
:103560001008C8F80C003CE0884205D0904203D017
:10357000984201D0A04201D110202CE0A84205D0F1
:10358000B04203D0B84201D060450BD1584622E08A
:1035900078010020D801002020010020586402405A
:1035A00010600240DFF8688940450FD0DFF8648979
:1035B00040450BD0DFF8588908F16008404505D038
:1035C000DFF8508908F16008404502D14FF48010BF
:1035D00001E04FF08060DFF83889A8F14008C8F8B2
:1035E0000800D9F80000704532D9884205D09042D1
:1035F00003D0984201D0A04201D1082023E0A84284
:1036000005D0B04203D0B84201D0604502D14FF49A
:10361000007018E0DFF8F88840450FD0DFF8F48834
:1036200040450BD0DFF8E88808F16008404505D038
:10363000DFF8E08808F16008404502D14FF400202F
:1036400001E04FF00070DFF8CC88A8F1340837E0D3
:10365000DFF8BC8808F17808404534D9884205D0A5
:10366000904203D0984201D0A04201D1082023E02B
:10367000A84205D0B04203D0B84201D0604502D183
:103680004FF4007018E0DFF8888840450FD0DFF86D
:10369000848840450BD0DFF8788808F16008404501
:1036A00005D0DFF8708808F16008404502D14FF47A
:1036B000002001E04FF00070DFF85888A8F13808CA
:1036C000C8F800006EE0DFF8488808F118084045A7
:1036D00034D9884205D0904203D0984201D0A0420C
:1036E00001D1082023E0A84205D0B04203D0B8425F
:1036F00001D0604502D14FF4007018E0DFF8108867
:1037000040450FD0DFF80C8840450BD0DFF800882B
:1037100008F16008404505D0DFF8F88708F1600837
:10372000404502D14FF4002001E04FF00070DFF877
:10373000E087A8F14008C8F80C0033E0884205D0C3
:10374000904203D0984201D0A04201D1082023E04A
:10375000A84205D0B04203D0B84201D0604502D1A2
:103760004FF4007018E0DFF8A88740450FD0DFF86D
:10377000A48740450BD0DFF8988708F160084045E2
:1037800005D0DFF8908708F16008404502D14FF47A
:10379000002001E04FF00070DFF87487A8F14008C6
:1037A000C8F80800DFF86C87D9F8000008F118089D
:1037B0004FF4807E404531D9884205D0904203D0F5
:1037C000984201D0A04201D1042022E0A84205D0B5
:1037D000B04203D0B84201D0604501D1704618E034
:1037E000DFF82C8740450FD0DFF8288740450BD005
:1037F000DFF81C8708F16008404505D0DFF8148722
:1038000008F16008404502D14FF4802001E04FF0FC
:103810008070DFF80087A8F1340836E0DFF8F08622
:1038200008F17808404533D9884205D0904203D04A
:10383000984201D0A04201D1042022E0A84205D044
:10384000B04203D0B84201D0604501D1704618E0C3
:10385000DFF8BC8640450FD0DFF8B88640450BD076
:10386000DFF8AC8608F16008404505D0DFF8A48693
:1038700008F16008404502D14FF4802001E04FF08C
:103880008070DFF89086A8F13808C8F800006CE076
:10389000DFF87C8608F11808404533D9884205D006
:1038A000904203D0984201D0A04201D1042022E0EE
:1038B000A84205D0B04203D0B84201D0604501D142
:1038C000704618E0DFF8488640450FD0DFF84486A0
:1038D00040450BD0DFF8388608F16008404505D038
:1038E000DFF8308608F16008404502D14FF48020AF
:1038F00001E04FF08070DFF81886A8F14008C8F8A2
:103900000C0032E0884205D0904203D0984201D0AA
:10391000A04201D1042022E0A84205D0B04203D049
:10392000B84201D0604501D1704618E0DFF8E0856B
:1039300040450FD0DFF8DC8540450BD0DFF8D0855F
:1039400008F16008404505D0DFF8C88508F1600837
:10395000404502D14FF4802001E04FF08070DFF845
:10396000B085A8F14008C8F80800DFF8A885D9F8A4
:10397000000008F118084FF48039404530D98842DA
:1039800005D0904203D0984201D0A04201D101203D
:1039900021E0A84205D0B04203D0B84201D0604532
:1039A00001D1402017E0DFF8688540450FD0DFF8EF
:1039B000648540450BD0DFF8588508F16008404524
:1039C00005D0DFF8508508F16008404501D1484630
:1039D00001E04FF48000DFF83C85A8F1340835E0C1
:1039E000DFF82C8508F17808404532D9884205D0A7
:1039F000904203D0984201D0A04201D1012021E0A1
:103A0000A84205D0B04203D0B84201D0604501D1F0
:103A1000402017E0DFF8F88440450FD0DFF8F48449
:103A200040450BD0DFF8E88408F16008404505D038
:103A3000DFF8E08408F16008404501D1484601E024
:103A40004FF48000DFF8CC84A8F13808C8F80000F3
:103A50006AE0DFF8BC8408F11808404532D9884292
:103A600005D0904203D0984201D0A04201D101205C
:103A700021E0A84205D0B04203D0B84201D0604551
:103A800001D1402017E0DFF8888440450FD0DFF8EF
:103A9000848440450BD0DFF8788408F16008404505
:103AA00005D0DFF8708408F16008404501D1484630
:103AB00001E04FF48000DFF85884A8F14008C8F80E
:103AC0000C0031E0884205D0904203D0984201D0EA
:103AD000A04201D1012021E0A84205D0B04203D08C
:103AE000B84201D0604501D1402017E0DFF82084C2
:103AF00040450FD0DFF81C8440450BD0DFF8108420
:103B000008F16008404505D0DFF8088408F1600836
:103B1000404501D1484601E04FF48000DFF8F083D2
:103B2000A8F14008C8F80800FB48DFF8E883806C7B
:103B3000009008F118080068404531D9884205D046
:103B4000904203D0984201D0A04201D1202022E02F
:103B5000A84205D0B04203D0B84201D0604501D19F
:103B6000504618E0DFF8A88340450FD0DFF8A48363
:103B700040450BD0DFF8988308F16008404505D038
:103B8000DFF8908308F16008404502D14FF400103F
:103B900001E04FF00060DFF87C83A8F1340836E0E4
:103BA000DFF86C8308F17808404533D9884205D0A6
:103BB000904203D0984201D0A04201D1202022E0BF
:103BC000A84205D0B04203D0B84201D0604501D12F
:103BD000504618E0DFF8388340450FD0DFF83483D3
:103BE00040450BD0DFF8288308F16008404505D038
:103BF000DFF8208308F16008404502D14FF400103F
:103C000001E04FF00060DFF80C83A8F13808C8F835
:103C100000006CE0DFF8F88208F11808404533D95D
:103C2000884205D0904203D0984201D0A04201D1F1
:103C3000202022E0A84205D0B04203D0B84201D0F3
:103C4000604501D1504618E0DFF8C48240450FD0EE
:103C5000DFF8C08240450BD0DFF8B48208F160087D
:103C6000404505D0DFF8AC8208F16008404502D13C
:103C70004FF4001001E04FF00060DFF89482A8F1EB
:103C80004008C8F80C0032E0884205D0904203D0CA
:103C9000984201D0A04201D1202022E0A84205D0C4
:103CA000B04203D0B84201D0604501D1504618E07F
:103CB000DFF85C8240450FD0DFF8588240450BD0DA
:103CC000DFF84C8208F16008404505D0DFF84482F7
:103CD00008F16008404502D14FF4001001E04FF0B8
:103CE0000060DFF82C82A8F14008C8F808000098AE
:103CF000DFF820A200680AF1180A504531D988423D
:103D000005D0904203D0984201D0A04201D11020AA
:103D100022E0A84205D0B04203D0B84201D06045AD
:103D200001D1584618E0DFF8E88140450FD0DFF8B0
:103D3000E48140450BD0DFF8D88108F160084045A8
:103D400005D0DFF8D08108F16008404502D14FF47A
:103D5000801001E04FF08060DFF8B881A8F13408EE
:103D600036E0DFF8AC8108F17808404533D9884265
:103D700005D0904203D0984201D0A04201D110203A
:103D800022E0A84205D0B04203D0B84201D060453D
:103D900001D1584618E0DFF8788140450FD0DFF8B0
:103DA000748140450BD0DFF8688108F16008404518
:103DB00005D0DFF8608108F16008404502D14FF47A
:103DC000801001E04FF08060DFF84881A8F13808EA
:103DD000C8F800006CE0DFF8388108F118084045A9
:103DE00033D9884205D0904203D0984201D0A042F6
:103DF00001D1102022E0A84205D0B04203D0B84241
:103E000001D0604501D1584618E0DFF804814045F3
:103E10000FD0DFF8008140450BD0DFF8F48008F1C7
:103E20006008404505D0DFF8EC8008F160084045A7
:103E300002D14FF4801001E04FF08060DFF8D080B5
:103E4000A8F14008C8F80C0032E0884205D0904242
:103E500003D0984201D0A04201D1102022E0A84214
:103E600005D0B04203D0B84201D0604501D15846D8
:103E700018E0DFF89C8040450FD0DFF8988040457F
:103E80000BD0DFF88C8008F16008404505D0DFF8E2
:103E9000848008F16008404502D14FF4801001E0B1
:103EA0004FF08060DFF86880A8F14008C8F808008B
:103EB00000980068504536D9884205D0904203D01A
:103EC000984201D0A04201D1082029E0A84205D0A3
:103ED000B04203D0B84201D0604502D14FF4007027
:103EE0001EE0DFF82C8040450FD0DFF828804045E9
:103EF0000BD0DFF81C8008F16008404505D0DFF8E2
:103F0000148008F16008404508D14FF4002007E014
:103F10004060024040640240200100204FF00070E9
:103F2000DFF8F08439E0DFF8F084404538D9884282
:103F300005D0904203D0984201D0A04201D1082080
:103F400027E0A84205D0B04203D0B84201D0604576
:103F500002D14FF400701CE0DFF8BC84A8F17808AF
:103F6000404511D0DFF8AC8408F1340840450BD04F
:103F7000DFF8A484A8F11808404505D0DFF8948440
:103F800008F19408404502D14FF4002001E04FF0C1
:103F90000070DFF88084A8F10408C8F8000076E01B
:103FA000DFF87484A8F16008404538D9884205D00C
:103FB000904203D0984201D0A04201D1082027E0CE
:103FC000A84205D0B04203D0B84201D0604502D12A
:103FD0004FF400701CE0DFF84084A8F178084045F9
:103FE00011D0DFF8308408F1340840450BD0DFF8F9
:103FF0002884A8F11808404505D0DFF8188408F196
:104000009408404502D14FF4002001E04FF00070C9
:10401000DFF80484A8F1B808C8F80C0037E088423B
:1040200005D0904203D0984201D0A04201D108208F
:1040300027E0A84205D0B04203D0B84201D0604585
:1040400002D14FF400701CE0DFF8CC83A8F17808AF
:10405000404511D0DFF8BC8308F1340840450BD04F
:10406000DFF8B483A8F11808404505D0DFF8A48331
:1040700008F19408404502D14FF4002001E04FF0D0
:104080000070DFF89483A8F1B808C8F80800009819
:104090000068504533D9884205D0904203D09842F9
:1040A00001D0A04201D1042026E0A84205D0B042B0
:1040B00003D0B84201D0604501D170461CE0DFF862
:1040C0005883A8F17808404511D0DFF8488308F1FB
:1040D000340840450BD0DFF84083A8F1180840456C
:1040E00005D0DFF8308308F19408404502D14FF441
:1040F000802001E04FF08070DFF8188338E0DFF8AF
:104100001883404537D9884205D0904203D0984261
:1041100001D0A04201D1042026E0A84205D0B0423F
:1041200003D0B84201D0604501D170461CE0DFF8F1
:10413000E882A8F17808404511D0DFF8D88208F16C
:10414000340840450BD0DFF8D082A8F1180840456C
:1041500005D0DFF8C08208F19408404502D14FF441
:10416000802001E04FF08070DFF8A882A8F10408F9
:10417000C8F8000074E0DFF8A082A8F160084045AC
:1041800037D9884205D0904203D0984201D0A0424E
:1041900001D1042026E0A84205D0B04203D0B842A5
:1041A00001D0604501D170461CE0DFF86C82A8F1B7
:1041B0007808404511D0DFF85C8208F134084045AA
:1041C0000BD0DFF85482A8F11808404505D0DFF87D
:1041D000448208F19408404502D14FF4802001E068
:1041E0004FF08070DFF83082A8F1B808C8F80C00F2
:1041F00036E0884205D0904203D0984201D0A042D8
:1042000001D1042026E0A84205D0B04203D0B84234
:1042100001D0604501D170461CE0DFF8FC81A8F1B7
:104220007808404511D0DFF8EC8108F134084045AA
:104230000BD0DFF8E481A8F11808404505D0DFF87D
:10424000D48108F19408404502D14FF4802001E068
:104250004FF08070DFF8C081A8F1B808C8F80800F6
:1042600000980068504529D9884205D0904203D073
:10427000984201D0A04201D101201DE0A84205D002
:10428000B04203D0B84201D0604501D1402013E0D4
:104290006149783988420BD05E493431884207D071
:1042A0005D491839884203D05A499431884201D176
:1042B000484601E04FF4800056492DE0DFF8588170
:1042C00040452BD9884205D0904203D0984201D076
:1042D000A04201D101201DE0A84205D0B04203D088
:1042E000B84201D0604501D1402013E04A497839F5
:1042F00088420BD047493431884207D046491839A3
:10430000884203D043499431884201D1484601E0B4
:104310004FF480003F49091F08605CE0DFF8F88037
:10432000A8F1600840452BD9884205D0904203D0BF
:10433000984201D0A04201D101201DE0A84205D041
:10434000B04203D0B84201D0604501D1402013E013
:104350003149783988420BD02E493431884207D010
:104360002D491839884203D02A499431884201D115
:10437000484601E04FF480002749B839C8602AE078
:10438000884205D0904203D0984201D0A04201D18A
:1043900001201DE0A84205D0B04203D0B84201D0B0
:1043A000604501D1402013E01B49783988420BD089
:1043B00018493431884207D017491839884203D048
:1043C00014499431884201D1484601E04FF48000FD
:1043D0001149B8398860114802990268D1600168B2
:1043E0000F4A8A600F49019B0C68E3600B689A6072
:1043F0000368039A5A600B68039A5A60006802685F
:1044000042F0010202600868016841F001010160A8
:10441000BDE8FF8F0C640240B860024078010020C4
:104420000C300140D80100200B4801684A6842F076
:1044300002024A6001684A6842F001024A6000686C
:10444000016841F04001016004480068016841F0E2
:104450001001016070470000200100207801002059
:10446000F8B515460E460B4600920446012202217D
:1044700000F02CF8A0B9134813490068B0FBF1F024
:104480004FF47A71484300906068B0F5827F0DD197
:104490003346002280212046009500F017F870B1C5
:1044A000606D40F0200060650320F8BD009830B1D9
:1044B000401E009020688068C0430006F6D50020AA
:1044C000F8BD00001800002000366E012DE9F84309
:1044D0001E46914688460446089DFDF72DFA401B6E
:1044E000351AFDF729FA074626480068C0F3CB3095
:1044F00068430AE0701C09D0FDF71EFAC01BA842F1
:104500000FD275B10098B8B3401E00902068816842
:1045100038EA010033D000214945EBD10020BDE845
:10452000F8832068416821F0E00141606068B0F5DF
:10453000827F0BD1A068B0F5004F02D0B0F5806F3C
:1045400004D12068016821F040010160A06AB0F543
:10455000005F09D12068016821F4005101602068E2
:10456000016841F400510160012084F851000020ED
:1045700084F850000320D2E7FFE70025C6E70121B9
:10458000CAE700001800002010B5FDF7DBF902F0C3
:1045900035FD012803D0BDE8104002F0E9B910BD97
:1045A00030B593B030216846FBF782FF14210CA888
:1045B000FBF77EFF1D480025016841F08051016036
:1045C000006800F0805011901948016841F4804162
:1045D00001600068022400F48040119001200090E6
:1045E000000401908001CDE9064006200890A82033
:1045F000CDE9090404200B906846FDF72DFB08B1B6
:1046000072B6FEE70CA90F2081E831004FF4A050EC
:104610000F904FF48050109005210CA8FDF730FA50
:10462000002801D072B6FEE713B030BD403802401A
:10463000007000400248016841F470010160704759
:1046400088ED00E00148FDF702BF00008002002075
:10465000F0B50268274B284D284E294F294C4FF0C2
:10466000804C984209D0604507D0A84205D0B0429E
:1046700003D0B84201D0A04204D122F0700E4A68A3
:1046800042EA0E0298421BD0604519D0A84217D0CA
:10469000B04215D0B84213D0A04211D01A4DA84252
:1046A0000ED01A4DA8420BD0194DA84208D0194D72
:1046B000A84205D0184DA84202D0184DA84203D1F7
:1046C00022F44075CA682A434D6922F080022A43C9
:1046D0008D68C5620D688562984201D0A04201D103
:1046E00009690163016841F0040101600121416130
:1046F0000260F0BD000001400004004000080040DE
:10470000000C004000040140004001400044014012
:104710000048014000180040001C004000200040FC
:10472000F0B5036A026A22F00102026242688469FB
:10473000124E24F073050C682C4323F002058B689D
:104740002B430D4DA84201D0B04205D123F00807FC
:10475000CB683B4323F00403A84201D0B04205D10B
:104760004D6922F4407215438A692A43426084618C
:10477000496841630362F0BD00000140000401404C
:10478000F0B5026A036A23F0100303624368846988
:104790000D6824F4E64444EA05248D6822F02002E2
:1047A00042EA05120F4D104EA84201D0B04206D188
:1047B000CF6822F0800242EA071222F04002A842AB
:1047C00001D0B04207D14D6923F4406343EA850329
:1047D0008D6943EA850343608461496881630262AD
:1047E000F0BD00000000014000040140F0B5026A85
:1047F000036A23F4807303624368C46922F400727D
:1048000024F073050C68124E2C438D6842EA052291
:104810000E4DA84201D0B04206D1CF6822F400620A
:1048200042EA072222F48062A84201D0B04207D1B6
:104830004D6923F4405343EA05138D6943EA051398
:104840004360C4614968C1630262F0BD0000014079
:104850000004014030B5046A026A22F48052026208
:104860004268C3690D6823F4E64343EA05238D6873
:1048700024F4005444EA0534084DA84202D0084DFF
:10488000A84204D14D6922F4804242EA8512426076
:10489000C36149680164046230BD0000000001404A
:1048A00000040140FBF7E6FF00F0ACFE00F0A0FEC4
:1048B000044800F091FE0348FCF704F8012000F0E2
:1048C000F5FFF3E7844C002010B5806B0021C18513
:1048D000FDF719FF10BD01680C3151E8002F22F4DB
:1048E000907241E80023002BF5D10168143151E8A2
:1048F000002F22F0010241E80023002BF5D1016BCB
:10490000012909D101680C3151E8002F22F0100271
:1049100041E80023002BF5D1202180F8421000212E
:104920000163704708B590F84210222901D0022097
:1049300008BD82684FF480539A4201D1016921B1C8
:10494000816A9A421BD04AB10AE00268816A5268C1
:10495000C2F308020A80816A891C08E0026972B108
:104960000268526802F07F020A70816A491C816203
:10497000C18D491E0904090CC18503D01BE00268E2
:104980005268F1E70168CA6822F02002CA60016833
:10499000CA6822F48072CA6001684A6922F0010282
:1049A0004A61202180F8421000214163026B012AF4
:1049B00003D0FEF759F8002008BD016301680C31EF
:1049C00051E8002F22F0100241E80023002BF5D11E
:1049D00001680A68D20602D50A6849680091818D8B
:1049E000FDF790FEE7E7000070B504460068016936
:1049F000E26821F44051114301612169A068E26934
:104A000008436169114308432168CA6849F20C638D
:104A10009A430243CA6020684169A26921F4407147
:104A20001143416131492068884202D030498842AF
:104A300002D1FDF7CFF801E0FDF7BCF8E2690023F1
:104A4000192164253226B2F5004F626828D0A0FBF8
:104A50000101930F9200FBF767FC0146B0FBF5F0F4
:104A60006FF01802504301EB800006EB0010B0FB22
:104A7000F5F000F0F002B1FBF5F002EB0012B1FB33
:104A8000F5F06FF01803584301EB800006EB0010BF
:104A9000B0FBF5F000F00F0021681044886070BD95
:104AA000A0FB010192185B41FBF73EFC0146B0FB05
:104AB000F5F00201B1FBF5F06FF01803584301EB7C
:104AC000800006EBC000B0FBF5F000F0F80002EB50
:104AD0004002B1FBF5F0584301EB800006EBC0004B
:104AE000B0FBF5F000F00700D6E700000010014031
:104AF000001401400148FDF707BE0000C802002075
:104B0000FEE74100080218BF04200A0E18BF40F05B
:104B100001004FF07F4232EA010108BF40F002007D
:104B2000012808BF052070470907090E002804DB8B
:104B300000F1E02080F80014704700F00F0000F151
:104B4000E02080F8141D704710B54FF00E402DED99
:104B5000028BB0EE408A18EE104A00EB4400B0F130
:104B6000506F4AD84FF0FC40B0EB440F22D2B0EE69
:104B7000C80AF7EE000A30EEC00AF6EE000A60EE50
:104B8000208A18EE900A01F067FB01EE100A14F07B
:104B9000004F1DBFDFED2D0A9FED2D0AB1EE411A2A
:104BA000DFED2C0A08BF9FED2C0AF8EE001A21EE6B
:104BB000218A05E0DFED290A68EE088AB0EE600A76
:104BC0009FED271ADFED271A30EE080A48EE811A0A
:104BD0009FED251A08EEA11ADFED241A48EE811A7E
:104BE0009FED231A08EEA11A68EE281ABDEC028B7D
:104BF00001EE810A30EE200A10BD4FF0E440B0EB28
:104C0000440F0CD918EE100AFFF77BFF042808BFE9
:104C100000F094F9B0EE480ABDEC028B10BD4FF0E5
:104C20007F40B0EB440F07D2B0EE480ABDEC028BD8
:104C3000BDE8104000F074B90120FBF768FCBDEC42
:104C4000028BBDE8104000F071B900000000C9BF40
:104C500022AAFDB90000C93F22AAFD3900000000C8
:104C600024FE1C3DC78AD83C1E67383D1B93993DE6
:104C7000AFAA2A3E70B54FF068422DED048BF0EEDE
:104C8000408A18EE900AB0EE608A18EE101A02EB15
:104C90004003B3F1654F3CBF02EB4102B2F1654FF7
:104CA0007DD200BFC0F3C753C1F3C7529A1A1B2A63
:104CB00009DD10F0004F14BF9FED830A9FED830ABA
:104CC000BDEC048B70BD12F11A0F36DA11F0004FF3
:104CD00009D010F0004F0CBF9FED7D0A9FED7D0ABB
:104CE000BDEC048B70BD88EE889A19EE100AFFF7B0
:104CF00008FF042808BF00F021F918EE900AFFF71A
:104D000000FF054618EE100AFFF7FBFE044619EEF9
:104D1000100AFFF7F6FE042D18BF052D08D1042C4C
:104D200018BF052C04D1002804BF0220FBF7EFFBBD
:104D3000B0EE490ABDEC048B70BD4200B2EB410FEE
:104D40003AD910F0004F19BFDFED630A9FED630AF7
:104D5000DFED630A9FED630AB0EE481A0A46B1EE32
:104D6000688A80F00041F0EE418A10460A1A52002B
:104D7000B2F1807F34D2484010F0004FDFED5A1A74
:104D80009FED5A2A1DBFBEEE001A70EEE10A30EE0A
:104D9000420AB6EE001A08BF70EEA10A00E040E039
:104DA00008BF30EE020AB0EE682A01EE482A08EE8B
:104DB000818AC2EE081A15E011F0004F04BF9FED82
:104DC0004C0AF0EE400AD1D010F0004F19BFDFEDD1
:104DD000490A9FED490ADFED490A9FED490AC5E7F7
:104DE000C8EE881A21EEA11A9FED462ADFED462A69
:104DF00041EE022A9FED452A01EE222ADFED442AE8
:104E000041EE022A9FED432ABDEC048B01EE222ADB
:104E100021EE811A01EE020A30EE210A30EE200A5C
:104E200070BD4FF07F42B2EB400F28BFB2EB410F95
:104E300009D2F0EE480AB0EE680ABDEC048BBDE87A
:104E4000704000F070B840EA01035B0008BF41F019
:104E5000FF410BD0B2EB400F08BFB2EB410F08D1BE
:104E600020F0804008EE900A21F0804108EE101AF0
:104E700018E7B2EB400F12BF5FEA410340F0FF407A
:104E800001F000413FF40EAFB2EB410F12BF5FEAF9
:104E9000400200F0004041F0FF413FF403AF4A0000
:104EA00092EA40033FF5FEAE002AACBF9FED1A0A1E
:104EB0009FED1A0A68EE808A28EE008A18EE900AA2
:104EC00018EE101AEEE60000DB0FC9BFDB0FC93F7A
:104ED000DB0F4940DB0F49C00000C9BF22AAFDB962
:104EE0000000C93F22AAFD390060ED3EC30ACE375B
:104EF00000000000000049C022AA7DBA000049401D
:104F000022AA7D3A2DAD65BD8FB8D53D0FB511BE36
:104F100061C84C3EA8AAAABE0000804F0000802FA6
:104F200030EE000A704730EE200A7047DFED020ACB
:104F300080EEA00A70470000000000009FED020A0A
:104F400020EE000A7047000000000010F8B50020B5
:104F50008DF800000446FBF77BFB8020FBF740FC4C
:104F60005520FBF73DFC5520FBF73AFC8DF800007F
:104F7000FBF766FB9620FBF7CCFBFBF769FB802079
:104F8000FBF72EFC5520FBF72BFC5520FBF728FCEC
:104F90008DF80000FBF754FB9620FBF7BAFBFBF7FC
:104FA00057FBB6217E20FBF742FCFBF749FB502064
:104FB000FBF7ADFBFBF74CFB8020FBF711FC55200A
:104FC000FBF70EFC5520FBF70BFC8DF80000FBF700
:104FD00037FB9620FBF79DFBFBF73AFB8020FBF7A6
:104FE000FFFB5520FBF7FCFB5520FBF7F9FB8DF889
:104FF0000000FBF725FB9620FBF78BFB9DF80000DC
:105000001E282ED11B4D00BFFBF722FB04EB4406EC
:105010007719A85D7978FBF70AFCFBF711FB96205E
:10502000FBF777FBFBF714FBA85D40F08000FBF774
:10503000D7FB5520FBF7D4FB5520FBF7D1FB8DF8B0
:105040000000FBF7FDFA9620FBF763FB78789DF8EC
:105050000010884207D004EB4400284480780028E0
:1050600000D00120F8BD641CE4B2062CCCD3002093
:10507000F8BD0000A4000020F0B587B0002001902A
:1050800002908DF800000546FBF7E2FA8020FBF75E
:10509000A7FB5520FBF7A4FB5520FBF7A1FB8DF8E0
:1050A0000000FBF7CDFA9620FBF733FBFBF7D0FAB5
:1050B0008020FBF795FB5520FBF792FB5520FBF773
:1050C0008FFB8DF80000FBF7BBFA9620FBF721FB66
:1050D000FBF7BEFAB6217E20FBF7A9FBFBF7B0FA7F
:1050E0005020FBF714FBFBF7B3FA8020FBF778FBAB
:1050F0005520FBF775FB5520FBF772FB8DF8000080
:10510000FBF79EFA9620FBF704FBFBF7A1FA802041
:10511000FBF766FB5520FBF763FB5520FBF760FBB5
:105120008DF80000FBF78CFA9620FBF7F2FA9DF859
:1051300000001E2861D17D4CFBF78AFA05EB45067D
:105140003719A05D7978FBF772FBFBF779FA9620A7
:10515000FBF7DFFAFBF77CFAA05D40F08000FBF77D
:105160003FFB5520FBF73CFB5520FBF739FB8DF847
:105170000000FBF765FA9620FBF7CBFA78789DF8EC
:105180000010884204D005EB45002044807832E0CE
:105190005020FBF7BCFA6D1CEDB2042DCCD30025DA
:1051A000FBF756FA05EB45073E19717B307BFBF7A1
:1051B0003EFBFBF745FA9620FBF7ABFAFBF748FA04
:1051C000307B40F08000FBF70BFB5520FBF708FB22
:1051D0005520FBF705FB8DF80000FBF731FA962010
:1051E000FBF797FA707B9DF80010884208D005EB1A
:1051F00045002044807B002800D0012007B0F0BD8E
:105200005020FBF784FAFBF723FA9220FBF7E8FA29
:10521000062201A91220FBF7C6FAFBF711FA9DF846
:1052200005006D1C01029DF80400EDB2014303A8C6
:10523000022D20F817109DF807109DF8062000EBAE
:10524000470042EA012141809DF809109DF808209D
:1052500042EA01218180A3D3FBF7FAF900216D20F6
:10526000FBF7E5FAFBF7ECF99620FBF752FAFBF7B0
:10527000EFF9ED20FBF7B4FA5520FBF7B1FA552012
:10528000FBF7AEFA8DF80000FBF7DAF99620FBF792
:1052900040FA9DF800000028AFD1FBF7D9F9B621FC
:1052A0007E20FBF7C4FAFBF7CBF95020FBF72FFA6F
:1052B000BDF90C00BDF91210411A40F2555081425F
:1052C0009BDBBDF90E10BDF91420891A814294DBD5
:1052D000BDF91000BDF91610401AB0F52A7F8CDB1D
:1052E000FBF7B6F98020FBF77BFA5520FBF778FA3D
:1052F0005520FBF775FA8DF80000FBF7A1F9962011
:10530000FBF707FAFBF7A4F98020FBF769FA5520B1
:10531000FBF766FA5520FBF763FA8DF80000FBF700
:105320008FF99620FBF7F5F9002067E70074000875
:10533000F8B500248DF80040FBF79CF96946002081
:10534000FBF743FAFBF78EF99620FBF7E2F9FBF740
:1053500091F969460020FBF738FAFBF783F99620AC
:10536000FBF7D7F9FBF786F9B6211420FBF75FFAB4
:10537000FBF778F95020FBF7CAF9FBF77BF9694690
:105380000020FBF722FAFBF76DF99620FBF7C1F935
:10539000FBF770F969460020FBF717FAFBF762F993
:1053A0009620FBF7B6F99DF800000F2824D1164D82
:1053B000FBF760F904EB44067719A85D7978FBF7F1
:1053C00036FAFBF74FF99620FBF7A3F9FBF752F9F2
:1053D000A85D6946FBF7F9F9FBF744F99620FBF75E
:1053E00098F978789DF80010884207D004EB4400C3
:1053F00028448078002800D00120F8BD641CE4B265
:10540000062CD5D30020F8BDB600002038B500200A
:105410008DF800000446FBF72DF969460020FBF7E4
:10542000D4F9FBF71FF99620FBF773F9FBF722F984
:1054300069460020FBF7C9F9FBF714F99620FBF742
:1054400068F9FBF717F9B6211420FBF7F0F9FBF721
:1054500009F95020FBF75BF9FBF70CF969460020CE
:10546000FBF7B3F9FBF7FEF89620FBF752F9FBF7D1
:1054700001F969460020FBF7A8F9FBF7F3F896203D
:10548000FBF747F9FBF7F6F801213C20FBF7CFF9D2
:10549000FBF7E8F85020FBF73AF900BFFBF7EAF812
:1054A00069463C20FBF791F9FBF7DCF89620FBF707
:1054B00030F9641C9DF80000E4B2800701D40A2C86
:1054C000ECD30A2C03D09DF80000400701D5012041
:1054D00038BD002038BD000070B506460020114CD4
:1054E0001546B1F5006F03D30422C4E9011201E0AF
:1054F0002160A060C4E9030301232A46094930461C
:10550000FBF7C6FB60B102232A4606493046FBF78B
:10551000BFFB28B104232A4602493046FBF7B8FBFB
:10552000002070BD6C4C00202DE9F0411D462DED92
:10553000028BB7EE008A90ED000A90ED011AF0EEB2
:10554000008A60EE001AF0EE480A16460F4641EE59
:10555000011A044651EEA80AD0ED031A20EE210AE2
:10556000D0ED021A01EE210A20EE280AFFF782FB95
:1055700087ED000A94ED010AD4ED030A94ED021AB6
:1055800020EE200AD4ED000A00EEC10AF8EE000A6F
:1055900020EE200AFFF7D8FA86ED000A94ED001AF3
:1055A00094ED030AF0EE480A61EE011A40EE001A8B
:1055B00051EEA80AD4ED011A21EE211AD4ED021AF7
:1055C00001EE801A21EE280AFFF754FB85ED000A50
:1055D000BDEC028BBDE8F08110B50446D0ED010AA8
:1055E00090ED2F0A4430FDF77DFD84ED370A10BDA4
:1055F00003489FED020A80ED2F0A7047CDCCCC3DC9
:10560000844C002010B521482DED048BDFED1E8A5F
:105610009FED1C8AB0EE681AB0EE482AF0EE481AE8
:10562000F0EE680AB0EE680AFDF7BBFD9FED189A30
:105630001648B0EE482AF0EE481AB0EE491AF0EEDD
:10564000680A9FED140A6830FDF7ABFD0F48B0EE15
:10565000482AF0EE481AB0EE491AF0EE680AB0EEA9
:10566000480A3430FDF79DFD0849042010396422B2
:1056700008600146BDEC048BBDE81040064800F010
:105680000BBE00000000FA4400000000944C002013
:10569000CDCC4C3DCDCCCC3EF8000020394910B5E6
:1056A0000878C4073848D0E9123220D0186800685A
:1056B000C0071CD110680068C00718D1487880075F
:1056C00015D48878800712D4087820F0010008707B
:1056D000087840F002000870002201212B48FCF7F6
:1056E00025F9284908221C31A1F1080044E0487836
:1056F000C40727481ED01C682468E4071AD1146820
:105700002468E40716D10C78A40713D48C78A40776
:1057100010D44A7822F001024A704A7842F002021C
:105720004A7000221021FCF701F916480922194994
:10573000243021E08C78E40722D01B681B68DB074B
:105740001ED112681268D2071AD10A78920717D4AC
:105750004A78920714D48A7822F001028A708A78F3
:1057600042F002028A7000221021FCF7DFF805499E
:1057700004221031A1F10A00BDE81040FDF714BD6C
:1057800010BD0000C80000202001002000040240DD
:1057900000000240FC4B0020014909684863704743
:1057A0003802002010B51848184C0179A9B1DFED76
:1057B000180A2046FDF796FC94ED0C0AB5EEC00AD7
:1057C000F1EE10FA03D29FED130A84ED0C0ABCEE41
:1057D000C00A10EE100A80B212E010EE101A0E4A43
:1057E00091420BDD4179491CC9B24171C82905D9E3
:1057F00001219FED0A0A017184ED0A0A41F2873006
:10580000BDE81040FFF7C8BFC80000202C4C0020A6
:1058100000003442000000000000344200401C45FB
:1058200010EE100AF6EE000A074960EE200AA1EB1E
:10583000600000EE100A20EE801AF7EE080A41EE32
:10584000400A20EE800A7047DF59375FFCF782F884
:10585000FEF7A6FEFDF7F8F9FDF7B6F9FDF792F9A8
:10586000FDF7A6FAFDF7C8FAFDF7FAFAFDF714FB03
:1058700000F02AF8FDF7C6F900F038F8FEE700005E
:105880007CB508A541F40041D5E90045CDE90045C6
:10589000ADF80420ADF8063008236A46FFF71CFE79
:1058A0007CBD0000070700802000800010B5EFF3EA
:1058B000058111B16FF0050403E0002408B100F088
:1058C0009FFE204610BD0000EFF3058010B16FF081
:1058D000050070470448016811B14FF0FF30704770
:1058E00001210160002070476C00002010B5EFF32B
:1058F000058010B16FF0050010BD0848016801294E
:1059000002D04FF0FF3010BD054A002182F8141D6F
:105910000221016000F034FF002010BD6C00002067
:105920000BE000E02DE9FF414FEA01034FF00005D5
:10593000EFF30581039549BB40B38027182100246C
:105940004AB3166806B1344696691EB13146761ED2
:10595000382E02D21679F60703D0002004B0BDE835
:10596000F081566906B1B708D2F808C0BCF1000F43
:105970000DD0D5685C2D18D312693AB136B18DE8D7
:1059800006103A46214601F09EFA03900DE0D668D3
:105990005EB912694AB903AACDE90012BAB221462A
:1059A00001F064FA012800D003950398D6E70000BF
:1059B0002DE9F041154C0F460546E66821680020A8
:1059C00081F85A002068001D00F0E6FC681C07D131
:1059D00037B12168BDE8F0410D48091D00F02CBD2C
:1059E00020683544B5424560216805D2A06BBDE80A
:1059F000F041091D00F008BD606B091D00F004FDB9
:105A0000A06A854200D2A562BDE8F0811C0000209A
:105A1000000800202DE9F041054600F019FD2D4C4D
:105A2000A068401CA06020682B4F10B1606930B3A3
:105A30002BE02560A068012827D1002606EB860010
:105A400007EB800000F0D2FC761C382EF6D32348FA
:105A500000F0CCFC2148143000F0C8FC1F4828306E
:105A600000F0C4FC1D483C3000F0C0FC1B48503026
:105A700000F0BCFC194860631430A06305E02068A6
:105A8000E96AC06A884200D82560606A401C60628A
:105A90006864E86A2169884200D9206100EB8000CF
:105AA00007EB8000291D00F0C7FC00F0F1FC6069E5
:105AB00000280CD02068E96AC06A884207D20849E9
:105AC0004FF080500860BFF34F8FBFF36F8FBDE87A
:105AD000F08100001C00002050030020B0070020CF
