:020000040800F2
:10000000481501247504000845E6000879B7000882
:1000100041E60008E7190008F93301080000000074
:10002000000000000000000000000000B503000810
:10003000792600080000000011040008E3F600081B
:100040009304000893040008930400089304000834
:100050009304000893040008930400089304000824
:100060009304000893040008930400089304000814
:1000700093040008751F0008851F0008951F0008DD
:10008000A51F0008B51F00089304000801280008F8
:1000900021280008112800083128000893040008CE
:1000A00093040008930400089304000893040008D4
:1000B00093040008930400089304000893040008C4
:1000C00093040008930400089304000893040008B4
:1000D00065F5000893040008E50A01089304000888
:1000E0009304000893040008000000009304000833
:1000F000930400089304000893040008C51F000837
:100100009304000893040008930400089304000873
:100110009304000859FE00089304000893040008A3
:10012000D51F0008E51F0008F51F0008930400080C
:100130009304000893040008930400086128000851
:1001400000000000000000000000000000000000AF
:100150009304000893040008930400089304000823
:100160009304000893040008930400089304000813
:1001700093040008E9E80008930400080000000068
:10018000930400089304000869FE00089304000823
:1001900093040008930400089304000893040008E3
:1001A0009304000893040008930400080000000072
:1001B00093040008930400089304000893040008C3
:1001C00093040008930400080000000000000000F1
:1001D0000000000000000000930400080000000080
:1001E000000000000000000000000000000000000F
:1001F00000000000000000009304000893040008C1
:100200009304000893040008000000009304000811
:100210009304000893040008930400089304000862
:100220009304000800000000930400080000000090
:1002300093040008930400080000000093040008E1
:100240009304000893040008930400089304000832
:100250009304000893040008930400089304000822
:100260009304000893040008930400089304000812
:1002700093040008930400089304000800000000A1
:1002800093040008930400089304000893040008F2
:100290000000000093040008930400080000000020
:1002A0000000000093040008930400089304000871
:1002B000D50A0108930400089304000841280008A7
:1002C00051280008C1F800089304000800F002F863
:1002D00000F060F80AA090E8000C82448344AAF180
:1002E0000107DA4501D100F055F8AFF2090EBAE87E
:1002F0000F0013F0010F18BFFB1A43F0010318475A
:10030000F4BA010014BB01000A444FF0000C10F8CD
:10031000013B13F0070408BF10F8014B1D1108BF83
:1003200010F8015B641E05D010F8016B641E01F823
:10033000016BF9D113F0080F1EBF10F8014BAD1C73
:100340000C1B09D16D1E58BF01F801CBFAD505E091
:1003500014F8016B01F8016B6D1EF9D59142D6D3EB
:10036000704700000023002400250026103A28BF13
:1003700078C1FBD8520728BF30C148BF0B60704717
:100380001FB51AF0BBFA9DE8030000F08DFF1FBDFA
:1003900010B510BD00F0F4FF1146FFF7F1FF16F0A5
:1003A00043FF01F012F803B4FFF7F2FF03BC01F0C2
:1003B00049F800002C4B19680868B0E8F04F80F34A
:1003C0000988BFF36F8F4FF0000080F311887047EA
:1003D0000000000008480068006880F308884FF0BB
:1003E000000080F3148862B661B6BFF34F8FBFF38D
:1003F0006F8F00DF00BF00BF08ED00E0DFF80C00EA
:10040000016841F470010160704700BF88ED00E0B1
:10041000EFF30980BFF36F8F134B1A681EF0100FB4
:1004200008BF20ED108A20E9F04F106009B44FF0AA
:10043000500080F31188BFF34F8FBFF36F8F19F017
:10044000B7F84FF0000080F3118809BC19680868FC
:10045000B0E8F04F1EF0100F08BFB0EC108A80F328
:100460000988BFF36F8F7047AC000024EFF305805D
:10047000704700000A4880470A4880470A480047FA
:10048000FEE7FEE7FEE7FEE7FEE7FEE7FEE7FEE744
:10049000FEE7FEE705480649064A074B704700009D
:1004A000DD270008B5F70008CD020008480F012439
:1004B0004815012448110124481101249FED1A1AFE
:1004C000F5EE000A40EE010ABDEEE00AF5EEC00AC4
:1004D00010EE100AF1EE10FA38BF401E00EE100ABE
:1004E0001349F7EE001AB8EEC00A30EEC00ADFED8D
:1004F0000F0A20EE200AFCEEC00A10EE900AC0F3AC
:10050000080000EE900A01EB8000F8EE600A90ED22
:10051000011A70EE600A90ED000A71EEE01A21EE09
:10052000800A00EE810A704783F9223E00000044F1
:1005300088B40108DFED190AB5EEC00A60EE200AA2
:10054000BDEEE01A11EE100AF1EE10FA38BF401EAF
:1005500000EE100A1349F7EE001AB8EEC00A30EEAA
:10056000C00ADFED0F0A60EE200ABCEEE00A10EED2
:10057000100AC0F3080000EE100A01EB8000B8EE8C
:10058000400A90ED011A70EEC00A90ED000A71EE7B
:10059000E01A21EE800A00EE810A704783F9223EBC
:1005A0000000004488B4010870B405880E884468CF
:1005B000D1F804C05368B54208D1408849888842C0
:1005C00001BF11888D425188884203D070BC6FF002
:1005D0000200704705FB00F1880827D094ED001A4F
:1005E000DCED000A94ED010ADCED011A31EE201A6F
:1005F000D4ED020A70EE211A9CED020A83ED001A76
:10060000C3ED011A94ED031ADCED031A30EE800AF3
:10061000401E71EE210A83ED020A04F11004C3EDBD
:10062000030A03F110030CF1100CD7D111F00300F1
:1006300030D0B0F1004F30D200282BDD211F1B1F1E
:10064000ACF1040210F0010F0AD091ED010AD2EDD5
:10065000010A091D121D30EE200A83ED010A1B1D3F
:10066000400817D091ED010AD2ED010A401E30EE8C
:10067000200A83ED010A91ED020AD2ED020A01F18E
:10068000080102F1080230EE200A83ED020A03F1AC
:100690000803E7D170BC00207047B4EC010A401E8B
:1006A000FCEC010A30EE200AA3EC010AF5D1F1E7D7
:1006B00001804280436070472DE9F34F84B0049875
:1006C00040680090486801900498B0F800E04588C0
:1006D000DFEDFE0A00200290B0EE600AAE4506D1C2
:1006E00008884988884204BF7146864504D06FF067
:1006F000020006B0BDE8F08F01985FEA010C18BF58
:10070000B7EE001A3DD000BFBEEB0C0117D0B1F11F
:10071000004F80F01F82002911DD021F11F0010F30
:100720001CBFC2ED010A121D4B1006D0C2ED010A1A
:10073000C2ED020A08325B1EF8D100EB8100BCF169
:100740000102A0EC011A19D0B2F1004F80F008822A
:10075000002A13DD031F12F0010F1CBFC3ED010AB5
:100760001B1D511008D000BFC3ED010AC3ED020AE2
:10077000491E03F10803F7D100EB8200BCF1010C24
:10078000C2D14FF000080395002D14BFB0EE602ACF
:10079000002000F0BF8100BF009908FB05F001EBCD
:1007A000800B0199DBED002A01EB80000346F0EE9F
:1007B000421AC64552D9AEEB0802ABEB850112F0E6
:1007C000010F17D001EB850191ED000AB5EEC00ACB
:1007D000F1EE10FA07DDB4EEE10AF1EE10FA09DDF0
:1007E000F0EE401A06E0B1EE400AF4EEC01AF1EE67
:1007F00010FAF5D3521031D001EB850C9CED000AB4
:10080000B5EEC00AF1EE10FA05DDB4EEE10AF1EE44
:1008100010FA09DD06E0B1EE400AF4EEC01AF1EE7E
:1008200010FA01D2F0EE401A01EBC50191ED000A79
:10083000B5EEC00AF1EE10FA05DDB4EEE10AF1EE14
:1008400010FA09DD06E0B1EE400AF4EEC01AF1EE4E
:1008500010FA01D2F0EE401A521ECDD1F5EEC01AB8
:10086000F1EE10FA00F07381F5EEC02A0126F1EEE8
:1008700010FA0099D4BFB1EE620AB0EE620AB4EE8B
:10088000610AF1EE10FA1CBFAEEB0802B2F1010CE6
:1008900047D005FB08F201EB820292ED001A00BF7F
:1008A000B0EE410A05FB06F4B5EEC00A00EB840485
:1008B000F1EE10FACCBFF0EE400AF1EE400AF4EE91
:1008C000610AF1EE10FA28D1B5EB080C11D0BCF199
:1008D000004F7DD2BCF1000F0BDD00BF92ED000A8E
:1008E000D1ED000ABCF1010CE2EC010AA1EC010A15
:1008F000F4D129000ED0B1F1004F6AD2002909DDF0
:1009000094ED000AD0ED000A491EE4EC010AA0ECC7
:10091000010AF5D1012002900BE0761CBCF1010C1C
:10092000BED10298012804D0F5EEC02AF1EE10FAEB
:100930007ED09BED000AB5EB08009A465946064664
:1009400022D0B0F1004F74D200281DDD091F10F035
:10095000010F06D0F0EE400A80EEA01A81ED011AD8
:10096000091D401010D000BFD1ED010A401E80EEDD
:10097000801A81ED011A91ED021AC1EE000AC1ED53
:10098000020A01F10801EFD1280026D0B0F1004F92
:100990007ED2002821DDAAF1040110F0010F06D05B
:1009A000D1ED010A80EE801A81ED011A091D401077
:1009B00013D000BFD1ED010A401E80EE801A81EDF8
:1009C000011AD1ED020A80EE801A81ED021A01E0CF
:1009D000CBE0D6E001F10801ECD1DDE900124FF0E7
:1009E00000095FEA0E0773D0C14504BF01EB860121
:1009F00002EB850274D091ED000ADC4650463300CC
:100A000035D01C46B6F1004F7ED2002C2FDD0B1FD7
:100A1000ABF1040C16F0010F0FD0F0EE400ADCED44
:100A2000011AB0EE601A00EEE11A83ED011A01E03E
:100A30008DE0B1E01B1D0CF1040C741015D000BF4B
:100A4000D3ED010A9CED011A40EE410AC3ED010A03
:100A5000D3ED020A9CED021A0CF1080C40EE410A9B
:100A6000C3ED020A0833641EEAD101EB86012B00B4
:100A700036D0B3F1004F72D2002B31DDA2F1040C5D
:100A8000AAF1040013F0010F0CD0DCED010A00E024
:100A90008BE090ED011A001D40EE410ACCED010AF9
:100AA0000CF1040C5C1019D0DCED010A90ED011A78
:100AB00040EE410ACCED010ADCED020A90ED021A8B
:100AC000083040EE410ACCED020A03E000000000CD
:100AD0000DE005E0641E0CF1080CE5D102EB830289
:100AE00001EB88017F1E09F101097FF47DAF0098B9
:100AF00008F10108001D00900398401E03907FF448
:100B00004BAE0299012900E058E004BF06B0BDE8F1
:100B1000F08F00BFB5EEC00AF1EE10FA7FF4E9AD38
:100B200004990EFB05F3002B4A684FF000010BD926
:100B300002EB810C9CED000AB5EEC00AF1EE10FA52
:100B400002D1491C8B42F3D88B427FF4D2AD6FF0B7
:100B50000400CEE5E0EC010A491EFBD1EFE538E0E8
:100B6000E0EC010A521EFBD108E692ED000AD1ED3D
:100B7000000ABCF1010CE2EC010AA1EC010AF4D17B
:100B8000B7E694ED000AD0ED000A491EE4EC010A34
:100B9000A0EC010AF5D1BDE6D1ED000A401E80EEC1
:100BA000801AA1EC011AF7D1EEE6D3ED000A401E3F
:100BB00080EE801AA3EC011AF7D10EE7BCEC011A03
:100BC000D1ED000A5B1E40EE410AE1EC010AF5D1CD
:100BD0004DE7B0EC011AD2ED000A5B1E40EE410A6F
:100BE000E2EC010AF5D17BE72DE9F04F82B04668CF
:100BF00053680193058847884B8800200090088837
:100C0000874201BFB2F800C06545528893421EBFBB
:100C10006FF0020002B0BDE8F08F9FED412A4FEA6D
:100C2000970EC7F3400B00BFDDE9000202EB800A1C
:100C30004A6898464FF00009B0EE420AB4465FEAAF
:100C40000E0025D092ED001ADCED001A02EB8302B3
:100C5000DCED010A01EE810A92ED001A02EB83023B
:100C6000401ED2ED001A02EB830200EE810A9CEDD9
:100C7000021ADCED030A00040CF1100C000C01EE6A
:100C8000210A92ED001A02EB830200EE810AD9D10B
:100C900017F0030026D0ACF10404A2EB830210F09D
:100CA000010F08D002EB8302D4ED010A92ED001A85
:100CB000241D00EE810A5FEA0B0013D002EB830CC7
:100CC000D4ED010A9CED001A02EBC302401E00EEB7
:100CD000810AD4ED020A92ED001A04F1080400EE34
:100CE000810AEBD109F10100AAEC010A1FFA80F98F
:100CF000486800EB8902A8F101001FFA80F8B8F1FA
:100D0000000F99D1009806EB8706184480B2009036
:100D1000681E05042D0C87D102B00020BDE8F08FBD
:100D20000000000070B405880E884468D1F804C043
:100D30005368B54208D140884988884201BF11886C
:100D40008D425188884203D070BC6FF0020070471A
:100D500005FB00F1880827D094ED001ADCED000AAD
:100D600094ED010ADCED011A31EE601AD4ED020AAD
:100D700070EE611A9CED020A83ED001AC3ED011AB0
:100D800094ED031ADCED031A30EEC00A401E71EE3A
:100D9000610A83ED020A04F11004C3ED030A03F1B2
:100DA00010030CF1100CD7D111F0030030D0B0F1CA
:100DB000004F30D200282BDD211F1B1FACF1040295
:100DC00010F0010F0AD091ED010AD2ED010A091DC0
:100DD000121D30EE600A83ED010A1B1D400817D07A
:100DE00091ED010AD2ED010A401E30EE600A83ED5A
:100DF000010A91ED020AD2ED020A01F1080102F1A5
:100E0000080230EE600A83ED020A03F10803E7D11D
:100E100070BC00207047B4EC010A401EFCEC010AD3
:100E200030EE600AA3EC010AF5D1F1E72DE9F04FAD
:100E300002884768B0F802804888D1F8049082B0F0
:100E40004FF0000A1646824207BF098888456FF0B6
:100E5000020002B018BFBDE8F08F4FEA980B02EB1A
:100E600042000190C8F34000CDF8000009EB8A0170
:100E7000BBF1000F33D0019801EB820C01EB800431
:100E80003B46E64601EBC2054FEA0B0093ED000A34
:100E9000401E81ED000A93ED010A01EB02118CED79
:100EA000000A93ED020A0CEB021C85ED000A93ED9B
:100EB000030A05EB021584ED000A04EB021403F1AA
:100EC0001003E3D10EEB820000EB820000EB820105
:100ED000ABF10100504307EB0B1701EB001118F0C9
:100EE000030C21D03B1FA1EB82011CF0010F06D0A7
:100EF00093ED010A01EB82011B1D81ED000A0098B0
:100F000080B100BF93ED010A01EB820401EBC20145
:100F100084ED000A93ED020A401E81ED000A03F100
:100F20000803EFD107EB8C070AF101001FFA80FAE2
:100F3000701E0604360C99D102B00020BDE8F08F77
:100F400070B5064600F094F9056806F10B0020F034
:100F50000704B4429CBF002070BD2B466A68BAB13A
:100F60001068A04210D304F1080188423CBF5068C9
:100F7000586007D35168101941601168091B01605E
:100F800058601460101D70BD13465268002AE7D1E6
:100F90002146284600F074F90028DED170BD70B5F6
:100FA0000446051F00F064F90068002C14BF446873
:100FB00070BD002C18BFAC423CBF20466468F8D31B
:100FC00001680A18AA4218BF456003D12A6805467D
:100FD0001144016028684119A1421CBF6C6070BDBA
:100FE0006168696021680844286070BD53EA020C9A
:100FF00000F069802DE9F04B4FF00006002B1FBF79
:10100000B3FA83F503FA05F424FA05F65E4012BF3D
:101010001643B2FA82F502FA05F4C5F120051EBFA7
:1010200022FA05FC44EA0C04203556EA044C4FEA47
:10103000144418BF641C4FF000084FF000099042A0
:1010400071EB030C39D3002919BFB1FA81F701FA0A
:1010500007F6B0FA80F700FA07F6C7F120071EBFBF
:1010600020FA07FC46EA0C062037B6FBF4FCA7EB97
:101070000507103F07F01F0BCBF120060CFA0BFB06
:101080002CFA06F644BFB3460026202FA4BF5E46C6
:101090004FF0000B5BEA060C08BF4FF0010B19EB99
:1010A0000B09ABFB027C48EB0608C01B06FB02CC1D
:1010B0000BFB03CC71EB0C01C1E70B46024641462A
:1010C0004846BDE8F08B13B54FF000004FF000012B
:1010D000AFF30080BDE81C407047032A40F2308027
:1010E00010F0030C00F0158011F8013BBCF1020F69
:1010F000624498BF11F801CB00F8013B38BF11F8EA
:10110000013BA2F1040298BF00F801CB38BF00F800
:10111000013B11F0030300F02580083AC0F008807D
:1011200051F8043B083A51F804CBA0E80810F5E761
:10113000121D5CBF51F8043B40F8043BAFF3008044
:10114000D20724BF11F8013B11F801CB48BF11F8B9
:10115000012B24BF00F8013B00F801CB48BF00F889
:10116000012B704710B5203AC0F00B80B1E8185041
:10117000203AA0E81850B1E81850A0E81850BFF481
:10118000F5AF5FEA027C24BFB1E81850A0E8185020
:1011900044BF18C918C0BDE810405FEA827C24BF74
:1011A00051F8043B40F8043B08BF7047D20728BF02
:1011B00031F8023B48BF11F8012B28BF20F8023B51
:1011C00048BF00F8012B704702F0FF0343EA0322F7
:1011D00042EA024200F002B84FF000020429C0F0D7
:1011E000128010F0030C00F01B80CCF1040CBCF159
:1011F000020F18BF00F8012BA8BF20F8022BA1EBAB
:101200000C0100F00DB85FEAC17C24BF00F8012B8F
:1012100000F8012B48BF00F8012B70474FF0000287
:1012200000B5134694469646203922BFA0E80C50DC
:10123000A0E80C50B1F12001BFF4F7AF090728BFB7
:10124000A0E80C5048BF0CC05DF804EB890028BF33
:1012500040F8042B08BF704748BF20F8022B11F05C
:10126000804F18BF00F8012B7047704770477047D8
:1012700000487047F00E0124704770477047704770
:1012800038B504460A4600206946AFF300800028BE
:1012900008BF38BD02460099204600F04FF80120F3
:1012A00038BD012000F064B8F8B5AFF30080054602
:1012B00000200C46102000BF0646A819A0420DD9F8
:1012C000324669460020AFF30080070008BF00F0F7
:1012D0004FF80098A04218BF0546C419FFF7C8FF91
:1012E00005600746F01D20F007004619284600F06B
:1012F0000AF8B44208BFF8BDA21B31463868BDE801
:10130000F84000F01BB800210160C0E901107047EF
:101310001020704710B500F00DF8006810BD10B532
:10132000044600F007F8046010BD00000048704754
:10133000E80E012400487047E80E01240346406887
:101340008C46002818BF88423CBF03464068F8D34B
:1013500018681844884207D00CF1030020F00700F9
:10136000001D411A521A0146081D0A60FFF717BEF8
:1013700010B500F03FF8BDE8104000F02FB87047FE
:101380007546FFF7D3FFAE4605006946534620F089
:101390000700854618B020B5FFF77CF8BDE820406F
:1013A0004FF000064FF000074FF000084FF0000B21
:1013B00021F00701AC46ACE8C009ACE8C009ACE8D4
:1013C000C009ACE8C0098D46704710B50446AFF3BC
:1013D00000802046BDE81040FEF7E5BF002801D0A0
:1013E00000F030B8704710B500F064F8BDE8104068
:1013F000FFF7F4BF10B5012805D0002103A000F0CD
:101400003FF8012010BD09A1F8E7000053494752F9
:10141000544D454D3A204F7574206F6620686561C4
:1014200070206D656D6F7279000000003A2048658C
:101430006170206D656D6F727920636F7272757067
:101440007465640001491820ABBEFEE72600020067
:101450001FB584B000200A9C06AB04AA02A9009420
:10146000AFF3008018B1DDE9020108B010BD0348F8
:101470002040FFF7B8FF00200146F6E70000207C7F
:1014800070B505460C460A2000E06D1C00F068F8B7
:1014900035B128780028F8D102E0641C00F060F82B
:1014A00014B120780028F8D1BDE870400A2000F07F
:1014B00057B8000010B5022803D0410103D50DA193
:1014C00012E0002010BD010101D50FA10CE0C10008
:1014D00001D511A108E0810001D512A104E040006E
:1014E00001D513A100E0002115A0FFF7C9FF0120DD
:1014F00010BD0000496E76616C6964204F706572A2
:101500006174696F6E000000446976696465204209
:1015100079205A65726F00004F766572666C6F773E
:1015200000000000556E646572666C6F7700000005
:10153000496E657861637420526573756C74000040
:101540005349474650453A2041726974686D657445
:10155000696320657863657074696F6E3A20000076
:1015600008B569468DF800000320ABBE08BD000039
:1015700010B501221146024804F0E6FD10BD00003E
:101580000008025810B500220121024804F0DCFDD9
:1015900010BD0000000802587047000010B501227D
:1015A0000821024804F0D0FD10BD000000080258D8
:1015B00010B500220821024804F0C6FD10BD00004D
:1015C00000080258704710B5044603E04FF47A70E3
:1015D00000F006F8201EA4F101018CB2F6D110BD76
:1015E00070B5034600BF00BF0020002200BF4FF0CF
:1015F000E0267569C3EB031674014FF0E026B1696C
:1016000010E04FF0E026B06988420BD0884202D249
:101610000E1A324402E02E1A0E4432440146A2420F
:1016200000D300E0EDE700BF70BD10B50024FFF768
:10163000B3FFFFF7C7FF12F0CFFE10B144F08004F4
:1016400002E012F02BFE044313F0CAF810B144F08C
:10165000400402E013F046F80443204610BD0000A9
:101660002DE9FC4105460E461746002000900190EA
:10167000FFF788FF922000F0EFF80622694612205B
:1016800000F0CAF8FFF774FF9DF80100000200B2F5
:101690009DF8001040EA010400EE104AB8EEC00ABE
:1016A0005948D0ED000A20EE200A86ED000A9DF888
:1016B0000300000200B29DF8021040EA010400EEAF
:1016C000104AB8EEC00A5048D0ED000A20EE200AB9
:1016D00086ED010A9DF80500000200B29DF8041095
:1016E00040EA010400EE104AB8EEC00A4648D0EDC8
:1016F000000A20EE200A86ED020AFFF759FF0822B1
:101700006946002000F088F8FFF748FF9DF80000C8
:101710000F283CD19DF80300000200B29DF8021092
:1017200040EA010400EE104AB8EEC00A3748D0ED96
:10173000000A20EE200A85ED000A9DF8050000024F
:1017400000B29DF8041040EA010400EE104AB8EE21
:10175000C00A2E48D0ED000A20EE200A85ED010ACD
:101760009DF80700000200B29DF8061040EA01044F
:1017700000EE104AB8EEC00A2448D0ED000A20EE70
:10178000200A85ED020A00202149087014E0204853
:101790000078401C1E490870084600780A280BDDB6
:1017A0009FED1C0A85ED000A9FED1A0A85ED010ADE
:1017B0009FED180A85ED020AFFF7E4FEA22000F073
:1017C0004BF802226946222000F026F8FFF7D0FEEF
:1017D0009DF80000C0009DF8011040EA6114B4F5C6
:1017E000806F02DBA4F5006004B200EE104AF8EE50
:1017F000C00AB4EE001AB3EE070A00EE810A87EDC4
:10180000000ABDE8FC81000090020024940200243C
:10181000BC0200240000000070B506460C461546C8
:1018200046F0800000F018F806E0552000F014F8AB
:101830002070641C681EC5B2002DF6D170BD70B555
:1018400004460D4644F0800000F006F8552000F0F4
:1018500003F8287070BD000001B582B04FF47A70B3
:10186000012301AA02A90090024808F0E5F89DF8BA
:1018700004000EBDA44B002470B505460C46284656
:10188000FFF7EAFF2046FFF7E7FF70BDD2ED020A3F
:1018900092ED021AB6EE000A00EEC10AD2ED030A7A
:1018A00092ED031A00EEC10AD0ED000A20EE200AE4
:1018B000D2ED010A92ED021A60EE810A92ED001A51
:1018C000D2ED031A41EE610A90ED011A00EE810A91
:1018D000D2ED010A92ED031A60EE810A92ED001A30
:1018E000D2ED021A41EE210A90ED021A00EE810AB1
:1018F000F0EE000A20EE200A81ED000A92ED010AC6
:10190000D2ED020A20EE200AD2ED000A92ED031A6F
:1019100000EE810AD0ED000A60EE200A92ED011A75
:10192000D2ED011AB6EE000A01EE610AD2ED031AF9
:1019300092ED032AB0EE401A01EEC21AD0ED011A60
:10194000B0EE600A01EE210AD2ED020A92ED031A0E
:1019500060EE810A92ED001AD2ED011A41EE610AA1
:1019600090ED021A00EE810AF0EE000A20EE200A45
:1019700081ED010A92ED010AD2ED030A20EE200A60
:10198000D2ED000A92ED021A00EEC10AD0ED000A73
:1019900020EE200AD2ED020A92ED031A60EE810ACF
:1019A00092ED001AD2ED011A41EE210A90ED011AD2
:1019B00000EE810A92ED011AD2ED011AF6EE000A4C
:1019C00041EE610A92ED021AD2ED021A41EE610A6D
:1019D00090ED021A00EE810AF0EE000A20EE200AD5
:1019E00081ED020A704700BFFEE700002DE9F041DB
:1019F00004460D4616461F464FF400701149086014
:101A00000020486088600820C860200A0E490870DD
:101A10004C70280A8870CD70300A08714E71380AEF
:101A20008871CF714FF0004006490861002048617D
:101A30008861C8610862044A044803F0A5F880463A
:101A4000BDE8F081880901242C060024644A0024A2
:101A500070B504460D464FF400701149086000202F
:101A6000486088600820C86000200E4908704870EF
:101A7000200A8870CC70280A08714D710020887186
:101A8000C8714FF000400649086100204861886134
:101A9000C8610862034A044803F076F8064670BD40
:101AA0006409012424060024C44900242DE9F041DE
:101AB00004460D4640F2FF2022490860002048609D
:101AC00088600820C86000201F4908704870280AF4
:101AD0008870CD700020087148718871C8714FF00E
:101AE000004018490861002048618861C8610862A7
:101AF000154A164803F048F8074640F2FF201149FE
:101B000008600020486088600820C860200A0E49EC
:101B100008704C7000208870C87008714871887116
:101B2000C8714FF000400749086100204861886192
:101B3000C8610862044A064803F026F80646BDE874
:101B4000F08100006409012424060024C449002413
:101B5000644A002470B5044640F2FF101049086042
:101B60000020486088600820C860200A0D4908707D
:101B7000200A487000208870C87008714871887108
:101B8000C8714FF000400649086100204861886133
:101B9000C8610862034A044802F0F6FF054670BDBA
:101BA0006409012424060024C44900240346042BAC
:101BB00015D007DC7BB1012B0ED0022B0DD0032BEF
:101BC00012D10BE0202B0BD0212B0AD0222B09D0D5
:101BD000232B09D107E008E007E006E005E004E078
:101BE00003E002E001E000E000BF00BF002070471A
:101BF0000020704710B50022044905480FF015FA7F
:101C0000044903480FF002FA002010BDFC600024D4
:101C100020540024FC58002470B504460D460649A3
:101C2000204617F021FA214604480FF0EFF9034847
:101C30000FF0B8F9002070BD240A012420540024BC
:101C400010B503460C460021084610BD2DE9F041B1
:101C500004460D4600260A48D0F8BC72D7F8140294
:101C600010B10120BDE8F0812A46214604480FF05A
:101C7000DCF903480FF08CFA06463046F2E7000024
:101C8000205400240188B0F90820891A00EE101AA7
:101C9000B8EEC00B9FED181BB4EEC10BF1EE10FABD
:101CA00003DDC168491EC16011E00188B0F9082058
:101CB000891A00EE101AB8EEC00B9FED111BB4EE9E
:101CC000C10BF1EE10FA02D2C168491CC160C168B3
:101CD000C1EB4131B0F90820114400EE101AB8EE02
:101CE000C00ADFED090A20EE200AF3EE030A80EEB7
:101CF000201A80ED041A70470000000000FFAF407A
:101D00000000000000FFAFC0A005343D70B50546DF
:101D10000E469FED0E0AF0EE404A002410E004EB60
:101D2000041105EBC1000122002115F027FDB7EEDB
:101D3000E41A30EE010BB7EEC00BF0EE404A641C23
:101D4000B442ECDBB0EE640A70BD0000000000009D
:101D500070B505460E469FED0E0AF0EE404A00248F
:101D600010E004EB041105EBC1000122002115F085
:101D700005FDB7EEE41A30EE010BB7EEC00BF0EE46
:101D8000404A641CB442ECDBB0EE640A70BD000053
:101D90000000000010B500220CE0C2EBC203074CAB
:101DA00004EBC30102EB0213054C04EBC30015F076
:101DB000DFFA521C042AF0DB10BD0000600600248C
:101DC000A80A012470B52DED048BB0EE407A0446CC
:101DD0000E46154631461148FFF798FFF0EE407A5F
:101DE00029460F48FFF7B4FFB0EE408A37EE880A65
:101DF000C7EE800AF0EE608A37EE880AC8EE000A65
:101E0000B0EE609A27EE280A84ED000A27EE090A50
:101E100084ED010ABDEC048B70BD0000A80A01240A
:101E2000C80C012470B52DED028BB0EE408A04463B
:101E30000D4629462046B0EE480A0DF0A1FFBDEC44
:101E4000028B70BD0146074800880844054A10808F
:101E50001088C21700EBD2525212A0EB4222014B63
:101E60001A80704716060024184800881849098807
:101E7000884201D10020704715480088401C134952
:101E80000988884208D01248008840F2FF11884231
:101E900005D10E48008810B94FF40070EBE70B48ED
:101EA00000880B490988884206DC094800880749F0
:101EB0000988401A80B2DEE704480088C0F5007047
:101EC00003490988084480B2D5E7000016060024BB
:101ED0001806002400B5FFF7C7FFC0F5007080B2F8
:101EE00000BD000001460846CB1701EBD3535B123F
:101EF000A1EB43239AB20148805C7047700601242D
:101F000070B506460C46FFF7E5FFA04201DA002057
:101F100070BD164800882044B0F5007F0DDA1449E2
:101F2000124A1288881822463146FFF7D6F80F4821
:101F3000008820440D49088015E00C480088C0F551
:101F4000007085B20A49094A128888182A46314623
:101F5000FFF7C3F8621B71190548FFF7BEF8601B55
:101F60000249088000BFE0B2D2E700001806002452
:101F70007006012410B5024801F0A8FB10BD000056
:101F8000B44C002410B5024801F0A0FB10BD0000C5
:101F90002C4D002410B5024801F098FB10BD000044
:101FA000F451002410B5024801F090FB10BD000070
:101FB0008C50002410B5024801F088FB10BD0000D1
:101FC0006C52002410B5024801F080FB10BD0000E7
:101FD0000451002410B5024801F078FB10BD000048
:101FE0007C51002410B5024801F070FB10BD0000C8
:101FF000E452002410B5024801F068FB10BD000057
:102000005C5300240146374A0868904249D0354A5B
:1020100018320868904244D0324A30320868904200
:102020003FD0304A4832086890423AD02D4A603258
:102030000868904235D02B4A78320868904230D0F8
:10204000284A9032086890422BD0264AA832086865
:10205000904226D0244A0868904222D0224A183260
:10206000086890421DD0204A30320868904218D04B
:102070001D4A48320868904213D01B4A60320868F3
:1020800090420ED0184A78320868904209D0164A19
:1020900090320868904204D0134AA83208689042EF
:1020A00001D1012000E00020B0B10A78103A1823D5
:1020B000B2FBF3F000F007020C4B9A5CCA650328F0
:1020C00005D90A686FF30902121D8A6503E00A68E0
:1020D0006FF309028A6503E0086820F0FF00886555
:1020E000886D70471000024010040240ACAD01083A
:1020F00010B502682B4C0368A34222D0294C14343B
:102100000368A3421DD0274C28340368A34218D08B
:10211000244C3C340368A34213D0224C503403684F
:10212000A3420ED01F4C64340368A34209D01D4C57
:1021300078340368A34204D01A4C8C340368A34259
:1021400001D1012300E000238BB10378083B142464
:10215000B3FBF4F1144B03EB81030366124B8033A2
:10216000436601F01F040123A340836618E003784F
:10217000103B1824B3FBF4F10C4B9A4204D80B4BE0
:10218000A83B9A4200D30831094B03EB8103036655
:10219000074B8033436601F01F040123A34083668D
:1021A00010BD00000854025800580258B8040240FC
:1021B000000802400179A9B3082940D8204B0268E1
:1021C0009A4222D01E4B143302689A421DD01C4BF7
:1021D000283302689A4218D0194B3C3302689A425D
:1021E00013D0174B503302689A420ED0144B64330D
:1021F00002689A4209D0124B783302689A4204D09E
:102200000F4B8C3302689A4201D1012200E0002278
:102210004AB14A1E0B4B03EB8202C266094A4032A6
:10222000026708E00BE04A1E074B03EB8202C2661E
:10223000054A403202674A1E0123934043677047B4
:102240000854025800590258000902400146002073
:102250008A69D2B98A6A32B1012A0DD0022A03D022
:10226000032A10D10EE000BFCA6A02F08072B2F1F8
:10227000807F00D1012007E0CA6AB2F1C07F00D19F
:10228000012001E000E000BF36E08A69B2F5005F9E
:102290001BD18A6A32B1012A07D0022A03D0032A4D
:1022A00011D10AE000BF01200EE0CA6A02F080727C
:1022B000B2F1807F00D1012006E0CA6AB2F1C07F8E
:1022C00000D1012000E000BF16E08A6A32B1012A85
:1022D00005D0022A04D0032A0CD103E000BF00BFBE
:1022E000012008E0CA6A02F08072B2F1807F00D15A
:1022F000012000E000BF00BF70470000F0B5856D11
:10230000846D984F0668BE4270D0964F18370668A5
:10231000BE426BD0934F30370668BE4266D0914FB5
:1023200048370668BE4261D08E4F60370668BE42AD
:102330005CD08C4F78370668BE4257D0894F9037B3
:102340000668BE4252D0874FA8370668BE424DD0BD
:10235000854F0668BE4249D0834F18370668BE4293
:1023600044D0814F30370668BE423FD07E4F483759
:102370000668BE423AD07C4F60370668BE4235D010
:10238000794F78370668BE4230D0774F903706686D
:10239000BE422BD0744FA8370668BE4226D0734F7A
:1023A0000668BE4222D0714F14370668BE421DD067
:1023B0006E4F28370668BE4218D06C4F3C3706680F
:1023C000BE4213D0694F50370668BE420ED0674FE9
:1023D00064370668BE4209D0644F78370668BE424B
:1023E00004D0624F8C370668BE4201D1012600E05E
:1023F00000263EB1D0E919767E60C66E16B1D0E9EE
:102400001C767E60574F0668BE4249D0554F18373C
:102410000668BE4244D0534F30370668BE423FD0B4
:10242000504F48370668BE423AD04E4F6037066874
:10243000BE4235D04B4F78370668BE4230D0494F48
:1024400090370668BE422BD0464FA8370668BE427A
:1024500026D0454F0668BE4222D0434F1837066843
:10246000BE421DD0404F30370668BE4218D03E4FA6
:1024700048370668BE4213D03B4F60370668BE42FD
:102480000ED0394F78370668BE4209D0364F9037A4
:102490000668BE4204D0344FA8370668BE4201D158
:1024A000012600E00026DEB190F85C6006F01F0710
:1024B0003F26BE40AE600668366826F48026076870
:1024C0003E60066873608668402E04D10668B2607C
:1024D0000668F16044E00668B1600668F2603FE0BB
:1024E000224F0668BE4222D0204F14370668BE42F3
:1024F0001DD01E4F28370668BE4218D01B4F3C37F0
:102500000668BE4213D0194F50370668BE420ED03F
:10251000164F64370668BE4209D0144F78370668F4
:10252000BE4204D0114F8C370668BE4201D101264D
:1025300000E00026A6B190F85C6006F01F070126B7
:10254000BE406660066873608668402E04D10668E7
:10255000B2600668F16003E00668B1600668F26088
:10256000F0BD000010000240100402400854025860
:1025700008B50E480078B8B901200C4908700C481D
:10258000406800900B4900980968884204D20A48C4
:102590000068401C08490860054840680549086013
:1025A00000200249087000BF08BD0000700200242E
:1025B000001000E0600200245C02002410B52DED44
:1025C000028B82B004460E48406801902068019951
:1025D000081A00EE100AF8EE400A0A4890ED000AC8
:1025E000B8EE400A80EE801AB0EE418A0198206071
:1025F000FFF7BEFFB0EE480A02B0BDEC028B10BD83
:10260000001000E05002002410B504461348006892
:1026100040F0807011490860002011494860084668
:10262000006840F0010008600E4860430E490860F1
:10263000084600684FF47A71B0FBF1F00B4908606E
:10264000094800680749B0FBF1F00949086000201B
:1026500008490860FFF78CFF10BD0000FCED00E0AA
:10266000001000E040420F005002002454020024F9
:10267000580200245C0200247047D2ED020A92ED59
:10268000021AB6EE000A00EEC10AD2ED030A92ED7C
:10269000031A00EEC10AD0ED000A20EE200AD2EDA6
:1026A000010A92ED021A60EE810A92ED001AD2ED53
:1026B000031A41EE210A90ED011A00EE810AD2EDD3
:1026C000010A92ED031A60EE810A92ED001AD2ED32
:1026D000021A41EE610A90ED021A00EE810AF0EE54
:1026E000000A20EE200A81ED000A92ED010AD2EDE7
:1026F000020A20EE200AD2ED000A92ED031A00EE43
:10270000C10AD0ED000A60EE200A92ED011AD2ED66
:10271000011AB6EE000A01EE610AD2ED031A92ED3B
:10272000032AB0EE401A01EEC21AD0ED011AB0EE43
:10273000600A01EE210AD2ED020A92ED031A60EE60
:10274000810A92ED001AD2ED011A41EE210A90EDB4
:10275000021A00EE810AF0EE000A20EE200A81ED56
:10276000010A92ED010AD2ED030A20EE200AD2ED11
:10277000000A92ED021A00EE810AD0ED000A20EE66
:10278000200AD2ED020A92ED031A60EE810A92ED60
:10279000001AD2ED011A41EE610A90ED011A00EE25
:1027A000810A92ED011AD2ED011AF6EE000A41EE0D
:1027B000610A92ED021AD2ED021A41EE610A90ED21
:1027C000021A00EE810AF0EE000A20EE200A81EDE6
:1027D000020A704772B600BFFEE7000007480068B3
:1027E00040F002000549086000BF0448083800684E
:1027F00000F400500028F8D0704700000C48025840
:1028000010B5024802F0ACFB10BD0000C449002422
:1028100010B5024802F0A4FB10BD0000C44900241A
:1028200010B5024802F09CFB10BD0000644A002471
:1028300010B5024802F094FB10BD0000644A002469
:1028400010B5024802F08CFB10BD0000044B0024C0
:1028500010B5024802F084FB10BD0000044B0024B8
:1028600010B5034802F07CFB024802F079FB10BD72
:10287000C4490024644A002410B501464A6B086824
:10288000D0F884004FF6FC74A04340EA82000C6844
:10289000C4F884000868D0F8840020F47F04088F0E
:1028A00044EA00400C68C4F88400886B024408685D
:1028B000D0F888004FF6FC74A04340EA82000C6810
:1028C000C4F888000868D0F8880020F4FE04888FD7
:1028D00044EA00400C68C4F88800C86B02EB400270
:1028E0000868D0F8A0004FF6FC74A04340EA8200CC
:1028F0000C68C4F8A0000868D0F8A00020F4FE041A
:102900004020405A44EA00400C68C4F8A000D1E9D5
:10291000104004FB00220868D0F8B0004FF6FC74A9
:10292000A04340EA82000C68C4F8B0000868D0F800
:10293000B00020F4FE04B1F8480044EA00400C68FE
:10294000C4F8B000D1E9124004FB00220868D0F8B6
:10295000AC004FF6FC74A04340EA82000C68C4F857
:10296000AC00D1E9144004FB00220868D0F8F00064
:102970004FF6FC74A04340EA82000C68C4F8F000F3
:102980000868D0F8F00020F47C14B1F8580044EA4C
:1029900000400C68C4F8F000886D02EB4002086843
:1029A000D0F8C0004FF6FC74A04340EA82000C68E7
:1029B000C4F8C0000868D0F8C00020F47C14B1F856
:1029C0005C0044EA00400C68C4F8C0000868D0F815
:1029D000C00020F07C5491F8600044EA00600C686C
:1029E000C4F8C0002A4C486B04EB8000C866CC6E6B
:1029F000886B04EB80040C670C6FC86B04EBC0049D
:102A00004C67D1E9100460434C6F04EB80048C6781
:102A1000D1E9120460438C6F04EB8004CC67D1E9E8
:102A200014046043CC6F04EB80048020445044586D
:102A3000886D04EBC004842044508C6EC86D6043E4
:102A40008424645804EB8004882044508C6E086E03
:102A500060438824645804EB80049020445040581C
:102A60000C4CA04209D99831486840F020004860D9
:102A7000032001F89809012010BDCB6E02E0002070
:102A800018601B1D902040589842F8D80020F3E7AA
:102A900000AC0040FCD300402DE9F041054614464F
:102AA0001E46D1F804C0BCF1000F0AD1D1F810C005
:102AB000D1F808804CEA080CB1F800804CEA884351
:102AC0000BE0D1F810C04CF0804CD1F808804CEAF3
:102AD000080CD1F800804CEA080391F82080D1F866
:102AE0001CC04CEA086CD1F818804CEA080CD1F8EC
:102AF00014804CEA080CB1F80C804CEA0847D5F871
:102B000068C00CFB06FCD5F8848008EB8C021360CF
:102B1000121D1760121D002019E000F1030C14F8BB
:102B20000CC04FEA0C6800F1020C14F80CC048EA23
:102B30000C4800F1010C14F80CC048EA0C2C14F8F5
:102B400000804CEA080CC2F800C0121D001DDFF81E
:102B50001480D1F80CC018F80CC08445DDD8BDE84D
:102B6000F0810000B4AD01082DE9F04104460D46A6
:102B700016461F46A1B2012014F0B0FBA9B20220F4
:102B800014F0ACFBB1B2032014F0A8FBB9B20420DE
:102B900014F0A4FBBDE8F08170B50A480468001D7C
:102BA0000568001D0668344454B1082206492046D1
:102BB0000AF06CFB04220449103128460AF066FB37
:102BC00070BD000000E8F11F6A0000242DE9F0410B
:102BD000044603F0BFFA804614B90120BDE8F08135
:102BE00094F83500022808D08020606500BF0020DE
:102BF00084F8340000BF0120F0E7FE4920688842D5
:102C000049D0FC4918312068884244D0F949303114
:102C1000206888423FD0F7494831206888423AD03E
:102C2000F44960312068884235D0F2497831206813
:102C3000884230D0EF499031206888422BD0ED494E
:102C4000A8312068884226D0EB492068884222D0EB
:102C5000E9491831206888421DD0E74930312068A1
:102C6000884218D0E44948312068884213D0E249AC
:102C70006031206888420ED0DF4978312068884270
:102C800009D0DD4990312068884204D0DA49A83162
:102C90002068884201D1012000E0002068B120684E
:102CA000006820F01E00216808602068406920F05C
:102CB000800021684861256806E02068006820F0EF
:102CC0000E00216808602568CA492068884270D0D3
:102CD000C8491831206888426BD0C6493031206815
:102CE000884266D0C34948312068884261D0C149D2
:102CF0006031206888425CD0BE49783120688842C3
:102D000057D0BC4990312068884252D0B949A83187
:102D1000206888424DD0B8492068884249D0B649D9
:102D200018312068884244D0B34930312068884245
:102D30003FD0B1494831206888423AD0AE4960312D
:102D40002068884235D0AC4978312068884230D03C
:102D5000A9499031206888422BD0A749A831206822
:102D6000884226D0A5492068884222D0A349143140
:102D7000206888421DD0A14928312068884218D097
:102D80009E493C312068884213D09C4950312068CC
:102D900088420ED0994964312068884209D0974909
:102DA00078312068884204D094498C312068884268
:102DB00001D1012000E0002028B1206E006820F43D
:102DC0008070216E08608B492068884249D089490B
:102DD00018312068884244D08649303120688842C2
:102DE0003FD084494831206888423AD081496031D7
:102DF0002068884235D07F4978312068884230D0B9
:102E00007C499031206888422BD07A49A8312068CB
:102E1000884226D078492068884222D076491831E5
:102E2000206888421DD0744930312068884218D00B
:102E3000714948312068884213D06F496031206859
:102E400088420ED06C4978312068884209D06A499E
:102E500090312068884204D06749A83120688842B0
:102E600006D12068006820F001002168086005E0B4
:102E70002068006820F001002168086011E003F07C
:102E800069F9A0EB080005280BD920206065032014
:102E900084F8350000BF002084F8340000BF012012
:102EA0009CE6286800F001000028E8D1514920681C
:102EB000884249D04F4918312068884244D04D4952
:102EC0003031206888423FD04A49483120688842E2
:102ED0003AD0484960312068884235D04549783138
:102EE0002068884230D043499031206888422BD0F6
:102EF0004049A8312068884226D03F49206888424E
:102F000022D03D491831206888421DD03A493031DD
:102F10002068884218D0384948312068884213D048
:102F200035496031206888420ED0334978312068B5
:102F3000884209D0304990312068884204D02E4917
:102F4000A8312068884201D1012000E0002040B172
:102F5000A66D94F85C0000F01F013F208840B0602F
:102F600007E0A76D94F85C0000F01F010120884085
:102F7000786020492068884276D01E491831206840
:102F8000884271D01B493031206888426CD0194981
:102F900048312068884267D01649603120688842ED
:102FA00062D014497831206888425DD0114990314F
:102FB0002068884258D00F49A8312068884253D0F1
:102FC0000D49206888424FD00B491831206888424B
:102FD0004AD0094930312068884245D006494831F5
:102FE0002068884240D004496031206888423BD044
:102FF000014905E010000240100402400854025844
:103000007831206888422FD02549206888422BD00B
:10301000234918312068884226D0224920688842F6
:1030200022D020491431206888421DD01D49283102
:103030002068884218D01B493C312068884213D050
:1030400018495031206888420ED0164964312068F2
:10305000884209D0134978312068884204D0114948
:103060008C312068884201D1012000E0002068B145
:10307000D4E919104860E06E40B1E06E006820F4B9
:103080008070E16E0860D4E91C104860012084F86B
:10309000350000BF002084F8340000BF00BF9DE56C
:1030A000A00402400854025870B504460CB901202F
:1030B00070BD94F83500022803D08020606501209F
:1030C000F6E7DC492068884249D0DA49183120689F
:1030D000884244D0D7493031206888423FD0D54912
:1030E0004831206888423AD0D2496031206888420D
:1030F00035D0D04978312068884230D0CD499031E0
:10310000206888422BD0CB49A8312068884226D03D
:10311000C9492068884222D0C749183120688842AE
:103120001DD0C54930312068884218D0C249483185
:103130002068884213D0C0496031206888420ED090
:10314000BD4978312068884209D0BB499031206858
:10315000884204D0B849A8312068884201D10120B2
:1031600000E00020F0B3042084F83500B149206865
:1031700088424BD0AF4918312068884246D0AD49CB
:1031800030312068884241D0AA49483120688842BD
:103190003CD0A84960312068884237D0A5497831B1
:1031A0002068884232D0A3499031206888422DD0CF
:1031B000A049A8312068884228D09F4920688842C9
:1031C00024D09D491831206888421FD09A49303157
:1031D000206888421AD0984948312068884215D022
:1031E000954900E020E06031206888420ED0924985
:1031F00078312068884209D08F4990312068884210
:1032000004D08D49A8312068884206D12068006822
:1032100020F001002168086009E12068006820F0C2
:1032200001002168086002E12068006820F00E00BB
:10323000216808607F492068884249D07D4918315B
:103240002068884244D07B493031206888423FD092
:1032500078494831206888423AD076496031206800
:10326000884235D0734978312068884230D071491E
:103270009031206888422BD06E49A831206888425E
:1032800026D06D492068884222D06B4918312068C9
:1032900088421DD0684930312068884218D066497C
:1032A00048312068884213D06349603120688842E1
:1032B0000ED0614978312068884209D05E4990314A
:1032C0002068884204D05C49A8312068884206D131
:1032D0002068006820F001002168086005E020688F
:1032E000006820F001002168086052492068884287
:1032F00070D050491831206888426BD04D49303128
:103300002068884266D04B4948312068884261D0A5
:1033100048496031206888425CD04649783120684D
:10332000884257D0434990312068884252D0414961
:10333000A831206888424DD03F492068884249D052
:103340003D4918312068884244D03B4930312068DB
:1033500088423FD038494831206888423AD03649BF
:1033600060312068884235D03349783120688842FE
:1033700030D031499031206888422BD02E49A83175
:103380002068884226D02D492068884222D02B49C7
:103390001431206888421DD028492831206888428D
:1033A00018D026493C312068884213D02349503137
:1033B000206888420ED0214964312068884209D0B3
:1033C0001E4978312068884204D01C498C3120681D
:1033D000884201D1012000E00020D8B1206E0068B1
:1033E00020F48070216E0860A56D94F85C0000F0F8
:1033F0001F01012088406860D4E919104860E06E20
:1034000040B1E06E006820F48070E16E0860D4E99D
:103410001C104860012084F8350000BF002084F8AB
:10342000340000BF206D10B12046216D8847002078
:103430003EE600001000024010040240085402580A
:1034400070B504460CB9012070BD9B4920688842C4
:1034500049D0994918312068884244D09649303182
:10346000206888423FD094494831206888423AD049
:10347000914960312068884235D08F497831206881
:10348000884230D08C499031206888422BD08A49BC
:10349000A8312068884226D088492068884222D0F6
:1034A00086491831206888421DD08449303120680F
:1034B000884218D0814948312068884213D07F491A
:1034C0006031206888420ED07C497831206888427B
:1034D00009D07A4990312068884204D07749A831D0
:1034E0002068884206D12068006820F00100216829
:1034F000086005E02068006820F00100216808608D
:103500006D492068884249D06B491831206888424B
:1035100044D069493031206888423FD066494831FB
:10352000206888423AD0644960312068884235D0AA
:10353000614978312068884230D05F4990312068F5
:1035400088422BD05C49A8312068884226D05B494C
:103550002068884222D059491831206888421DD0FD
:10356000564930312068884218D054494831206883
:10357000884213D051496031206888420ED04F49AB
:1035800078312068884209D04C49903120688842BF
:1035900004D04A49A8312068884201D1012000E0C6
:1035A0000020C8B1002021680860216848602168B7
:1035B00088602168C860216808612120216848610D
:1035C0002046FEF71FFD064694F85C0000F01F0140
:1035D0003F208840B06043E039492068884222D0CB
:1035E00037491431206888421DD035492831206878
:1035F000884218D032493C312068884213D0304983
:103600005031206888420ED02D49643120688842AC
:1036100009D02B4978312068884204D028498C3160
:103620002068884201D1012000E00020B0B10020D4
:103630002168086021684860216888602168C86046
:10364000216808612046FEF7DDFC054694F85C0021
:1036500000F01F0101208840686001E00120F3E6CE
:103660002046FEF745FD206E28B10020216E08603F
:10367000D4E919104860606858B16068082808D813
:103680002046FEF797FD0020E16E0860D4E91C108B
:1036900048600020E06620676067E0632064606443
:1036A000A064E0642065606584F8350000BF84F89C
:1036B000340000BF00BFC7E6100002401004024003
:1036C000085402580146486D704700002DE9F84F34
:1036D000044600200090FE4800684FF41651B0FBED
:1036E000F1FAA66DD4F858803768D8F80090F949F7
:1036F0002068884249D0F74918312068884244D070
:10370000F4493031206888423FD0F249483120687E
:1037100088423AD0EF4960312068884235D0ED497F
:1037200078312068884230D0EA4990312068884258
:103730002BD0E849A8312068884226D0E649206885
:10374000884222D0E4491831206888421DD0E249DD
:1037500030312068884218D0DF49483120688842DB
:1037600013D0DD496031206888420ED0DA497831C3
:103770002068884209D0D84990312068884204D016
:10378000D549A8312068884201D1012000E00020FD
:1037900000287DD094F85C0000F01F0108208840CC
:1037A0003840002868D0CB492068884249D0C949B0
:1037B00018312068884244D0C64930312068884298
:1037C0003FD0C4494831206888423AD0C14960316D
:1037D0002068884235D0BF4978312068884230D08F
:1037E000BC499031206888422BD0BA49A831206862
:1037F000884226D0B8492068884222D0B64918317C
:10380000206888421DD0B44930312068884218D0E1
:10381000B14948312068884213D0AF4960312068EF
:1038200088420ED0AC4978312068884209D0AA4934
:1038300090312068884204D0A749A8312068884286
:1038400004D12068006800F0040003E020680068EC
:1038500000F0080080B12068006820F004002168B2
:10386000086094F85C0000F01F0108208840B060F8
:10387000606D40F00100606594F85C0000F01F018D
:10388000012088403840E8B392492068884200E02F
:10389000B7E24BD08F4918312068884246D08D4915
:1038A00030312068884241D08A49483120688842B6
:1038B0003CD0884960312068884237D085497831CA
:1038C0002068884232D083499031206888422DD0C8
:1038D0008049A8312068884228D07F4920688842E2
:1038E00024D07D491831206888421FD07A49303170
:1038F000206888421AD0784948312068884215D01B
:10390000754900E026E06031206888420ED0724997
:1039100078312068884209D06F4990312068884208
:1039200004D06D49A8312068884204D120684069DC
:1039300000F0800002E020680068002050B194F898
:103940005C0000F01F0101208840B060606D40F015
:103950000200606594F85C0000F01F0104208840BC
:103960003840E8B35B49206888424BD05949183148
:103970002068884246D0574930312068884241D07B
:1039800054494831206888423CD05249603120680F
:10399000884237D04F4978312068884232D04D492B
:1039A0009031206888422DD04A49A8312068884249
:1039B00028D049492068884224D0474918312068D6
:1039C00088421FD044493031206888421AD0424989
:1039D00048312068884215D03F496031206800E0B6
:1039E00024E088420ED03C4978312068884209D0D2
:1039F000394990312068884204D03749A83120687D
:103A0000884204D12068006800F0020002E02068CB
:103A10000068002050B194F85C0000F01F01042001
:103A20008840B060606D40F00400606594F85C0010
:103A300000F01F01102088403840E8B32549206875
:103A4000884251D023491831206888424CD02149FE
:103A500030312068884247D01E494831206888426A
:103A600042D01C496031206888423DD019497831E4
:103A70002068884238D0174990312068884233D076
:103A80001449A831206888422ED013492068884202
:103A90002AD0114918312068884225D00E4930318A
:103AA0002068884220D00C494831206888421BD0C9
:103AB00009496031206800E04DE0884214D0064991
:103AC0007831206888420FD003499031206805E0A2
:103AD000A40000241000024010040240884203D0D9
:103AE000FE492068884204D12068006800F0080080
:103AF00003E02068006800F0040060B394F85C0004
:103B000000F01F0110208840B0602068006800F4B9
:103B1000802080B12068006800F4002028B9206C63
:103B2000C8B12046216C884715E0A06C98B12046AA
:103B3000A16C88470FE02068006800F4807028B905
:103B40002068006820F0080021680860206C10B12F
:103B50002046216C884794F85C0000F01F0120206B
:103B60008840384000287DD0DD492068884249D00F
:103B7000DB4918312068884244D0D9493031206867
:103B800088423FD0D6494831206888423AD0D4494B
:103B900060312068884235D0D14978312068884228
:103BA00030D0CF499031206888422BD0CC49A83101
:103BB0002068884226D0C949A8392068884221D087
:103BC000C6499039206888421CD0C4497839206899
:103BD000884217D0C14960392068884212D0BF4955
:103BE0004839206888420DD0BC4930392068884265
:103BF00008D0BA4918392068884203D0B7492068EC
:103C0000884204D12068006800F0100003E02068BA
:103C1000006800F0020028B394F85C0000F01F0177
:103C200020208840B06094F8350004282DD1206809
:103C3000006820F01600216808602068406920F0C4
:103C4000800021684861206C08B9A06C28B1206808
:103C5000006820F008002168086094F85C0000F01B
:103C60001F0100E03FE03F208840B060012084F861
:103C7000350000BF002084F8340000BF206D10B173
:103C80002046216D8847BDE8F88F2068006800F461
:103C9000802080B12068006800F4002028B9606CA2
:103CA00008B32046616C88471DE0E06BD8B1204620
:103CB000E16B884717E02068006800F4807068B9FD
:103CC0002068006820F0100021680860012084F856
:103CD000350000BF002084F8340000BFE06B10B155
:103CE0002046E16B8847606D00287AD0606D00F057
:103CF0000100E8B3042084F835007949206888423F
:103D00004BD0774918312068884246D07449303109
:103D10002068884241D072494831206888423CD0AE
:103D20006F4960312068884237D06D49783120680A
:103D3000884232D06A499031206888422DD0684943
:103D4000A8312068884228D06449A8392068884270
:103D500023D062499039206888421ED05F49783963
:103D60002068884219D05D4960392068884200E0A7
:103D700040E012D059494839206888420DD057494F
:103D800030392068884208D0544918392068884260
:103D900003D052492068884206D12068006820F08C
:103DA00001002168086005E02068006820F001003B
:103DB0002168086000BF0098401C0090504500D961
:103DC00005E02068006800F001000028F3D100BF82
:103DD0002068006800F0010020B1032084F835005D
:103DE00003E00DE0012084F8350000BF002084F8D6
:103DF000340000BFE06C002802D02046E16C884708
:103E0000D9E138492068884222D0364914312068E7
:103E100088421DD0334928312068884218D0314962
:103E20003C312068884213D02E49503120688842A6
:103E30000ED02C4964312068884209D02949783154
:103E40002068884204D027498C312068884201D1FB
:103E5000012000E000200028D2D02068056894F8F6
:103E60005C0000F01F010420884000EA0900D8B37C
:103E700005F00400C0B394F85C0000F01F010420BA
:103E80008840C8F8040005F4004080B105F4803093
:103E900030B9A06C0028B3D02046A16C88478AE1D5
:103EA000206C0028ACD02046216C884783E105F0C7
:103EB0002000E8BB0A492068884253D008491831DD
:103EC000206888424ED0064930312068884249D067
:103ED000034948312068884244D006E0B8040240D3
:103EE00010000240085402584FE0B4496031206885
:103EF000884237D0B14978312068884232D0AF4902
:103F00009031206888422DD0AC49A8312068884281
:103F100028D0AB492068884224D0A94918312068AC
:103F200088421FD0A6493031206888421AD000E06C
:103F300025E0A34948312068884213D0A049603168
:103F4000206888420ED09E4978312068884209D086
:103F50009B4990312068884204D09949A831206853
:103F6000884206D12068006820F0080021680860B7
:103F700005E02068006820F0040021680860206CDB
:103F800010B32046216C884715E194F85C0000F0DE
:103F90001F010220884000EA0900E8B305F0020092
:103FA000D0B394F85C0000F01F0102208840C8F8EC
:103FB000040005F4004070B105F4803028B9606C4D
:103FC00010B12046616C8847F5E0E06BF0B3204605
:103FD000E16B8847EFE005F02000C0BB774920681F
:103FE00088424ED0754918312068884249D07349BB
:103FF00030312068884244D0704948312068884276
:104000003FD06E496031206888423AD06B497831A0
:104010002068884235D000E04EE068499031206841
:1040200088422ED06549A8312068884229D0644949
:104030002068884225D0624918312068884220D003
:104040005F493031206888421BD001E06EE02DE0EE
:104050005B4948312068884213D059496031206853
:1040600088420ED0564978312068884209D0544998
:1040700090312068884204D05149A8312068884294
:1040800006D12068006820F014002168086005E06F
:104090002068006820F00A0021680860012084F888
:1040A000350000BF002084F8340000BFE06BE8B3A7
:1040B0002046E16B88477EE094F85C0000F01F0129
:1040C0000820884000EA090080B305F0080068B3C2
:1040D0003A49206888424BD03849183120688842D4
:1040E00046D0364930312068884241D03349483182
:1040F000206888423CD0314960312068884237D0FE
:104100002E4978312068884232D02C49903120687D
:1041100088422DD02949A8312068884228D02849D2
:104120002068884224D02649183100E043E0206806
:1041300088421DD0224930312068884218D0204959
:1041400048312068884213D01D4960312068884278
:104150000ED01B4978312068884209D01849903127
:104160002068884204D01649A8312068884206D1C8
:104170002068006820F01C002168086005E02068C5
:10418000006820F00E002168086094F85C0000F0E0
:104190001F0101208840C8F804000120606584F8F0
:1041A000350000BF002084F8340000BFE06C10B17F
:1041B0002046E16C884700BF65E500001000024022
:1041C000100402402DE9F041044601F0C3FF80468F
:1041D00014B90120BDE8F081FE492068884249D029
:1041E000FC4918312068884244D0FA4930312068AF
:1041F00088423FD0F7494831206888423AD0F54993
:1042000060312068884235D0F24978312068884290
:1042100030D0F0499031206888422BD0ED49A83148
:104220002068884226D0EC492068884222D0EA499A
:104230001831206888421DD0E74930312068884213
:1042400018D0E54948312068884213D0E2496031EE
:10425000206888420ED0E04978312068884209D031
:10426000DD4990312068884204D0DB49A8312068BC
:10427000884201D1012000E00020002873D0606A4C
:1042800000B100BF022084F8350000BF002084F890
:10429000340000BFCF492068884249D0CD49183149
:1042A0002068884244D0CB493031206888423FD0D2
:1042B000C8494831206888423AD0C64960312068F0
:1042C000884235D0C34978312068884230D0C1490E
:1042D0009031206888422BD0BE49A831206888429E
:1042E00026D0BD492068884222D0BB4918312068B9
:1042F00088421DD0B84930312068884218D0B6496C
:1043000048312068884213D0B34960312068884220
:104310000ED0B14978312068884209D0AE49903139
:104320002068884204D0AC49A8312068884206D170
:104330002068006820F001002168086005E020681E
:10434000006820F00100216808600DE001F002FF24
:10435000A0EB0800052807D920206065032084F819
:104360003500012036E769E02068006800F00100B0
:104370000028EBD12068056898480540D4E902017F
:1043800008432169084361690843A1690843E16959
:104390000843216A08430543606A042803D1D4E92D
:1043A0000B01084305436068292802D360682E2862
:1043B00017D960683F2802D36068422811D9606825
:1043C000472802D3606848280BD960684F2802D379
:1043D0006068522805D96068742804D3606877281B
:1043E00001D8012000E0002008B145F480152068C4
:1043F00005602068456925F00705606A0543606A25
:1044000004280DD1A06A0543E06A48B12046FDF7B3
:104410001DFF28B140206065012084F83500D9E6F1
:10442000206845612046FDF7EDFD064694F85C00E6
:1044300000F01F013F208840B0609EE0684920687E
:10444000884222D066491431206888421DD06449D0
:1044500028312068884218D061493C312068884260
:1044600013D05F495031206888420ED05C496431D6
:104470002068884209D05A4978312068884204D09F
:1044800057498C312068884201D1012000E000208A
:10449000E0B353492068884222D051491431206842
:1044A00088421DD04E4928312068884218D04C4996
:1044B0003C312068884213D04949503120688842F5
:1044C0000ED0474964312068884209D04449783188
:1044D0002068884204D042498C312068884201D14A
:1044E000012000E0002000B100BF022084F8350068
:1044F00000BF002084F8340000BF206805683948F8
:104500000540A068402802D1102106E02EE0A068F6
:10451000802801D1C10100E00021E06841EAD0011A
:10452000206941EAD001606941EAD001A06941EA0D
:10453000D001E06941EAD001206A41EA1010054348
:104540002068056026492068401A1421B0FBF1F06C
:104550008000E0652046FDF755FD074694F85C00B5
:1045600000F01F0101208840786006E0402060656F
:10457000032084F8350001202CE616492068884283
:104580007AD0144918312068884275D011493031E9
:104590002068884270D00F494831206888426BD02B
:1045A0000C4960312068884266D00A497831206819
:1045B000884261D007499031206888425CD0054923
:1045C000A8312068884257D003492068884253D0D8
:1045D000014909E010000240100402403F8010FE33
:1045E000085402580F00FEFF18312068884243D05B
:1045F0003749206888423FD03549183120688842C1
:104600003AD0334930312068884235D0304948317A
:104610002068884230D02E496031206888422BD0F3
:104620002B4978312068884226D02A492068884260
:1046300022D028491431206888421DD025492831CC
:104640002068884218D023493C312068884213D022
:1046500020495031206888420ED01E4964312068BC
:10466000884209D01B4978312068884204D0194912
:104670008C312068884201D1012000E0002000B385
:104680002046FDF735FDA068802801D1002060603C
:104690002079216E0860D4E919104860606860B123
:1046A0006068082809D82046FDF784FD0020E16EE7
:1046B0000860D4E91C10486003E00020E066206731
:1046C000606700206065012084F83500002081E5E6
:1046D00040040240085402582DE9F04104460D46BA
:1046E00016461F464FF0000814B90120BDE8F081BE
:1046F00000BF94F83400012801D10220F6E7012020
:1047000084F8340000BF94F8350001287ED10220DF
:1047100084F8350000206065E4492068884249D06B
:10472000E24918312068884244D0E049303120689D
:1047300088423FD0DD494831206888423AD0DB4981
:1047400060312068884235D0D84978312068884265
:1047500030D0D6499031206888422BD0D349A83137
:104760002068884226D0D2492068884222D0D04989
:104770001831206888421DD0CD49303120688842E8
:1047800018D0CB4948312068884213D0C8496031DD
:10479000206888420ED0C64978312068884209D006
:1047A000C34990312068884204D0C149A8312068AB
:1047B000884206D12068006820F001002168086066
:1047C00005E02068006820F00100216808603B4691
:1047D000324629462046FDF791FDB44920688842BB
:1047E0004BD0B24918312068884246D0AF493031A9
:1047F0002068884241D0AD494831206888423CD089
:10480000AA4960312068884237D000E042E1A749D8
:1048100078312068884230D0A4499031206888429D
:104820002BD0A249A8312068884226D0A049206810
:10483000884222D09E491831206888421DD09C4968
:1048400030312068884218D0994948312068884220
:1048500013D097496031206888420ED0944978314E
:104860002068884209D0924990312068884204D05B
:104870008F49A8312068884201D1012000E0002042
:1048800080B12068006820F01E0040F0160021680A
:104890000860206CB0B12068006840F00800216812
:1048A00008600FE02068006820F00E0040F00A0069
:1048B00021680860206C28B12068006840F004007E
:1048C0002168086079492068884270D0774918319A
:1048D000206888426BD0754930312068884266D0A4
:1048E000724948312068884261D07049603120683F
:1048F00088425CD06D4978312068884257D06B4936
:1049000090312068884252D06849A8312068884296
:104910004DD067492068884249D0654918312068E0
:10492000884244D062493031206888423FD0604993
:104930004831206888423AD05D4960312068884219
:1049400035D05B4978312068884230D05849903161
:10495000206888422BD05649A8312068884226D04A
:1049600054492068884222D0524914312068884234
:104970001DD0504928312068884218D04D493C311B
:104980002068884213D04B495031206888420ED0AD
:10499000484964312068884209D046497831206806
:1049A000884204D043498C312068884201D10120DB
:1049B00000E0002090B1206E006800F4803028B143
:1049C000206E006840F48070216E0860E06E28B1AF
:1049D000E06E006840F48070E16E08603349206842
:1049E000884249D0314918312068884244D02F4943
:1049F0003031206888423FD02C49483120688842B5
:104A00003AD02A4960312068884235D02749783128
:104A10002068884230D025499031206888422BD0C8
:104A20002249A8312068884226D02149206888423E
:104A300022D01F491831206888421DD01C493031CE
:104A40002068884218D01A4948312068884213D01B
:104A500017496031206888420ED0154978312068A6
:104A6000884209D0124990312068884204D0104908
:104A7000A8312068884206D12068006840F0010013
:104A80002168086010E02068006840F0010021689B
:104A9000086009E04FF40060606500BF002084F802
:104AA000340000BF4FF0010840461FE610000240EE
:104AB000100402400854025870B5044601F04AFB45
:104AC00006462546681C10B104480078054400BF1E
:104AD00001F040FB801BA842FAD370BDA000002467
:104AE00030B5034693F89840012C01D0022C3ED1FA
:104AF0001868806D084030B91868C06D40F001003A
:104B00001D68E8650EE01868806D0840884206D18F
:104B10001868C06D40F002001D68E86502E00320DF
:104B20001D68E86501F4007030B11868D0F8E00045
:104B300010431D68C5F8E00001F4806030B11868CA
:104B4000D0F8E40010431D68C5F8E40000BF186801
:104B5000406D0B4D0D4028431D686865094800688D
:104B600040EA9170074D286000BF002030BDD3F8A7
:104B70009C0040F00200C3F89C000120F6E7000012
:104B8000FFFFCF3F14A800402DE9F04104460E4638
:104B90001746706800B900E000BF94F8980002283A
:104BA00032D12068D0F8C00000F07C5040B9D4F871
:104BB0009C0040F02000C4F89C000120BDE8F0817A
:104BC0002068D0F8C40000F4001038B1D4F89C007C
:104BD00040F40070C4F89C000120EFE72068D0F892
:104BE000C400C0F304452B463A4631462046FDF743
:104BF00053FF0120A8402168C1F8D0000120A8403F
:104C0000C4F894000020D9E7D4F89C0040F00800D4
:104C1000C4F89C000120D1E7704710B5034601B9E4
:104C200000E000BF93F89800012824D151B918681A
:104C3000D0F8F00020F07C5040EA02601C68C4F814
:104C4000F00016E001290AD11868D0F8A00020F081
:104C5000FE4040EA02601C68C4F8A00009E0186841
:104C6000D0F8B00020F0FE4040EA02601C68C4F8B2
:104C7000B000002010BDD3F89C0040F00400C3F841
:104C80009C000120F6E7F0B5024692F89860012EEC
:104C900001D0022E43D1C868072800D100BF0868A0
:104CA00018BBC868072800D000BFC86807280BD108
:104CB000088A4FF0605747EA0040CF6940EA072072
:104CC0008F6940EA07040AE0087A80070F7B40EA10
:104CD000C7600F8A40EA07404F6940EA0704D76E71
:104CE000486807EB80031C6017E0C868072800D0FD
:104CF00000BF0F7B086940EA4774C868072801D1E4
:104D00008D6903E00F7A486940EA8775176F486834
:104D100007EBC0031C601B1D1D600020F0BDD2F816
:104D20009C0040F00200C2F89C000120F6E770B53C
:104D30000446049D94F8980001280AD1080140EA2D
:104D4000820040EA430028432668C6F8800000201D
:104D500070BDD4F89C0040F00400C4F89C00012011
:104D6000F6E77047704700002DE9F04304460D4612
:104D70009C46002394F89880B8F1020F74D1402D1E
:104D800038D12068D0F8A00000F4FE0040B9D4F873
:104D90009C0040F02000C4F89C000120BDE8F08396
:104DA0002068D0F8A40000F07F0038B9D4F89C0047
:104DB00040F48070C4F89C000120EFE72068D0F830
:104DC000A400C0F3006040B12068D0F8A0004FF00C
:104DD0000109B9EBD07F00D101232068D0F8A400ED
:104DE000C0F305200344606C5843D4F8749009EB79
:104DF00080014BE0412D38D12068D0F8B00000F49C
:104E0000FE0038B9D4F89C0040F02000C4F89C00A3
:104E10000120C3E72068D0F8B40000F07F0038B963
:104E2000D4F89C0040F48070C4F89C000120B5E7E1
:104E30002068D0F8B400C0F3006040B12068D0F81A
:104E4000B0004FF00109B9EBD07F00D101232068F9
:104E5000D0F8B400C0F305200344E06C5843D4F804
:104E6000789009EB800111E06DE0206DA84207D831
:104E7000D4F89C0040F02000C4F89C0001208DE78D
:104E8000606D6843D4F87C9009EB8001086800F0FD
:104E900080405060506820B90868C0F38A401060B4
:104EA00003E0086820F060401060086800F00050DF
:104EB0009060086800F000401061091D088880B209
:104EC000D0610868C0F30340D060086800F4801027
:104ED0005061086800F4001090610868C0F3066033
:104EE00010620868C00F5062091D0F46002603E0DB
:104EF000B85D0CF80600761CDFF85C90D06819F8F5
:104F00000000B042F4D8402D03D12068C0F8A8308A
:104F100017E0412D03D12068C0F8B83011E0202DF2
:104F200006D20120A840D4F80090C9F8980008E003
:104F300005F01F09012000FA09F0D4F80090C9F823
:104F40009C0000202AE7D4F89C0040F00800C4F838
:104F50009C00012022E70000B4AD0108704700006A
:104F60002DE9F04F8DB00446EF4800688707EE4802
:104F7000001D006807EA80772068006D00F4704823
:104F80002068406D00EA08082068006D00F00F09F5
:104F90002068406D00EA09092068006D00F0F00A01
:104FA0002068406D00EA0A0A2068006D00F0715B1D
:104FB0002068406D00EA0B0B2068006D00F0607007
:104FC0000C902068406D0C9908400C902068456D4D
:104FD0002068066DC5F3002070B1C6F3002058B1FB
:104FE00000BF4FF48070216808650020CE4908603A
:104FF00000BF2046FFF7B2FFC5F38020C8B1C6F35B
:105000008020B0B12068D0F8DC000A902068D0F889
:10501000E4000A9908400A9000BF4FF480602168BC
:1050200008650020C049086000BF20460A9900F0CA
:10503000D8FE67B100BFBD48384021680865B80F89
:10504000B949086000BF39462046FFF7E5FDB8F1D1
:10505000000F0ED000BFB54808EA000021680865BF
:105060004FEA9870B049086000BF4146204600F002
:10507000BAFEB9F1000F0ED000BFAC4809EA00003B
:10508000216808654FEA9970A749086000BF494642
:10509000204600F0EFFBBAF1000F0ED000BFA3488E
:1050A0000AEA0000216808654FEA9A709E49086084
:1050B00000BF5146204600F073FEC5F3C02070B11A
:1050C000C6F3C02058B100BF4FF4006021680865E6
:1050D00000209549086000BF204600F085FEC5F31A
:1050E0004020C8B1C6F34020B0B12068D0F8D80045
:1050F0000B902068D0F8E0000B9908400B9000BF9F
:105100004FF400702168086500208749086000BFDF
:1051100020460B9900F066FEC5F3C04070B1C6F39F
:10512000C04058B100BF4FF400202168086500203E
:105130007D49086000BF204600F09AFBC5F300409F
:1051400070B1C6F3004058B100BF4FF48030216801
:10515000086500207449086000BF204600F040FE4A
:10516000C5F3804070B1C6F3804058B100BF4FF422
:1051700080202168086500206B49086000BF204638
:1051800000F02DFEC5F3404088B1C6F3404070B139
:1051900000BF4FF4003021680865002062490860B4
:1051A00000BFD4F89C0040F08000C4F89C000C982C
:1051B00070B100BF5D490C980840216808650C98E3
:1051C000800F5949086000BF20460C99FFF7CAFDBF
:1051D000BBF1000F10D000BF54480BEA000021685B
:1051E00008654FEA9B705049086000BFD4F89C00E6
:1051F00040EA0B00C4F89C004D49206888427DD1EC
:105200006068806800F00300002877D06068006A5A
:1052100000F00F0009906068406A09990840099001
:105220006068006A00F0300008906068406A089981
:10523000084008906068006A00F4C07007906068D9
:10524000406A0799084007906068006A00F4FC40D3
:1052500006906068406A0699084006906068006A97
:1052600000F4F02005906068406A059908400590B8
:105270006068406A02906068006A0190099830B1E5
:105280000998616808622046099900F0A5FD089810
:1052900030B10898616808622046089900F09EFDC8
:1052A0000298C0F38010A0B10198C0F3801080B1C3
:1052B0006068C06B000C04906068C06B00F03F0039
:1052C00003904020616808622046DDE9032100F078
:1052D00084FD079830B107986168086220460799F5
:1052E00000F079FD069840B1069861680862D4F82C
:1052F0009C0006990843C4F89C0000E00AE0059869
:1053000040B1059861680862D4F89C00059908438B
:10531000C4F89C00D4F89C0010B12046FFF721FD92
:105320000DB0BDE8F08F000010A80040FFFFCF3F98
:1053300000A0004070B594B004464C22B34901A8C7
:10534000FBF710FF14B9012014B070BDB0492068FC
:10535000884203D1206800F580706060A068B0F5D5
:10536000407F00D100BF206C00B100BFA06C00B135
:1053700000BF206D00B100BF206E00B100BFD4E9B6
:105380001710084400B100BF94F8980028B9002015
:1053900084F89900204600F03DF92068806920F0EB
:1053A00010002168886100F0D5FE05460EE000F08F
:1053B000D1FE401B0A2809D99834606840F00100EA
:1053C0006060032004F898090120BDE72068806927
:1053D00000F008000828EAD02068806940F0010049
:1053E0002168886100F0B6FE05460EE000F0B2FECE
:1053F000401B0A2809D99834606840F001006060B9
:10540000032004F8980901209EE72068806900F0D5
:1054100001000028EAD02068806940F0020021687D
:105420008861207C012806D12068806920F0400036
:105430002168886105E02068806940F040002168AB
:105440008861607C012806D12068806940F4804032
:105450002168886105E02068806920F48040216827
:105460008861A07C012806D12068806920F48050E2
:105470002168886105E02068806940F480502168D7
:1054800088612068806920F44070A1680843216821
:1054900088612068806920F0A40021688861206804
:1054A000006920F0100021680861E068012806D139
:1054B0002068806940F004002168886120E0E0688D
:1054C000F0B1E068022815D02068806940F08000C3
:1054D000216888612068006940F010002168086137
:1054E000E06803280CD12068806940F02000216822
:1054F000886105E02068806940F0200021688861AB
:10550000207E401E4106E069401E41EA0020216ADB
:10551000491E0843A18A491E40EA01402168C8612A
:10552000A068B0F5407F0FD1A06A401EE16A491E15
:1055300040EA0121206B401E41EA0011A08C401E70
:1055400041EA00402168C860206E38B12068D0F878
:10555000C000616E08432168C1F8C000D4E917108B
:10556000084460B12068D0F8C80020F0070001AA04
:10557000A16E52F8211008432168C1F8C800206CC0
:1055800060B12068D0F8BC0020F0070001AA616C6F
:1055900052F8211008432168C1F8BC00A06C68B122
:1055A0002068D0F8BC0020F0700101AAE06C52F82D
:1055B000200041EA00102168C1F8BC00206D68B1EC
:1055C0002068D0F8BC0020F4E06101AA606D52F8B8
:1055D000200041EA00202168C1F8BC000C49206885
:1055E000884205D16068806820F0030061688860A7
:1055F000002044F8940FA06001202071943C2046C4
:10560000FDF73AF9064630469EE60000C4AD0108B3
:1056100000A0004010B5B6B00446142130A8FBF736
:10562000FDFDB82102A8FBF7F9FD8A4920688842F0
:1056300059D14FF400410020CDE9021048031D90DC
:1056400002A802F041F808B1FDF7C4F882480068EA
:10565000401C814908600846006801280DD100BF40
:105660007E48006840F480707C4908600846006805
:1056700000F48070019000BF00BF00BF77480C3875
:10568000006840F0080075490C3908600846006859
:1056900000F00800019000BF00BF032030900220FE
:1056A00031900020329033900920349030A96C481A
:1056B00000F052FC00220521132000F025FE1320EB
:1056C00000F00EFE00220521152000F01DFE152021
:1056D00000F006FE002205213F2000F015FE3F20CD
:1056E00000F0FEFDB3E05F492068884259D14FF4D5
:1056F00000410020CDE9021048031D9002A801F0EE
:10570000E3FF08B1FDF766F853480068401C5249B2
:1057100008600846006801280DD100BF4F480068A6
:1057200040F480704D4908600846006800F48070BD
:10573000019000BF00BF00BF48480C38006840F02F
:10574000020046490C3908600846006800F0020073
:10575000019000BF00BF60203090022031900020F7
:10576000329033900920349030A93F4800F0F4FB88
:1057700000220521142000F0C7FD142000F0B0FD28
:1057800000220521162000F0BFFD162000F0A8FD24
:10579000002205213F2000F0B7FD3F2000F0A0FDD2
:1057A00055E032492068884251D14FF40041002031
:1057B000CDE9021048031D9002A801F085FF08B151
:1057C000FDF708F824480068401C23490860084693
:1057D000006801280DD100BF2048006840F48070A7
:1057E0001E4908600846006800F48070019000BF00
:1057F00000BF00BF19480C38006840F00800174986
:105800000C3908600846006800F00800019000BFED
:1058100000BF4FF440503090022031900020329071
:1058200033900520349030A90D4800F095FB0022FC
:1058300005219F2000F068FD9F2000F051FD00220F
:105840000521A02000F060FDA02000F049FD36B049
:1058500010BD000000A0004020000024EC440258CD
:10586000000C025800A400400004025800D400407C
:105870007047000030B591B004460D46182101A8CC
:10588000FBF7CCFC01AB07AA40212046FFF76CFADE
:10589000FD4884427ED140F203220798811A90424B
:1058A00059D007DCFF2876D0A0F2012038B10128BA
:1058B00072D12AE001297AD00629F9D1A0E0F34873
:1058C000008800B2F14908819DF805009DF8041098
:1058D00040EA0120ED4908809DF807009DF8061078
:1058E00040EA012000B2E94948809DF809009DF88E
:1058F000081040EA012000B2E44988809DF80A00BF
:10590000887101200FF0EEFDE9E0E048808A01B2E5
:10591000DE4881839DF805009DF8041040EA0120CF
:10592000DA4988829DF807009DF8061040EA0120B8
:1059300001B2D648C1829DF809009DF8081040EADE
:10594000012001B2D14801839DF80A10817602201E
:105950000FF0C8FDC3E0CD48008D01B2CB480186F1
:105960009DF805009DF8041040EA0120C74908850C
:105970009DF807009DF8061040EA012001B2C348D7
:1059800041859DF809009DF8081040EA012001B208
:10599000BE4803E0A4E059E0A0E008E081859DF85E
:1059A0000A1080F82E1003200FF09CFD97E0B748F6
:1059B000808F01B2B548A0F844109DF805009DF80D
:1059C000041040EA0120B14988879DF807009DF83E
:1059D000061040EA012001B2AC48C1879DF80900D9
:1059E0009DF8081040EA012001B2A848A0F8401034
:1059F0009DF80A1080F8421004200FF073FD6EE04D
:105A0000A348008800B2A24908819DF805009DF8CE
:105A1000041040EA01209E4908809DF807009DF887
:105A2000061040EA012000B2994948809DF809001B
:105A30009DF8081040EA012000B2954988809DF841
:105A40000A00887109200FF04DFD48E001A8018887
:105A500000EE101AB8EE400A8E4981ED000A9DF85A
:105A600005109DF8042041EA022100EE101AB8EE5C
:105A7000C00ADFED890A80EE201A864981ED011AFD
:105A80009DF807109DF8062041EA022109B200EEB8
:105A9000101AB8EEC00ADFED800A80EE201A7D49A8
:105AA00081ED021A9DF8081000EE101AB8EE400AB7
:105AB000784981ED030A9DF8091000EE101AB8EE3E
:105AC000400A744981ED040A9DF80A1000EE101A8C
:105AD000B8EE400A6F4981ED050A00E000BF51E1D0
