:020000040800F2
:10000000B8560020E9020008FF350008FD2D000861
:10001000FD350008410800080553000800000000F5
:10002000000000000000000000000000290200089D
:10003000150C00080000000085020008054B0008B0
:100040000303000803030008030300080303000878
:100050000303000803030008210C00080303000841
:100060000303000803030008390C00080303000819
:1000700099080008030300080303000803030008AD
:100080000303000803030008030300080303000838
:100090004508000803030008030300083F0C00089C
:1000A0000303000803030008030300080303000818
:1000B0000303000803030008030300080303000808
:1000C00003030008030300080303000803030008F8
:1000D00003030008455100080303000851510008BC
:1000E00003030008030300080303000803030008D8
:1000F000C14B0008030300080303000803030008C2
:1001000003030008030300080303000803030008B7
:1001100003030008030300080303000803030008A7
:100120000303000803030008A50800088D0B00085E
:100130000303000803030008030300080303000887
:100140000303000803030008030300080303000877
:100150000303000803030008030300081952000802
:100160000303000803030008030300080303000857
:100170000303000803030008030300080000000055
:10018000030300080303000800F002F800F03CF845
:100190000AA090E8000C82448344AAF10107DA45E2
:1001A00001D100F031F8AFF2090EBAE80F0013F0F8
:1001B000010F18BFFB1A43F001031847D87B00005A
:1001C000F87B0000103A24BF78C878C1FAD85207EB
:1001D00024BF30C830C144BF04680C6070470000C1
:1001E0000023002400250026103A28BF78C1FBD840
:1001F000520728BF30C148BF0B6070471FB507F0DA
:1002000063FD1FBD10B510BD00F0E4F91146FFF706
:10021000F5FF05F07BFF00F002FA03B4FFF7F2FFF1
:1002200003BC00F005FA00002C4B19680868B0E820
:10023000F04F80F30988BFF36F8F4FF0000080F319
:10024000118870470000000008480068006880F3CB
:1002500008884FF0000080F3148862B661B6BFF3DF
:100260004F8FBFF36F8F00DF00BF00BF08ED00E0CE
:10027000DFF80C00016841F470010160704700BFB5
:1002800088ED00E0EFF30980BFF36F8F134B1A681E
:100290001EF0100F08BF20ED108A20E9F04F10600B
:1002A00009B44FF0500080F31188BFF34F8FBFF3B4
:1002B0006F8F06F061FF4FF0000080F3118809BCDA
:1002C00019680868B0E8F04F1EF0100F08BFB0ECD6
:1002D000108A80F30988BFF36F8F704724000020D5
:1002E000EFF3058070470000094880470948004740
:1002F000FEE7FEE7FEE7FEE7FEE7FEE7FEE7FEE7D6
:10030000FEE7FEE704480549054A064B7047000032
:10031000B14B000889010008B8500020B8560020F1
:10032000B8520020B852002053EA020C00F0698055
:100330002DE9F04B4FF00006002B1FBFB3FA83F5F9
:1003400003FA05F424FA05F65E4012BF1643B2FA2A
:1003500082F502FA05F4C5F120051EBF22FA05FC5C
:1003600044EA0C04203556EA044C4FEA144418BF02
:10037000641C4FF000084FF00009904271EB030C31
:1003800039D3002919BFB1FA81F701FA07F6B0FA9B
:1003900080F700FA07F6C7F120071EBF20FA07FC16
:1003A00046EA0C062037B6FBF4FCA7EB0507103F26
:1003B00007F01F0BCBF120060CFA0BFB2CFA06F60C
:1003C00044BFB3460026202FA4BF5E464FF0000B6B
:1003D0005BEA060C08BF4FF0010B19EB0B09ABFBF6
:1003E000027C48EB0608C01B06FB02CC0BFB03CCCF
:1003F00071EB0C01C1E70B46024641464846BDE899
:10040000F08B13B54FF000004FF00001AFF3008008
:10041000BDE81C407047032A40F2308010F0030C06
:1004200000F0158011F8013BBCF1020F624498BF47
:1004300011F801CB00F8013B38BF11F8013BA2F1E4
:10044000040298BF00F801CB38BF00F8013B11F05F
:10045000030300F02580083AC0F0088051F8043BFF
:10046000083A51F804CBA0E80810F5E7121D5CBF6C
:1004700051F8043B40F8043BAFF30080D20724BF9F
:1004800011F8013B11F801CB48BF11F8012B24BF33
:1004900000F8013B00F801CB48BF00F8012B704782
:1004A00010B5203AC0F00B80B1E81850203AA0E80F
:1004B0001850B1E81850A0E81850BFF4F5AF5FEA43
:1004C000027C24BFB1E81850A0E8185044BF18C9F6
:1004D00018C0BDE810405FEA827C24BF51F8043B9D
:1004E00040F8043B08BF7047D20728BF31F8023BF1
:1004F00048BF11F8012B28BF20F8023B48BF00F885
:10050000012B704702F0FF0343EA032242EA024252
:1005100000F037B84FF0000200B5134694469646F7
:10052000203922BFA0E80C50A0E80C50B1F1200106
:10053000BFF4F7AF090728BFA0E80C5048BF0CC0B4
:100540005DF804EB890028BF40F8042B08BF704712
:1005500048BF20F8022B11F0804F18BF00F8012B84
:10056000704770477047704710B500F02BF800686F
:1005700010BD10B5044600F025F8046010BD4FF022
:1005800000020429C0F0128010F0030C3FF4C4AF45
:10059000CCF1040CBCF1020F18BF00F8012BA8BF6E
:1005A00020F8022BA1EB0C01FFF7B6BF5FEAC17C7C
:1005B00024BF00F8012B00F8012B48BF00F8012BE5
:1005C00070470000004870475450002000487047B2
:1005D000545000207546FFF7F9FFAE460500694606
:1005E000534620F00700854618B020B5FFF78AFE75
:1005F000BDE820404FF000064FF000074FF0000824
:100600004FF0000B21F00701AC46ACE8C009ACE8A4
:10061000C009ACE8C009ACE8C0098D46704710B508
:100620000446AFF300802046BDE81040FFF7F5BD5B
:1006300001491820ABBEFEE726000200704700000B
:1006400001221021014801F027B9000000000240FA
:1006500000221021014801F01FB9000000000240F3
:100660007047000001221146014801F015B9000051
:100670000004024000220121014801F00DB90000F0
:100680000004024030B5437804781B021BB22343B8
:1006900000EE103A1B4CB8EEC00AD4ED000A20EE72
:1006A000200A81ED000AC37885781B021BB22B4318
:1006B00000EE103AD4ED000AB8EEC00A20EE200A8F
:1006C00081ED010A437904791B021BB2234300EE3A
:1006D000103AB8EEC00A20EE200ADFED0B0A81EDD9
:1006E000020A017AC3790904807941EA03210143AE
:1006F00000EE101AB8EE400A20EE200A82ED000A41
:1007000030BD0000A400002000401C42704705F0EE
:1007100026BD012005F023BD10B5427803781202F2
:1007200012B21A4300EE102A124BB8EEC00AD3EDF3
:10073000010A20EE200A81ED000AC27884781202B4
:1007400012B2224300EE102AD3ED010AB8EEC00A1D
:1007500020EE200A81ED010A42790079120212B2DC
:10076000024300EE102AB8EEC00A20EE200A81ED06
:10077000020A10BDA400002010B5FFF771FFFFF7BB
:10078000C5FF05F0ADF808B1802402E005F012F8CD
:10079000044605F06FFA10B144F0400010BD05F0BA
:1007A000FBF9204310BD70B514460D4640F08000A3
:1007B00000F016F806E0552000F012F8641E05F867
:1007C000010BE4B2002CF6D170BD10B50C4640F020
:1007D000800000F005F8552000F002F8207010BDF0
:1007E00001B582B04FF47A700090012301AA02A9EA
:1007F000024801F079FC9DF804000EBDE0010020E4
:1008000002784078D20042EA5010B0F5806F01DBE8
:10081000A0F5006000EE100AB4EE001AF8EEC00A6F
:10082000B3EE070A00EE810A81ED000A704710B5A9
:100830000C46FFF7D5FF2046BDE81040FFF7D0BFBC
:10084000FEE70000014800F038BB000090010020E6
:1008500010B5104800F03AFD08B100F02AFA022164
:100860000C4800F028FA08B100F023FA09482830B3
:1008700000F02CFD08B100F01CFA064802212830D7
:1008800000F019FA002803D0BDE8104000F011BABA
:1008900010BD000090010020014800F0A5BD00003F
:1008A000A80400202DE9F05FAF48B04BB04CC06CFD
:1008B000AE4DAF4EAD4F0068AC49DFF8B492DFF8F3
:1008C000ACA2DFF8ACB2DFF8A4E2A94A483B60343E
:1008D00018351836303F09F178090AF1300A4FF41B
:1008E000006C0BF1300BAEF1180E884223D99F49F2
:1008F000543926E0A84233D14FF020080AE0504591
:1009000035D1E04606E000BF4FF4001802E000BF1A
:100910004FF0006811EA080F7CD09449884253D9FF
:10092000904205D0984203D0A04201D0A8422FD1D6
:100930004FF0200C45E08E49A831884203D98B49FD
:100940005839096805E08A49483188428949F8D907
:1009500049689042D0D09842CED0A042CCD0C9E7CE
:10096000B042CED0B842CCD04845CAD0C7E75845EF
:10097000CAD07045C8D0DFF8F88108F1900840452A
:10098000C2D0DFF8E88108F148084045C0D1BBE794
:10099000B04216D0B84214D0484512D0504510D0BD
:1009A000584509D0704507D071499031884203D02D
:1009B0006E494831884202D14FF4001C01E04FF0EB
:1009C000006C6A484C382AE06949A831884229D924
:1009D000904205D0984203D0A04201D0A84202D153
:1009E0004FF0200C19E0B04217D0B84215D048455E
:1009F00013D0504511D0584509D0704507D05C49F7
:100A00009031884203D059494831884203D14FF48C
:100A1000001C02E0A5E04FF0006C54485038C0F8CC
:100A200000C052E052494831884227D9904205D04F
:100A3000984203D0A04201D0A84202D14FF0200C2E
:100A400018E0B04216D0B84214D0484512D05045F4
:100A500010D0584509D0704507D04549903188429B
:100A600003D042494831884202D14FF4001C01E0D2
:100A70004FF0006C3F48C0F80CC026E0904205D013
:100A8000984203D0A04201D0A84202D14FF0200CDE
:100A900018E0B04216D0B84214D0484512D05045A4
:100AA00010D0584509D0704507D03149903188425F
:100AB00003D02E494831884202D14FF4001C01E096
:100AC0004FF0006C2B48C0F808C02B4C20788007F2
:100AD0000CD5207820F002002070207840F004002F
:100AE000207001221146254800F0D6FE6078244D82
:100AF00080070CD5607820F002006070607840F0CC
:100B00000400607001221021284600F0C5FEA07884
:100B100080070CD5A07820F00200A070A07840F0EB
:100B20000400A07001221021284600F0B5FE05F057
:100B300015FA2078400714D506F010FF012810D0D0
:100B400010480D490C31006806F03EFAE0680028B4
:100B500007D00D494FF080500860BFF34F8FBFF3AF
:100B60006F8FBDE8F09F0000E00100205864024054
:100B70001060024000600240D000002000040240EB
:100B8000000002400400002004ED00E0014800F0F5
:100B90002BBC00009802002001681823CAB2103A4A
:100BA000B2FBF3F2054B6FF30901032A9B5CC365AB
:100BB00000D9091D8165084670470000407D000886
:100BC00010B5014600208B698A6A4FF0C07453B19A
:100BD000B3F5005F15D072B1012A0CD0022A0AD0F9
:100BE000032A09D104E01AB1012A06D0022A03D14E
:100BF000C96AC90100D5012010BDC96AA142FAD055
:100C000010BD002AF7D0012AF2D0022AF3D0032A1D
:100C1000F3D010BD704710B5012005F0A0FAFBE736
:100C200010B5012000F034FDBDE81040014804F08B
:100C3000A3BD00000000FFFF102000F029BD202010
:100C400000F026BD2DE9FF414FF0000CDDE90A4719
:100C5000CDF800C08DF80000FD208DF80100CDF822
:100C600004C08DF80210100A8DF80420DDE90C652F
:100C70008DF803008DF80530200E8DF80600200C4D
:100C80008DF80700CDF808C0200A8DF80800CDF8CF
:100C90000CC08DF809406B208DF80A708DF80C009F
:100CA0008DF80B602A460D21684605F049F8BDE82D
:100CB000FF8172B6FEE790F82020012A07D0022AB1
:100CC00005D0416A41F480214162012070470068EB
:100CD00042690A43426100207047F0B590F8205005
:100CE0000468A468012D05D0022D03D0416A41F4A7
:100CF000802157E014F0406F01D1E5004FD5C4F3D7
:100D000001640125A5401D608D684FF4C0739DB13D
:100D1000CE6835434E6845EAC605066803EB0417FE
:100D2000F5514FF4C275076805EB04150E697E5145
:100D3000097D012905D009E00E88CD6845EA4655B0
:100D4000EBE701684E5946F480764E511179D5791A
:100D5000567941EA056195792D0445EA062529432E
:100D60004FF4C676056806EB0416A9511178D578BC
:100D700041EA0561957852782D0445EA0222114333
:100D80004FF4C475026805EB04155151006803EB7C
:100D90000411425842F0010242500020F0BD416A65
:100DA00041F4001141620120F0BD000010B590F83F
:100DB0002020012A07D0022A05D0416A41F480216F
:100DC0004162012010BD3B48D0F8002242F00102F0
:100DD000C0F80022D0F8002222F47C52C0F8002291
:100DE000D0F800224B6A42EA0322C0F800220A7DB2
:100DF00002F01F0301229A40D0F81C329343C0F83E
:100E00001C32CB69B3B9D0F80C329343C0F80C3222
:100E10008C894B6864F31F434C6900EBC404C4F82D
:100E200040320C890B6864F31F434C6900EBC40427
:100E3000C4F84432CB69012B16D1D0F80C321343DD
:100E4000C0F80C320C884B6864F31F434C6900EB0C
:100E5000C404C4F840320C89CB6864F31F434C6966
:100E600000EBC404C4F844328B69002BD0F8043280
:100E70000ED01343C0F804320B69002BD0F81432A3
:100E800008D01343C0F81432096A012904D008E0DD
:100E90009343EFE79343F5E7D0F81C121143C0F8F2
:100EA0001C12D0F8001221F00101C0F8001200203D
:100EB00010BD00000064004070472DE9F05F05465A
:100EC000006800244669D0F804908768D0F80CB018
:100ED000D0F810A0D0F81880F10748D0F90714D046
:100EE00001218160B80703D5284600F01CFA0CE008
:100EF000780702D54FF4006407E0380702D54FF4B5
:100F0000805402E0284600F00DFAF80516D529684D
:100F10004FF480708860B80503D5284600F005FAC4
:100F20000CE0780502D544F4005407E0380502D5FA
:100F300044F4804402E0284600F0F6F9F80316D5A0
:100F400029684FF480308860B80303D5284600F044
:100F5000EEF90CE0780302D544F4004407E03803CE
:100F600002D544F4803402E0284600F0DFF930076F
:100F700007D55FEACB6004D52968102044F40074DB
:100F8000C86070074FF0080707D55FEA0B7004D5FB
:100F90002868C760284600F093F9B00706D528688E
:100FA000C068800702D0284600F08BF9700607D58C
:100FB0005FEACA6004D52968102044F4806408619F
:100FC000B00607D55FEA0A7004D52868076128468D
:100FD00000F078F9F00606D528680069800702D08D
:100FE000284600F070F9B00308D55FEAC96005D55E
:100FF000296810204860284600F066F9F00307D5FC
:101000005FEA097004D528684760284600F090F927
:10101000300446D55FEA497040D5F00504D55FEA53
:10102000C87001D044F00104B00504D55FEA8870AF
:1010300001D544F00204700504D55FEA487001D57B
:1010400044F00404300529D518F0700F26D008F0BC
:101050007000402815D006DC102809D020280AD0BE
:10106000302816D10AE050280ED0602811D10EE0A9
:1010700044F008040DE044F010040AE044F02004B9
:1010800007E044F0400404E044F0800401E044F44C
:1010900080742868816921F07001816129680420C9
:1010A0004860002C05D0686A204368622846FFF734
:1010B00003FFBDE8F09F70B5040003D094F8200052
:1010C00010B104E0012070BD204600F081F82068D6
:1010D000016841F00101016000F0E4FB05460526CE
:1010E00004E000F0DFFB401B0A2811D820684068AC
:1010F000C007F6D02068016821F00201016000F00D
:10110000D1FB05460BE000F0CDFB401B0A2806D9B9
:10111000606A40F40030606284F82060D2E72068A2
:1011200040688007EFD4207E0128206801683DD008
:1011300021F080010160607E01282068016838D0BC
:1011400021F040010160A07E01282068016833D0B1
:1011500021F020010160E07E0128206801682ED086
:1011600041F010010160207F01282068016829D02A
:1011700021F008010160607F01282068016824D007
:1011800021F004010160D4E902010843D4E904120A
:10119000114308436168491E08432168C861002063
:1011A0006062012084F82000002070BD41F08001C1
:1011B000C0E741F04001C5E741F02001CAE721F056
:1011C0001001CFE741F00801D4E741F00401D9E76D
:1011D000F0B587B0044614216846FFF79BF9334BFE
:1011E0003348DFF8C4E01968D4F800C0304A03255A
:1011F0000226092710300024491CF44525D1196026
:10120000012907D1016841F000710160006800F018
:1012100000700590106840F0080010601068CDE97B
:10122000005600F00800CDE9047069462148CDE978
:10123000024500F039FA00220521142000F0A4FB39
:10124000142000F093FB07B0F0BDDFF86CE0F4452C
:10125000F9D1D0F800C04CF0806CC0F800C0D0F8D4
:1012600000C001290CF0806CCDF814C0196007D1C2
:10127000016841F000710160006800F000700590A5
:10128000106840F002001060106802AB00F002002D
:1012900005906020CDE9000683E8B0006946074864
:1012A00000F002FACFE70000006400400C000020CC
:1012B00030380240000C0240006800400004024048
:1012C00070477047704770477047000070B504461C
:1012D00090F82000012804D0606A40F40020606289
:1012E00018E0022084F820002068016821F0010144
:1012F000016000F0D7FA05460EE000BF00F0D2FA18
:10130000401B0A2808D9606A40F40030606205205A
:1013100084F82000012070BD20684068C007EDD12E
:10132000606270BD70477047704770477047704784
:1013300070472DE9F0410446876D00F0B3FA064688
:1013400094F835000025022806D08020606584F8D6
:1013500034500120BDE8F0812068016821F01601B9
:1013600001602068416921F080014161206C08B969
:10137000A06C20B12068016821F00801016020689C
:10138000016821F0010101600CE000F08BFA801B84
:10139000052807D920206065032084F8350084F8EB
:1013A0003450D7E720680068C007EED194F85C108D
:1013B0003F208840B860012084F8350084F834501C
:1013C0000020C7E790F83510022903D0802141653D
:1013D00001207047052180F835100068016821F070
:1013E00001010160002070472DE9F84304464FF0E9
:1013F0000009CDF8009063484FF41651A56D0068C0
:10140000B0FBF1F72E6894F85C10082000FA01F1A7
:1014100031420FD021680A6852070BD50A6822F0C2
:1014200004020A6094F85C108840A860606D40F087
:101430000100606594F85C104FF0010808FA01F0B3
:10144000304208D021684969090604D5A860606D5A
:1014500040F00200606594F85C100420884030423F
:1014600008D021680968890704D5A860606D40F03C
:101470000400606594F85C1010208840304218D059
:1014800021680968090714D5A86020680168490324
:1014900004D50068000308D5A16C07E00168C90500
:1014A00003D4016821F008010160216C09B12046D4
:1014B000884794F85C1020208840304231D0216861
:1014C0000968C9062DD5A86094F83500052820685C
:1014D000016806D0490347D5006800031DD4616C3C
:1014E0001CE021F0160101602068416921F08001B3
:1014F0004161206C08B9A06C20B12068016821F01E
:101500000801016094F85C103F208840A86084F8CE
:10151000358084F83490216D1FE0E16B09B12046DD
:101520008847606D00282BD0606DC00714D005205F
:1015300084F835002068016821F0010101600098FD
:10154000401C0090B84203D820680068C007F6D15C
:1015500084F8358084F83490E16C002910D001B013
:101560002046BDE8F04308470168C905D5D40168A5
:1015700021F01001016084F8358084F83490CCE7C4
:10158000BDE8F883200000202DE9F041044600F07A
:1015900089F906465CB1022084F83500002584F8FC
:1015A00034502068016821F0010101600DE0012044
:1015B000BDE8F08100F076F9801B052805D92020D0
:1015C0006065032084F83500F2E720680068C007F2
:1015D000F0D12268116820480140D4E90103184382
:1015E000D4E903363343184363691843A3691843A6
:1015F000E3691843236A18430843616A042903D145
:10160000D4E90B1319430843106020684069666AE7
:1016100020F0070130460E43012704280CD1A06AB0
:101620000643E06A40B12046FFF7CAFA20B14020E5
:10163000606584F83570BAE7206846612046FFF798
:10164000ABFA94F85C203F2191408160656584F895
:1016500035700020ACE700003F8010F00B491028E7
:101660000AD0202811D1087840F001000870C8780D
:1016700000280AD004F072BC487840F0010048709D
:10168000887840F001008870F1E77047D0000020B2
:10169000044910B50A68024202D00860FFF7DEFF75
:1016A00010BD0000143C01402DE9F84FDFF8BCA14B
:1016B0000022012503264FF00F090AF1040BAAF1BD
:1016C000040E00BF0B6805FA02F42340A34270D158
:1016D0000F7907F00307012F01D0022F16D1876879
:1016E0004FEA420806FA08FC27EA0C07D1F80CC0BA
:1016F0000CFA08FC4CEA070CC0F808C04768A7437E
:101700000C79C4F3001494403C4344600C79E443E6
:10171000A4070AD0C4684FEA420C06FA0CF7BC438F
:101720008F6807FA0CF72743C7600C7904F00304AD
:10173000022C12D1D40800EB840CDCF820405707AF
:10174000FF0E09FA07F824EA0804D1F8108008FA15
:1017500007F848EA0408CCF8208004684FEA420CF5
:1017600006FA0CF7BC430F7907F0030707FA0CF7EA
:10177000274307604C6814F4403F70D03C4C276806
:1017800047F480472760246822F0030704F480446C
:101790000094384C07EB040CDCF8084897074FEA34
:1017A000177809FA08F7BC43334FB84202D1002733
:1017B00024E054E0314FB84201D101271EE0304F00
:1017C000B84201D1022719E02E4FB84201D10327B8
:1017D00014E02D4FB84201D104270FE02B4FB8423F
:1017E00001D105270AE02A4FB84201D1062705E0BA
:1017F000284FB84201D1072700E0082707FA08F769
:101800002743CCF80878DAF800405746D1F804C0EE
:101810009C435FEACC2C00D51C433C60DBF80040C5
:101820005F46D1F804C09C435FEA8C2C00D51C4372
:101830003C60DEF800407746D1F804C09C435FEA84
:101840008C3C00D51C433C60084F083F3C68D1F8F5
:1018500004C09C435FEACC3C00D51C433C60521C56
:10186000102AFFF42FAFBDE8F88F0000083C0140BC
:1018700044380240003001400000024000040240B1
:1018800000080240000C0240001002400014024018
:1018900000180240001C02400AB18161704709042F
:1018A000FBE700000148806870470000140000203A
:1018B000024881680278114481607047140000205A
:1018C0000B4810B5016841F400710160016841F4F2
:1018D00080610160016841F480710160032000F0C3
:1018E00073F80F2000F006F800F024F8002010BD77
:1018F000003C024070B50D4D04464FF47A712878D3
:10190000B1FBF0F00A490968B1FBF0F000F0E4FC2B
:1019100048B9102C07D200222146501E00F034F89E
:1019200000206C6070BD012070BD0000140000201C
:10193000200000200C4882B0016841F48041016021
:10194000006800F4804000900748001F016841F0E3
:10195000805101600068002200F0805000900F214B
:10196000901E02B000F010B844380240002809DB95
:1019700000F01F02012191404009800000F1E020A9
:10198000C0F8001170470000F0B40E4B1B680C4605
:10199000C3F30223C3F10705042D00D90425191D43
:1019A000072901D2002300E0DB1E012606FA05F11B
:1019B000491E214099409E40761E16403143F0BC9E
:1019C00003F0B4BC0CED00E0064900F00702086823
:1019D0004FF6FF03184040EA0220034A1043086014
:1019E000704700000CED00E00000FA052DE9F0471B
:1019F0000E46050065D0DFF81481D8F80000F7B274
:101A000000F00700B04207D288F80070D8F8000054
:101A100000F00700B04254D128683D4C810712D530
:101A2000400703D5206840F4E05020602878000784
:101A300003D5206840F4604020602068A96820F049
:101A4000F000084320602878C0072DD0304968682E
:101A50000839012812D0022813D0032811D00968B0
:101A6000890700292DDA216821F003010143216053
:101A7000FFF718FF814641F2883A0EE009688903B2
:101A8000EFE709688901ECE7FFF70CFFA0EB09011C
:101A9000514502D90320BDE8F0872068696800F04D
:101AA0000C00B0EB810FEFD1D8F80010404601F0E8
:101AB0000701B14207D90770006800F00700B04283
:101AC00001D00120E7E72878400705D52068E968BC
:101AD00020F4E050084320602878000706D52068ED
:101AE000296920F4604040EAC100206000F038F825
:101AF0002168084AC1F30311515CC84006490860D7
:101B000006480068FFF7F6FE0020C4E7003C0240EC
:101B100008380240487D00082000002018000020FE
:101B20000448054900680968044AC1F38221515CF0
:101B3000C84070472000002008380240587D000847
:101B40000448054900680968044AC1F34231515C00
:101B5000C84070472000002008380240587D000827
:101B6000154810B5006810F00C02144813D0144941
:101B7000042A0FD0082A0ED10F4C241F2268236894
:101B800002F03F025B0207D52068C0F38810A0FB7B
:101B9000010106E0084610BD2168C1F38811A1FBD0
:101BA00000010023FEF7C0FB2168C1F30141491C7D
:101BB0004900B0FBF1F010BD083802400024F400E9
:101BC00000366E012DE9F84F04006ED02078DFF862
:101BD0004C93C007A9F104054AD009F1040001683B
:101BE000C1F38101012908D00068C0F381000228F7
:101BF0000AD1D9F80000400206D52868800337D5FD
:101C000060680028E1D033E06068B0F5803F10D014
:101C1000B0F5A02F286810D020F480302860286804
:101C200020F4802028606068A8B1FFF73BFE0646DC
:101C30000DE0286840F48030F4E740F4802028600C
:101C4000F7E700BFFFF72EFE801B642873D82868D3
:101C50008003F7D50CE0FFF725FE064605E000BF40
:101C6000FFF720FE801B6428F0D828688003F7D493
:101C70002078DFF8AC8280074FF0000A3ED5A748F5
:101C8000001D016811F00C0F08D00068C0F381003E
:101C900002280BD1D9F80000400207D42868800739
:101CA00016D5E068012800D112E033E1E068B8B150
:101CB0000120C8F80000FFF7F5FD064605E000BF6B
:101CC000FFF7F0FD801B0228C0D828688007F7D5F1
:101CD0002868216920F0F80040EAC10028600DE082
:101CE000C8F800A0FFF7DEFD064604E0FFF7DAFDC6
:101CF000801B02281FD828688007F7D420780007A7
:101D000022D5864F87486169703771B10121016022
:101D1000FFF7C8FD064604E0FFF7C4FD801B02285C
:101D200009D838688007F7D50EE0C0F800A0FFF7A3
:101D3000B9FD064605E082E0FFF7B4FD801B0228EE
:101D40007DD838688007F7D42078400768D5DFF859
:101D5000CCB100270BF13C0BDBF80000C0000BD42A
:101D6000DBF8001041F08051CBF80010DBF80000E8
:101D7000012700F0805000906B4E3068C00510D4F1
:101D8000306840F480703060FFF78CFD009005E013
:101D9000FFF788FD0099401A022850D83068C00526
:101DA000F6D55E4EA0686C3601280FD00528306845
:101DB00010D020F001003060306820F00400306066
:101DC000A068B8B1FFF76EFD00900FE0306840F0FA
:101DD0000100F4E740F004003060F7E7FFF762FD30
:101DE0000099411A41F28830814266D830688007F4
:101DF000F4D50EE0FFF756FD009007E0FFF752FD27
:101E00000099411A41F28830814256D830688007E3
:101E1000F4D42FB1DBF8001021F08051CBF8001082
:101E2000A069C8B33D49091D0968C1F381010229B0
:101E30004AD00228504607D0C8F8600000E03CE0D5
:101E4000FFF730FD04463BE04746C8F86000FFF767
:101E500029FD064605E000BFFFF724FD801B022890
:101E60002BD828688001F7D4D4E907010843A16A78
:101E70002E4A490802EB0141626A41EA8211084395
:101E800094F82C1040EA0161C9F80010012038666E
:101E9000FFF708FD044606E03EE000BFFFF702FD45
:101EA000001B022809D828688001F7D534E000BF5C
:101EB000FFF7F8FC001B022802D90320BDE8F88FC9
:101EC00028688001F4D427E00128F7D0D9F8000071
:101ED000E26900F4800191421CD1226A00F03F01C6
:101EE000914217D147F6C071626A0140B1EB821F7F
:101EF00010D1A26A4FF0FF3300F4403103EB5202DD
:101F0000B1EB024F06D194F82C1000F07060B0EBEA
:101F1000016F01D00120D1E70020CFE70438024053
:101F200000004742800E4742007000400000FFFF63
:101F300070B5040009D0606A002540B12561656173
:101F4000A56294F8510040B10CE0012070BD6068BA
:101F5000B0F5827FF4D0E561F2E784F85050204676
:101F600000F044F8022084F851002068016821F054
:101F700040010160A088218900F4827001F40441CD
:101F80000843A18901F400610843217C01F00201AA
:101F90000843217D01F001010843218B01F4007108
:101FA0000843217F01F03801084394F8201001F024
:101FB00080010843218D01F4005108432168086025
:101FC000A069042101EA104094F8241001F01001E6
:101FD0000843216848602068C16921F40061C1613B
:101FE0006565012084F85100002070BD2DE9F041A5
:101FF00086B0064614216846FEF78CFA34493068EC
:10200000884262D133480024016841F48051016064
:10201000006800F4805005902E481438016841F0A3
:1020200002010160016801F002010591016841F0BF
:10203000010101600068022500F0010005901820F0
:10204000CDE9000502AA03274FF0050882E89001B8
:1020500069462148FFF728FB8020CDE9000502AA48
:10206000694682E890011D48FFF71EFB1D4D1C4884
:102070007F062860C5E901744FF48068C5E903480C
:102080006C61AC61EC612C6228466C62FFF77CFAF3
:1020900008B1FEF70EFEF564AE63124D10486035D0
:1020A0001830E5E802074020A5E811010D4845F881
:1020B00014496030AC61EC612C626C62FFF764FA29
:1020C00008B1FEF7F6FDB564AE6306B0BDE8F08179
:1020D0000030014044380240000402400000024049
:1020E00040640240380200202DE9FF4F81B01D46B8
:1020F000934604464FF001090E9EFFF7D3FB0746B7
:1021000094F851006168012806D0B1F5827F3CD176
:10211000A168C9BB042838D10298002871D0BBF14E
:10212000000FFBD0002DF9D094F8500001282CD0DE
:102130004FF0010A84F850A094F85100042802D00E
:10214000052084F851004FF00008C4F85480C4F80A
:1021500038B0E587A58702992163E586A586C4F88E
:102160004080C4F8448020680168490603D40168AF
:1021700041F040010160E068B0F5006F606808D090
:10218000F0B3012D49D081E0FFE7022005B0BDE8A2
:10219000F08F08B1012D39D1206B21680088C8600B
:1021A000206B801C2063E08E401EE0862EE02068BD
:1021B000816889070FD5E18E69B1B9F1010F0AD1A4
:1021C000216B0988C160206B801C2063E08E401E5B
:1021D000E0864FF0000920688168C9070CD0E18FC4
:1021E00051B1C068A16B0880A06B801CA063E08F18
:1021F000401EE0874FF00109FFF754FBC01B01E0D0
:102200000BE067E0B04201D3701C50D1E08E002893
:10221000CDD1E08F0028CAD13EE0206B2168007844
:102220000873206B401C2063E08E401EE0862DE08A
:102230002068816889070FD5E18E69B1B9F1010F76
:102240000AD1216B09780173206B401C2063E08E5A
:10225000401EE0864FF0000920688168C9070CD055
:10226000E18F51B1C068A16B0870A06B401CA063E6
:10227000E08F401EE0874FF00109FFF713FBC01B02
:10228000B04202D3701C01D011E086B1E08E00286C
:10229000CED1E08F0028CBD13A463146204602F01D
:1022A0009DFB50B12020606584F8508012E084F8D6
:1022B00051A084F85080032068E7A06818B920680E
:1022C000C1688068009084F851A084F85080606DE7
:1022D0000028F1D0012059E710B5401EB0F1807FF1
:1022E00001D3012010BD4FF0E02460610F21601781
:1022F00003F01CF80020A06107202061002010BD21
:102300007047704770B590F83C20012A32D0012404
:1023100080F83C40022280F83D2003685A689D689E
:1023200022F070060A6832435A60134B02689A42E0
:1023300014D0B2F1804F11D0104B9A420ED0104BF6
:102340009A420BD00F4B9A4208D00F4B9A4205D0BD
:102350000E4B9A4202D00E4B9A4204D1496825F0A6
:1023600080031943916080F83D40002180F83C10C3
:10237000084670BD022070BD00000140000400400E
:1023800000080040000C00400004014000400140F3
:102390000018004010B5040003D094F83D0010B1BF
:1023A00007E0012010BD002084F83C00204600F02A
:1023B0001FF8022084F83D00211D206802F006FC71
:1023C000012084F8460084F83E0084F83F0084F839
:1023D000400084F8410084F8420084F8430084F807
:1023E000440084F8450084F83D00002010BD000042
:1023F00008B5184A01681848914207D1016841F0B0
:1024000008010160006800F008000BE0134A9142E7
:102410000AD11148001D016841F4003101600068D3
:1024200000F40030009008BD0D4A9142FBD10168D4
:1024300041F0800101600068002200F080000090FF
:1024400005212C20FFF7A0FABDE808402C20FFF75B
:102450008DBA0000000C00404038024000440140AA
:10246000001C004090F83D10012901D00120704768
:10247000022180F83D1000681149884214D0B0F163
:10248000804F11D00F4988420ED00F4988420BD09F
:102490000E49884208D00E49884205D00D4988422D
:1024A00002D00D49884204D1816801F00701062954
:1024B00003D0016841F00101016000207047000075
:1024C000000001400004004000080040000C0040F3
:1024D00000040140004001400018004070B504466F
:1024E00090F83C000025012817D0012684F83C60B4
:1024F000022084F83D002068826822F0770222F4EE
:102500007F4282600868502838D00DDC20284FD0E8
:1025100005DC90B3102811D14AE0022070BD3028AC
:1025200046D040280AD13BE060282FD070280DD03B
:10253000B0F5805F03D0B0F5005F12D0012584F8BC
:102540003D60002084F83C00284670BDCB68D1E98E
:102550000121206802F0AFFB2068816841F077011B
:1025600009E0CB68D1E90121206802F0A4FB2068D2
:10257000816841F480418160E1E719E0CA684968F7
:10258000206802F06DFC5021206806E0CA684968A6
:10259000206802F076FC6021206802F096FBCEE70E
:1025A000CA684968206802F05BFC40212068F4E7B3
:1025B000226801461046F0E770472DE9F0410446D5
:1025C0000068C66805694FF00007A90713D5B10771
:1025D00011D5F91E016101202077206880698007EC
:1025E000204602D0FFF7E8FF04E000F0C1F82046E3
:1025F00000F053F92777680716D5700714D52168BE
:102600006FF004000861022020772068806910F4D0
:10261000407F204602D0FFF7CFFF04E000F0A8F88B
:10262000204600F03AF92777280715D5300713D54B
:1026300021686FF008000861042020772068C069D5
:102640008007204602D0FFF7B7FF04E000F090F8C3
:10265000204600F022F92777E80616D5F00614D5B3
:1026600021686FF010000861082020772068C06999
:1026700010F4407F204602D0FFF79EFF04E000F0F8
:1026800077F8204600F009F92777E80708D0F00727
:1026900006D021686FF001000861204600F062F961
:1026A000280608D5300606D521686FF0800008613D
:1026B0002046FFF725FE680608D5700606D5216876
:1026C0006FF040000861204600F04DF9A8060AD5D9
:1026D000B00608D521686FF0200008612046BDE8EB
:1026E000F041FFF70EBEBDE8F081000010B586B0E6
:1026F000044614216846FDF70DFF2368174C00219E
:1027000017480222A34211D1036843F080030360FB
:10271000006800F0800005904FF4E0500090CDE993
:102720000121CDE9031269460E4813E00E4CA34285
:1027300012D1036843F020030360006800F020001A
:10274000059040200090CDE901210320CDE9031040
:1027500069460648FEF7A8FF06B010BD000C004011
:1027600030380240001C0240004401400014024086
:10277000704770B5044690F83C0000260D460128CD
:102780000FD0012084F83C006AB1042A1DD0082A29
:102790002FD00C2A3FD00126002084F83C00304680
:1027A00070BD022070BD206802F098FA206881692F
:1027B00041F0080181612068816921F00401816193
:1027C000206881692A69114311E0206802F0B6FA95
:1027D0002068816941F4006181612068816921F488
:1027E00080618161206881692A6941EA02218161F1
:1027F000D2E7206802F0D8FA2068C16941F00801E8
:10280000C1612068C16921F00401C1612068C1690A
:102810002A69114311E0206802F0FAFA2068C169C0
:1028200041F40061C1612068C16921F48061C16126
:102830002068C1692A6941EA0221C161ACE710B58B
:10284000040003D094F83D0010B107E0012010BD52
:10285000002084F83C00204600F01EF8022084F896
:102860003D00211D206802F0B1F9012084F84600E6
:1028700084F83E0084F83F0084F8400084F841006A
:1028800084F8420084F8430084F8440084F845004A
:1028900084F83D00002010BD7047704710B5044615
:1028A000022249B104290ED0082913D094F841001E
:1028B000012816D0012010BD94F83E000128F9D15E
:1028C00084F83E200FE094F83F000128F2D184F80C
:1028D0003F2008E094F840000128EBD184F8402024
:1028E00001E084F841200122206802F0D7F916495E
:1028F0002068164A884201D0904203D1436C43F4C9
:10290000004343642068884213D0B0F1804F10D058
:102910000F4988420DD00F4988420AD00E4988429B
:1029200007D0904205D00D49884202D00C49884218
:1029300004D1816801F00701062903D0016841F044
:1029400001010160002010BD0000014000040140B1
:102950000004004000080040000C0040004001401E
:10296000001800407047704770477047F8B501681D
:1029700004460868CA684B6910F00F0F4FF0000555
:1029800059D003F0010602F49077374365D0C107B0
:1029900005D0D10503D5616C41F0010161644107A7
:1029A00005D5D90703D0616C41F00201616481074C
:1029B00005D5D90703D0616C41F0040161640107BA
:1029C00007D502F02001314303D0616C41F00801CA
:1029D0006164616C00293AD0800604D5900602D566
:1029E000204602F0ABFA20684069616CC0F38010A9
:1029F000090700D460B3204602F079FA20684069E4
:102A0000400621D52068143050E8001F21F0400115
:102A100040E80012002AF5D1E06BA8B172490165C7
:102A2000E06BFEF7CFFC002811D0E06B016D01B028
:102A3000BDE8F040084783060FD593060DD5204624
:102A4000BDE8F84002F07ABA2046FFF78EFFF8BDE5
:102A50002046FFF78AFF6564F8BD266B2023012E10
:102A60007ED1C6067CD5D6067AD50868486800901F
:102A700048694FF0020640064DD5E26B1068406889
:102A80004FF480770004000C3AD0A18D814237D9F1
:102A9000E085D069B8422DD020680C3050E8001F86
:102AA00021F4807140E80012002AF5D1206814302A
:102AB00050E8001F21F0010140E80012002AF5D182
:102AC0002068143050E8001F21F0400140E8001257
:102AD000002AF5D184F84230256320680C3050E894
:102AE000001F21F0100140E80012002AF5D1E06B30
:102AF000FEF71FFC6663A08DE18D401A81B206E0EF
:102B0000A18D8142A8D1D069B842A5D16663204683
:102B1000FFF72AFFF8BDA08DE18D401A81B2E08D4C
:102B20000028F7D00029F5D020680C3050E8002F9D
:102B300022F4907240E80027002FF5D1206814306D
:102B400050E8002F22F0010240E80027002FF5D1C5
:102B500084F84230256320680C3050E8002F00E0F4
:102B600006E022F0100240E80023002BF3D1CDE76D
:102B700005062BD5150629D594F841002128C9D181
:102B8000A068B0F5805F01D12069B0B1206A411C16
:102B90002162216800784860E08C401E0004000C2F
:102BA000E084B7D12068C16821F08001C16020684D
:102BB000C16841F04001C160F8BD206A0088C0F3DF
:102BC00008004860206A801C2062E5E74006F3D5D3
:102BD0005006F1D5CA68204622F04002CA6084F847
:102BE000413000F00AF9F8BDE14E000870B504006C
:102BF00004D094F84100002510B106E0012070BD1A
:102C000084F84050204600F023F8242084F8410046
:102C10002068C16821F40051C160204602F0F0F93B
:102C20002068016921F4904101612068416921F027
:102C30002A0141612068C16841F40051C1606564A6
:102C4000202084F8410084F842006563002070BDB4
:102C5000F0B587B0074614216846FDF75BFC56497E
:102C6000DFF850C13B680024534A1439022503267B
:102C70000720634533D1136843F0100313601268D3
:102C800002F0100205920A6842F002020A600A6825
:102C900002F0020205920A6842F001020A60096825
:102CA000074601F0010105918021CDE9001502AB35
:102CB000694683E8D0004148FEF7F6FC2802CDE9DA
:102CC000000502AB694683E8D0003D48FEF7ECFC06
:102CD000002207212520FEF757FE252040E0DFF8DF
:102CE000E4C0634540D1344A121F136843F4802383
:102CF0001360126802F4802205920A6842F004020E
:102D00000A600968029401F0040105914FF44061E2
:102D1000CDE90015CDE9036069462B48FEF7C4FCF8
:102D20002B4D2A4828604FF00060C5E9010440148B
:102D3000C5E9034080106C61C5E906404FF440309E
:102D4000C5E908042846FEF71FFC08B1FDF7B1FFEE
:102D5000FD63002206212720AF63FEF715FE272022
:102D6000FEF704FE07B0F0BD1A488342FAD110689E
:102D700040F020001060106800F020000590086806
:102D800040F0400008600868029400F040000590A0
:102D90004FF48440CDE900050820CDE90360694681
:102DA0000D48FEF781FC002205214720FEF7ECFDCF
:102DB0004720D5E70010014044380240000402409B
:102DC0000000024000480040000802402860024025
:102DD000A8040020001401400018024090F842307E
:102DE000202B01D00220704721B11AB100230363C8
:102DF00002F08CB90120704770477047FEE7000071
:102E00008AB0072000E0642003F0A9F9FDF7B4FCC4
:102E10000028F8D137489FED322ADFED321A9FEDB6
:102E2000321ADFED320A9FED320A00F048FC9FEDC6
:102E3000320A684600F0DAFA01F0B4FD2F4D0120A5
:102E4000E8702C4C861E243C3146012003F00AFF1A
:102E50000128F9D12878400709D5287820F0040006
:102E600028702449254810391D30FDF755FC687835
:102E700040070AD5687820F0040068701D4A211DBB
:102E8000121FA2F12A00FDF7FDFBA87840070DD51F
:102E9000A87820F00400A870164918481439123098
:102EA000FDF7AEFC94ED040A03F0DCF804F1140124
:102EB000684691EC030A211DD1EC031A00F0B2FA26
:102EC0000C4B68463C331A1F111F02F0D3FF0C480D
:102ED000002302221946006804F0D0FCB4E7000089
:102EE0000080894500A08C4500000000CDCC4C3E00
:102EF0000000C8440C4E002000007A44D00000209E
:102F000008000020884201DA084670479042FCDD44
:102F1000104670470F4810B50D490160032141600C
:102F200000214FF410228160C0E903124FF4001217
:102F30004261017641768176C17601774177FEF76D
:102F4000BAF8002803D0BDE81040FDF7B2BE10BDAE
:102F500000640040900100200D4810B50B4901604D
:102F60001021416000218160C160016141610176F1
:102F700041768176C17601774177FEF79CF800288B
:102F800003D0BDE81040FDF794BE10BD00680040BE
:102F9000B8010020154808B5016841F480010160BE
:102FA000016801F480010091016841F400110160A1
:102FB0000068002200F40010009005210C20FEF7AC
:102FC000E3FC0C20FEF7D2FC002205213A20FEF79C
:102FD000DBFC3A20FEF7CAFC002205213B20FEF76D
:102FE000D3FCBDE808403B20FEF7C0BC30380240AF
:102FF00010B50B4A00210B4803F0ECF80A4C084AC4
:10300000002120602432094803F0E4F8044A60609B
:1030100048320021064803F0DDF8A06010BD000032
:10302000D47C0008170C000800000020012E0008C6
:10303000A94E00082DE9F04786B014216846FDF737
:1030400069FA51480025016841F0020101600168F8
:1030500001F002010591016841F040010160016841
:1030600001F040010591016841F001010160016832
:1030700001F001010591016841F00801016001685A
:1030800001F008010591016841F004010160016847
:1030900001F004010591016841F0800101600168BF
:1030A00001F080010591016841F020010160016893
:1030B00001F020010591016841F0100101600068F4
:1030C000DFF8C88000F01000059001221021404672
:1030D000FEF7E2FBDFF8B8904FF4007700223946A4
:1030E0004846FEF7D9FBDFF8ACA001221146504656
:1030F000FEF7D2FB01244FF40410CDE900406946ED
:1031000040460294FEF7D0FA1020CDE900040226D2
:10311000CDE9024669464046FEF7C6FA30200090E7
:103120004FF48810CDE9010469461B48FEF7BCFA4C
:103130000097CDE90145694648460395FEF7B4FA84
:10314000CDE902460094694650460194FEF7ACFA78
:10315000002205210620FEF717FC0620FEF706FCDC
:10316000002205210A20FEF70FFC0A20FEF7FEFBD5
:10317000002205211720FEF707FC1720FEF7F6FBBB
:1031800006B0BDE8F0870000303802400000024081
:10319000001002400004024000080240104810B530
:1031A0000E4901604FF4827141600021022281606A
:1031B000C0E9031201224261520282613822C0E951
:1031C0000721416281620A21C162FEF7B1FE002837
:1031D00003D0BDE81040FDF76CBD10BD00300140CC
:1031E000E001002010B588B01C216846FDF792F977
:1031F00015481449002401605321C0E9011440F22C
:10320000CF71C0E9031480218161FFF7C3F808B1D1
:10321000FDF74FFD0C48FFF712FB08B1FDF749FD24
:103220006020CDE900040294002269460648049417
:10323000FFF79FFA08B1FDF73CFD0348FFF756FA88
:1032400008B010BD00440140400300200C4810B5F8
:103250000A49016040F247314160002140F6B7322F
:10326000C0E9021201618161FFF794F8002803D0E0
:10327000BDE81040FDF71DBD10BD0000001C004062
:103280008803002010B58EB0002407940894099498
:103290000A940B941C2168460C94FDF73BF92748CF
:1032A0002549C0E900144FF6FF71C0E902410461ED
:1032B0008461FFF76FF808B1FDF7FBFC4FF4805015
:1032C000079007A91D48FFF709F908B1FDF7F1FCC0
:1032D0001A48FFF7B4FA08B1FDF7EBFC0B940BA901
:1032E00016480C94FFF70EF808B1FDF7E2FC6020D9
:1032F000009042F21070CDE90104002269460F48A7
:103300000494FFF736FA08B1FDF7D3FC04226946AE
:103310000A48FFF72EFA08B1FDF7CBFC08226946F0
:1033200006480194FFF725FA08B1FDF7C2FC0348EF
:10333000FFF7DCF90EB010BD000C0040F8020020D1
:103340000C4810B50A4901604FF4E1314160002199
:1033500081600C22C160C0E904128161C161FFF784
:1033600045FC002803D0BDE81040FDF7A2BC10BD0D
:1033700000100140D00300200C4810B50A4901603C
:103380000B494160002181600C22C160C0E9041238
:103390008161C161FFF72AFC002803D0BDE810401D
:1033A000FDF787BC10BD0000004800401804002055
:1033B000A08601000C4810B50A4901604FF4E131C4
:1033C0004160002181600C22C160C0E9041281616A
:1033D000C161FFF70BFC002803D0BDE81040FDF7EA
:1033E00068BC10BD0014014060040020B7EE001A54
:1033F000DFED0B0A80ED001AC0ED010AC0ED020AF4
:10340000C0ED030A80ED040A80ED051AC0ED060A3E
:10341000C0ED070AC0ED080AC0ED090A70470000B8
:103420000000000010B504462DED088BF0EE61BAE7
:10343000B0EE628AF5EEC0BAF0EE42AAF0EE418A32
:10344000B0EE609AF0EE409AB6EE00AAB7EE00BA7F
:10345000F1EE10FA09D1F5EEC0AAF1EE10FA04D19E
:10346000B5EEC08AF1EE10FA69D02BEEAB0A0AEE87
:10347000AA0A08EE080A02F033FE2BEE801A6AEE62
:10348000801A28EE003AD4ED012AD4ED030A94ED17
:10349000000AB0EE4A8A22EEA02A10EE008AD4ED8D
:1034A000023A60EE222A00EE632A43EEA02A00EEE2
:1034B000A08A23EE020A61EE220A61EE883A01EE4A
:1034C000480A94ED061A41EEC20A43EE623AB5EE9E
:1034D000C01AF1EE10FA22DDD4ED041A21EE232AEF
:1034E00021EE003ACBEE212AD4ED071A21EE201A64
:1034F00042EE221AC4ED071A94ED082A71EEA99A39
:1035000003EE222A84ED082A94ED093A32EE099A54
:1035100001EE223A84ED093A73EE288A07E09FED26
:10352000361A84ED071A84ED081A84ED091A94ED11
:10353000051A41EE239A01EE009A41EE208A94ED9D
:10354000040A94ED033ACBEE000A20EE8A0A60EEFC
:10355000291A20EE092A60EE282A94EC030A60EE6C
:10356000E13A41EE423A43EE623A73EE804A60EE4F
:10357000213AC4ED004A41EE223A43EE423A33EE9C
:10358000A04A60EE023A20EE220A84ED014A40EEA3
:10359000E23A00EE820A43EE213A01EE610A73EE4E
:1035A000813A70EE030A24EEA40AC4ED023AC4ED97
:1035B000030A04EE040A03EEA30A00EEA00A02F0D6
:1035C0008FFDD4ED000A60EE800AC4ED000AD4ED50
:1035D000010A60EE800AC4ED010AD4ED020A60EE31
:1035E000800AC4ED020AD4ED030A20EE800A84EDBD
:1035F000030ABDEC088B10BD00000000FEE7FEE7EB
:1036000000B580ED050AC0ED060A90ED071A30EE10
:10361000600A80ED081A034680ED070AD0ED000A23
:1036200060EE800AC0ED090AD0ED0A0AD0ED011A59
:1036300041EE800A30EE410AC0ED0A0A90ED021A0E
:1036400020EE010A83ED0B0A93ED030ABDEEC01ACA
:10365000B1EE400ABDEEC00A11EE102A10EE101AAB
:10366000BDEEE00A10EE100AFFF74CFC00EE100A67
:10367000B8EEC00A83ED0A0AD3ED090A30EE800ADB
:10368000D3ED0B0A30EE200A83ED0C0AD3ED040AC9
:10369000BDEEC00ABDEEE01AF1EE600A10EE100AAF
:1036A000FDEEE00A11EE102A10EE901AFFF72AFC48
:1036B00000EE100AB8EEC00A83ED0C0A00BD80ECE3
:1036C000050A704730B5144B1C68656945F0400524
:1036D00065611B68DC6844F01004DC600F4B1C68FB
:1036E000256825F0010525601C682568ED07F7D1E0
:1036F0001D680B4CAC601C68E060186801611868BC
:1037000042601868016841F480210160186801680E
:1037100041F00101016030BD18040020A804002020
:10372000044800402DE9F74FF84881B001680A6865
:1037300022F001020A60F6490A68136823F00103C7
:10374000136003E0026822F001020260EF480068A3
:103750000268D207F6D103E0016821F0010101609F
:10376000EB4800680168C907F6D1EA48EA4AEB4B22
:10377000D0F84C90E84CE94DE74EE84FDFF898E37D
:10378000DFF894C3D9F80000E449483A60331834AC
:103790001835303E78374FF4006A0CF1300C704524
:1037A00035D9884205D0904203D0984201D0A0423A
:1037B00001D1202026E0A84205D0B04203D0B84273
:1037C00001D0604501D150461CE0DFF8508308F17C
:1037D0003008404511D0DFF84083A8F11808404573
:1037E0000BD0DFF8388308F19008404505D0DFF8AA
:1037F000288308F14808404502D14FF4001001E049
:103800004FF00060DFF81083A8F14C083AE0DFF8D1
:103810000C8308F1A808404537D9884205D090426A
:1038200003D0984201D0A04201D1202026E0A84236
:1038300005D0B04203D0B84201D0604501D1504616
:103840001CE0DFF8D88208F13008404511D0DFF8DD
:10385000C882A8F1180840450BD0DFF8C08208F1F3
:103860009008404505D0DFF8B08208F1480840458F
:1038700002D14FF4001001E04FF00060DFF89882B1
:10388000A8F15008C8F8000074E0DFF8908208F151
:103890004808404537D9884205D0904203D0984225
:1038A00001D0A04201D1202026E0A84205D0B0429C
:1038B00003D0B84201D0604501D150461CE0DFF88A
:1038C0005C8208F13008404511D0DFF84C82A8F145
:1038D000180840450BD0DFF8448208F190084045B5
:1038E00005D0DFF8348208F14808404502D14FF492
:1038F000001001E04FF00060DFF82082A8F110080E
:10390000C8F80C0036E0884205D0904203D09842B7
:1039100001D0A04201D1202026E0A84205D0B0422B
:1039200003D0B84201D0604501D150461CE0DFF819
:10393000EC8108F13008404511D0DFF8DC81A8F1B6
:10394000180840450BD0DFF8D48108F190084045B5
:1039500005D0DFF8C48108F14808404502D14FF492
:10396000001001E04FF00060DFF8B081A8F110080E
:10397000C8F80800D9F800004FF4806B704535D9BD
:10398000884205D0904203D0984201D0A04201D194
:10399000102026E0A84205D0B04203D0B84201D0A2
:1039A000604501D158461CE0DFF8708108F130080D
:1039B000404511D0DFF86081A8F1180840450BD0D0
:1039C000DFF8588108F19008404505D0DFF84881BC
:1039D00008F14808404502D14FF4801001E04FF053
:1039E0008060DFF83481A8F14C083AE0DFF82C81E0
:1039F00008F1A808404537D9884205D0904203D045
:103A0000984201D0A04201D1102026E0A84205D062
:103A1000B04203D0B84201D0604501D158461CE005
:103A2000DFF8F88008F13008404511D0DFF8E88071
:103A3000A8F1180840450BD0DFF8E08008F19008A5
:103A4000404505D0DFF8D08008F14808404502D154
:103A50004FF4801001E04FF08060DFF8BC80A8F1E7
:103A60005008C8F800007AE0DFF8B08008F1480894
:103A7000404537D9884205D0904203D0984201D0C2
:103A8000A04201D1102026E0A84205D0B04203D0C8
:103A9000B84201D0604501D158461CE0DFF87C8077
:103AA00008F13008404511D0DFF86C80A8F1180803
:103AB00040450BD0DFF8648008F19008404505D000
:103AC000DFF8548008F14808404502D14FF48010D7
:103AD00001E04FF08060DFF84480A8F11008C8F8DA
:103AE0000C003CE0884205D0904203D0984201D0BF
:103AF000A04201D110202CE0A84205D0B04203D052
:103B0000B84201D060450BD1584622E0380200206F
:103B100098020020E001002058640240106002403A
:103B2000DFF8688940450FD0DFF8648940450BD045
:103B3000DFF8588908F16008404505D0DFF8508962
:103B400008F16008404502D14FF4801001E04FF0C9
:103B50008060DFF83889A8F14008C8F80800D9F873
:103B60000000704532D9884205D0904203D0984277
:103B700001D0A04201D1082023E0A84205D0B042E4
:103B800003D0B84201D0604502D14FF4007018E074
:103B9000DFF8F88840450FD0DFF8F48840450BD0B7
:103BA000DFF8E88808F16008404505D0DFF8E088D4
:103BB00008F16008404502D14FF4002001E04FF0C9
:103BC0000070DFF8CC88A8F1340837E0DFF8BC8853
:103BD00008F17808404534D9884205D0904203D096
:103BE000984201D0A04201D1082023E0A84205D08C
:103BF000B04203D0B84201D0604502D14FF400700A
:103C000018E0DFF8888840450FD0DFF88488404509
:103C10000BD0DFF8788808F16008404505D0DFF860
:103C2000708808F16008404502D14FF4002001E09F
:103C30004FF00070DFF85888A8F13808C8F8000085
:103C40006EE0DFF8488808F11808404534D988420A
:103C500005D0904203D0984201D0A04201D1082063
:103C600023E0A84205D0B04203D0B84201D060455D
:103C700002D14FF4007018E0DFF8108840450FD0F3
:103C8000DFF80C8840450BD0DFF8008808F16008A9
:103C9000404505D0DFF8F88708F16008404502D1BB
:103CA0004FF4002001E04FF00070DFF8E087A8F14A
:103CB0004008C8F80C0033E0884205D0904203D099
:103CC000984201D0A04201D1082023E0A84205D0AB
:103CD000B04203D0B84201D0604502D14FF4007029
:103CE00018E0DFF8A88740450FD0DFF8A4874045EB
:103CF0000BD0DFF8988708F16008404505D0DFF861
:103D0000908708F16008404502D14FF4002001E09F
:103D10004FF00070DFF87487A8F14008C8F8080079
:103D2000DFF86C87D9F8000008F118084FF4807E9E
:103D3000404531D9884205D0904203D0984201D005
:103D4000A04201D1042022E0A84205D0B04203D015
:103D5000B84201D0604501D1704618E0DFF82C87E9
:103D600040450FD0DFF8288740450BD0DFF81C878F
:103D700008F16008404505D0DFF8148708F16008B5
:103D8000404502D14FF4802001E04FF08070DFF811
:103D90000087A8F1340836E0DFF8F08608F17808EB
:103DA000404533D9884205D0904203D0984201D093
:103DB000A04201D1042022E0A84205D0B04203D0A5
:103DC000B84201D0604501D1704618E0DFF8BC86EA
:103DD00040450FD0DFF8B88640450BD0DFF8AC8601
:103DE00008F16008404505D0DFF8A48608F16008B6
:103DF000404502D14FF4802001E04FF08070DFF8A1
:103E00009086A8F13808C8F800006CE0DFF87C86DE
:103E100008F11808404533D9884205D0904203D0B4
:103E2000984201D0A04201D1042022E0A84205D04E
:103E3000B04203D0B84201D0604501D1704618E0CD
:103E4000DFF8488640450FD0DFF8448640450BD068
:103E5000DFF8388608F16008404505D0DFF8308685
:103E600008F16008404502D14FF4802001E04FF096
:103E70008070DFF81886A8F14008C8F80C0032E01E
:103E8000884205D0904203D0984201D0A04201D18F
:103E9000042022E0A84205D0B04203D0B84201D0AD
:103EA000604501D1704618E0DFF8E08540450FD04D
:103EB000DFF8DC8540450BD0DFF8D08508F16008DD
:103EC000404505D0DFF8C88508F16008404502D1BB
:103ED0004FF4802001E04FF08070DFF8B085A8F14A
:103EE0004008C8F80800DFF8A885D9F8000008F1F4
:103EF00018084FF48039404530D9884205D09042A7
:103F000003D0984201D0A04201D1012021E0A84273
:103F100005D0B04203D0B84201D0604501D1402065
:103F200017E0DFF8688540450FD0DFF8648540452D
:103F30000BD0DFF8588508F16008404505D0DFF860
:103F4000508508F16008404501D1484601E04FF432
:103F50008000DFF83C85A8F1340835E0DFF82C85D7
:103F600008F17808404532D9884205D0904203D004
:103F7000984201D0A04201D1012021E0A84205D001
:103F8000B04203D0B84201D0604501D1402017E0D3
:103F9000DFF8F88440450FD0DFF8F48440450BD0BB
:103FA000DFF8E88408F16008404505D0DFF8E084D8
:103FB00008F16008404501D1484601E04FF4800017
:103FC000DFF8CC84A8F13808C8F800006AE0DFF810
:103FD000BC8408F11808404532D9884205D0904287
:103FE00003D0984201D0A04201D1012021E0A84293
:103FF00005D0B04203D0B84201D0604501D1402085
:1040000017E0DFF8888440450FD0DFF8848440450E
:104010000BD0DFF8788408F16008404505D0DFF860
:10402000708408F16008404501D1484601E04FF432
:104030008000DFF85884A8F14008C8F80C0031E08F
:10404000884205D0904203D0984201D0A04201D1CD
:10405000012021E0A84205D0B04203D0B84201D0EF
:10406000604501D1402017E0DFF8208440450FD0A3
:10407000DFF81C8440450BD0DFF8108408F160089D
:10408000404505D0DFF8088408F16008404501D1BB
:10409000484601E04FF48000DFF8F083A8F14008C3
:1040A000C8F80800FB48DFF8E883806C009008F14E
:1040B00018080068404531D9884205D0904203D0A5
:1040C000984201D0A04201D1202022E0A84205D090
:1040D000B04203D0B84201D0604501D1504618E04B
:1040E000DFF8A88340450FD0DFF8A48340450BD00C
:1040F000DFF8988308F16008404505D0DFF8908329
:1041000008F16008404502D14FF4001001E04FF083
:104110000060DFF87C83A8F1340836E0DFF86C83B8
:1041200008F17808404533D9884205D0904203D041
:10413000984201D0A04201D1202022E0A84205D01F
:10414000B04203D0B84201D0604501D1504618E0DA
:10415000DFF8388340450FD0DFF8348340450BD07B
:10416000DFF8288308F16008404505D0DFF8208398
:1041700008F16008404502D14FF4001001E04FF013
:104180000060DFF80C83A8F13808C8F800006CE084
:10419000DFF8F88208F11808404533D9884205D085
:1041A000904203D0984201D0A04201D1202022E0C9
:1041B000A84205D0B04203D0B84201D0604501D139
:1041C000504618E0DFF8C48240450FD0DFF8C082C7
:1041D00040450BD0DFF8B48208F16008404505D0B7
:1041E000DFF8AC8208F16008404502D14FF40010BE
:1041F00001E04FF00060DFF89482A8F14008C8F8B1
:104200000C0032E0884205D0904203D0984201D0A1
:10421000A04201D1202022E0A84205D0B04203D024
:10422000B84201D0604501D1504618E0DFF85C8209
:1042300040450FD0DFF8588240450BD0DFF84C8264
:1042400008F16008404505D0DFF8448208F16008B5
:10425000404502D14FF4001001E04FF00060DFF85C
:104260002C82A8F14008C8F808000098DFF820A2C6
:1042700000680AF1180A504531D9884205D09042A9
:1042800003D0984201D0A04201D1102022E0A842E0
:1042900005D0B04203D0B84201D0604501D15846A4
:1042A00018E0DFF8E88140450FD0DFF8E4814045B1
:1042B0000BD0DFF8D88108F16008404505D0DFF861
:1042C000D08108F16008404502D14FF4801001E030
:1042D0004FF08060DFF8B881A8F1340836E0DFF8ED
:1042E000AC8108F17808404533D9884205D0904226
:1042F00003D0984201D0A04201D1102022E0A84270
:1043000005D0B04203D0B84201D0604501D1584633
:1043100018E0DFF8788140450FD0DFF87481404520
:104320000BD0DFF8688108F16008404505D0DFF860
:10433000608108F16008404502D14FF4801001E02F
:104340004FF08060DFF84881A8F13808C8F8000015
:104350006CE0DFF8388108F11808404533D988420D
:1043600005D0904203D0984201D0A04201D1102044
:1043700022E0A84205D0B04203D0B84201D0604547
:1043800001D1584618E0DFF8048140450FD0DFF82E
:10439000008140450BD0DFF8F48008F1600840450B
:1043A00005D0DFF8EC8008F16008404502D14FF4F9
:1043B000801001E04FF08060DFF8D080A8F1400865
:1043C000C8F80C0032E0884205D0904203D09842F1
:1043D00001D0A04201D1102022E0A84205D0B04275
:1043E00003D0B84201D0604501D1584618E0DFF84B
:1043F0009C8040450FD0DFF8988040450BD0DFF817
:104400008C8008F16008404505D0DFF8848008F111
:104410006008404502D14FF4801001E04FF0806009
:10442000DFF86880A8F14008C8F808000098006824
:10443000504536D9884205D0904203D0984201D0E9
:10444000A04201D1082029E0A84205D0B04203D003
:10445000B84201D0604502D14FF400701EE0DFF891
:104460002C8040450FD0DFF8288040450BD0DFF886
:104470001C8008F16008404505D0DFF8148008F181
:104480006008404508D14FF4002007E0406002403A
:1044900040640240E00100204FF00070DFF8F0843B
:1044A00039E0DFF8F084404538D9884205D09042A1
:1044B00003D0984201D0A04201D1082027E0A842B1
:1044C00005D0B04203D0B84201D0604502D14FF4CC
:1044D00000701CE0DFF8BC84A8F17808404511D0DA
:1044E000DFF8AC8408F1340840450BD0DFF8A48431
:1044F000A8F11808404505D0DFF8948408F1940825
:10450000404502D14FF4002001E04FF00070DFF889
:104510008084A8F10408C8F8000076E0DFF874840D
:10452000A8F16008404538D9884205D0904203D0B0
:10453000984201D0A04201D1082027E0A84205D02E
:10454000B04203D0B84201D0604502D14FF40070B0
:104550001CE0DFF84084A8F17808404511D0DFF86E
:10456000308408F1340840450BD0DFF82884A8F1E6
:104570001808404505D0DFF8188408F19408404534
:1045800002D14FF4002001E04FF00070DFF8048406
:10459000A8F1B808C8F80C0037E0884205D090426E
:1045A00003D0984201D0A04201D1082027E0A842C0
:1045B00005D0B04203D0B84201D0604502D14FF4DB
:1045C00000701CE0DFF8CC83A8F17808404511D0DA
:1045D000DFF8BC8308F1340840450BD0DFF8B48322
:1045E000A8F11808404505D0DFF8A48308F1940825
:1045F000404502D14FF4002001E04FF00070DFF899
:104600009483A8F1B808C8F80800009800685045DD
:1046100033D9884205D0904203D0984201D0A042BD
:1046200001D1042026E0A84205D0B04203D0B84210
:1046300001D0604501D170461CE0DFF85883A8F135
:104640007808404511D0DFF8488308F13408404528
:104650000BD0DFF84083A8F11808404505D0DFF8FB
:10466000308308F19408404502D14FF4802001E0E6
:104670004FF08070DFF8188338E0DFF8188340458A
:1046800037D9884205D0904203D0984201D0A04249
:1046900001D1042026E0A84205D0B04203D0B842A0
:1046A00001D0604501D170461CE0DFF8E882A8F136
:1046B0007808404511D0DFF8D88208F13408404529
:1046C0000BD0DFF8D082A8F11808404505D0DFF8FC
:1046D000C08208F19408404502D14FF4802001E0E7
:1046E0004FF08070DFF8A882A8F10408C8F8000035
:1046F00074E0DFF8A082A8F16008404537D988420D
:1047000005D0904203D0984201D0A04201D10420AC
:1047100026E0A84205D0B04203D0B84201D060459F
:1047200001D170461CE0DFF86C82A8F178084045A2
:1047300011D0DFF85C8208F1340840450BD0DFF877
:104740005482A8F11808404505D0DFF8448208F1EA
:104750009408404502D14FF4802001E04FF0807072
:10476000DFF83082A8F1B808C8F80C0036E08842BB
:1047700005D0904203D0984201D0A04201D104203C
:1047800026E0A84205D0B04203D0B84201D060452F
:1047900001D170461CE0DFF8FC81A8F178084045A3
:1047A00011D0DFF8EC8108F1340840450BD0DFF878
:1047B000E481A8F11808404505D0DFF8D48108F15C
:1047C0009408404502D14FF4802001E04FF0807002
:1047D000DFF8C081A8F1B808C8F8080000980068A0
:1047E000504529D9884205D0904203D0984201D043
:1047F000A04201D101201DE0A84205D0B04203D063
:10480000B84201D0604501D1402013E061497839B8
:1048100088420BD05E493431884207D05D4918394F
:10482000884203D05A499431884201D1484601E078
:104830004FF4800056492DE0DFF8588140452BD9D0
:10484000884205D0904203D0984201D0A04201D1C5
:1048500001201DE0A84205D0B04203D0B84201D0EB
:10486000604501D1402013E04A49783988420BD095
:1048700047493431884207D046491839884203D025
:1048800043499431884201D1484601E04FF4800009
:104890003F49091F08605CE0DFF8F880A8F1600874
:1048A00040452BD9884205D0904203D0984201D090
:1048B000A04201D101201DE0A84205D0B04203D0A2
:1048C000B84201D0604501D1402013E03149783928
:1048D00088420BD02E493431884207D02D491839EF
:1048E000884203D02A499431884201D1484601E0E8
:1048F0004FF480002749B839C8602AE0884205D0C3
:10490000904203D0984201D0A04201D101201DE085
:10491000A84205D0B04203D0B84201D0604501D1D1
:10492000402013E01B49783988420BD018493431B4
:10493000884207D017491839884203D01449943166
:10494000884201D1484601E04FF480001149B8394E
:104950008860114802990268D16001680F4A8A6034
:104960000F49019B0C68E3600B689A600368039A27
:104970005A600B68039A5A600068026842F00102AC
:1049800002600868016841F001010160BDE8FF8F25
:104990000C640240B8600240380200200C30014034
:1049A000980200200B4801684A6842F002024A60FF
:1049B00001684A6842F001024A600068016841F0FB
:1049C0004001016004480068016841F01001016085
:1049D00070470000E001002038020020F8B51546BD
:1049E0000E460B46009204460122022100F02CF8EC
:1049F000A0B9134813490068B0FBF1F04FF47A7185
:104A0000484300906068B0F5827F0DD133460022A4
:104A100080212046009500F017F870B1606D40F0DD
:104A2000200060650320F8BD009830B1401E009062
:104A300020688068C0430006F6D50020F8BD00005D
:104A40002000002000366E012DE9F8431E469146F5
:104A500088460446089DFCF725FF401B351AFCF7E5
:104A600021FF074626480068C0F3CB3068430AE0C0
:104A7000701C09D0FCF716FFC01BA8420FD275B1FD
:104A80000098B8B3401E00902068816838EA0100A1
:104A900033D000214945EBD10020BDE8F8832068E0
:104AA000416821F0E00141606068B0F5827F0BD180
:104AB000A068B0F5004F02D0B0F5806F04D1206837
:104AC000016821F040010160A06AB0F5005F09D1E2
:104AD0002068016821F4005101602068016841F4F8
:104AE00000510160012084F85100002084F850003A
:104AF0000320D2E7FFE70025C6E70121CAE700004F
:104B00002000002010B5FCF7D3FE02F027FF01289B
:104B100003D0BDE8104002F0DBBB10BD30B593B050
:104B200030216846FBF7F6FC14210CA8FBF7F2FCD9
:104B30001D480025016841F080510160006800F0C7
:104B4000805011901948016841F48041016000686B
:104B5000022400F480401190012000900004019094
:104B60008001CDE906400C200890A820CDE9090479
:104B700004200B906846FDF725F808B172B6FEE7F1
:104B80000CA90F2081E831004FF4A0500F904FF492
:104B90008050109005210CA8FCF728FF002801D0B8
:104BA00072B6FEE713B030BD4038024000700040DE
:104BB0000248016841F470010160704788ED00E02F
:104BC0000148FDF7FABC000088030020F0B5026838
:104BD000274B284D284E294F294C4FF0804C9842A6
:104BE00009D0604507D0A84205D0B04203D0B842F2
:104BF00001D0A04204D122F0700E4A6842EA0E02AF
:104C000098421BD0604519D0A84217D0B04215D0A9
:104C1000B84213D0A04211D01A4DA8420ED01A4D5E
:104C2000A8420BD0194DA84208D0194DA84205D072
:104C3000184DA84202D0184DA84203D122F4407565
:104C4000CA682A434D6922F080022A438D68C562F2
:104C50000D688562984201D0A04201D109690163C3
:104C6000016841F004010160012141610260F0BD71
:104C7000000001400004004000080040000C00401B
:104C80000004014000400140004401400048014050
:104C900000180040001C00400020004010B501F04A
:104CA0001F030121046A99408C430462016A9A40FF
:104CB0001143016210BD10B5846842EA032224F456
:104CC0007F440A432243826010BD826822F0700252
:104CD0000A4342F00701816070470000F0B5036AA3
:104CE000026A22F00102026242688469124E24F0D4
:104CF00073050C682C4323F002058B682B430D4D84
:104D0000A84201D0B04205D123F00807CB683B434D
:104D100023F00403A84201D0B04205D14D6922F42A
:104D2000407215438A692A4342608461496841633D
:104D30000362F0BD0000014000040140F0B5026ACA
:104D4000036A23F010030362436884690D6824F446
:104D5000E64444EA05248D6822F0200242EA051266
:104D60000F4D104EA84201D0B04206D1CF6822F0BC
:104D7000800242EA071222F04002A84201D0B0426B
:104D800007D14D6923F4406343EA85038D6943EA03
:104D9000850343608461496881630262F0BD00005D
:104DA0000000014000040140F0B5026A036A23F4E8
:104DB000807303624368C46922F4007224F07305AF
:104DC0000C68124E2C438D6842EA05220E4DA84213
:104DD00001D0B04206D1CF6822F4006242EA072235
:104DE00022F48062A84201D0B04207D14D6923F479
:104DF000405343EA05138D6943EA05134360C461D8
:104E00004968C1630262F0BD000001400004014036
:104E100030B5046A026A22F4805202624268C369B1
:104E20000D6823F4E64343EA05238D6824F4005417
:104E300044EA0534084DA84202D0084DA84204D1E6
:104E40004D6922F4804242EA85124260C36149689A
:104E50000164046230BD0000000001400004014014
:104E600010B5036A046A24F001040462846924F022
:104E7000F00444EA021423F00A020A438461026245
:104E800010BD10B5036A046A24F01004046284693A
:104E900023F0A00324F4704444EA023243EA0111EF
:104EA0008261016210BD00001FB501F00FFF0020FC
:104EB0004FF448620949CDE90020CDE902010346DB
:104EC000014614220120FBF7BDFE0A2001F047F93C
:104ED00001F028F80A2001F042F9F6E790010020DD
:104EE00010B5806B0021C185FDF73FFD10BD016845
:104EF0000C3151E8002F22F4907241E80023002B7E
:104F0000F5D10168143151E8002F22F0010241E887
:104F10000023002BF5D1016B012909D101680C3167
:104F200051E8002F22F0100241E80023002BF5D1B8
:104F3000202180F8421000210163704708B590F8E5
:104F40004210222901D0022008BD82684FF480530C
:104F50009A4201D1016921B1816A9A421BD04AB1BA
:104F60000AE00268816A5268C2F308020A80816A14
:104F7000891C08E0026972B10268526802F07F027F
:104F80000A70816A491C8162C18D491E0904090C9D
:104F9000C18503D01BE002685268F1E70168CA6866
:104FA00022F02002CA600168CA6822F48072CA60D6
:104FB00001684A6922F001024A61202180F842100A
:104FC00000214163026B012A03D0FDF715FF002089
:104FD00008BD016301680C3151E8002F22F0100276
:104FE00041E80023002BF5D101680A68D20602D5FA
:104FF0000A6849680091818DFDF7B6FCE7E700007B
:1050000070B5044600680169E26821F4405111431B
:1050100001612169A068E26908436169114308439D
:105020002168CA6849F20C639A430243CA60206847
:105030004169A26921F440711143416131492068FD
:10504000884202D03049884202D1FCF779FD01E064
:10505000FCF766FDE2690023192164253226B2F5CA
:10506000004F626828D0A0FB0101930F9200FBF76C
:105070005BF90146B0FBF5F06FF01802504301EB0D
:10508000800006EB0010B0FBF5F000F0F002B1FB81
:10509000F5F002EB0012B1FBF5F06FF01803584386
:1050A00001EB800006EB0010B0FBF5F000F00F0004
:1050B00021681044886070BDA0FB010192185B411B
:1050C000FBF732F90146B0FBF5F00201B1FBF5F058
:1050D0006FF01803584301EB800006EBC000B0FBF3
:1050E000F5F000F0F80002EB4002B1FBF5F0584398
:1050F00001EB800006EBC000B0FBF5F000F007000C
:10510000D6E7000000100140001401408162828552
:10511000C28500214164222180F84210016921B139
:105120000168CA6842F48072CA6001684A6942F044
:1051300001024A610068C16841F02001C16000209D
:10514000704700000148FDF711BC0000D0030020AB
:1051500038B52B48006801682A4C89064FF00105D4
:1051600007D501684068009002F006FC6060257079
:1051700038BD25490968C906FAD50168406800901C
:1051800002F0FAFB60602570204801680A6813038A
:105190000B684FF0240223F001030B6016D4036860
:1051A0005968C1F1240189B261805A6002681368AC
:1051B00043F4002313600068026842F001020260B9
:1051C0001229D5D1124901F1160015E001684B688A
:1051D000C3F124039BB263804A600E498A6A22F4B9
:1051E00000228A620068016841F001010160122B0F
:1051F000BED1074901F13A00BDE8384001F0B8BC22
:10520000180400200001002000480040A8040020ED
:105210004C4E00200060024038B514480068016818
:10522000134C8A064FF00005618808D54268114B7F
:105230005A5402684068491C0090618038BD026879
:10524000D206FBD542680268009240688DF80000E3
:10525000218011B1074801F003F84FF4807205492D
:105260000248FDF7BBFD658038BD000060040020EA
:105270000C010020544F002000B58FB000208DF8A5
:1052800028009DF828104909ADF834109DF8282011
:105290004FF6FF7101EAC222121DADF830208DF8E1
:1052A00028009DF828205209ADF82C209DF82820D0
:1052B00001EAC221091DADF828100121BDF83420F2
:1052C0000590CDE906010092BDF830200192BDF8AD
:1052D0002C200292BDF82820CDE90320CDE908104A
:1052E00069460748FBF762FD0028F9D10448694682
:1052F0002830FBF75BFD0028F8D10FB000BD00009F
:1053000090010020FEE74100080218BF04200A0EA9
:1053100018BF40F001004FF07F4232EA010108BFA0
:1053200040F00200012808BF052070470907090E58
:10533000002804DB00F1E02080F80014704700F042
:105340000F0000F1E02080F8141D704710B54FF0F9
:105350000E402DED028BB0EE408A18EE104A00EBA5
:105360004400B0F1506F4AD84FF0FC40B0EB440F0E
:1053700022D2B0EEC80AF7EE000A30EEC00AF6EE0E
:10538000000A60EE208A18EE900A01F04BFC01EE54
:10539000100A14F0004F1DBFDFED2D0A9FED2D0AFE
:1053A000B1EE411ADFED2C0A08BF9FED2C0AF8EE92
:1053B000001A21EE218A05E0DFED290A68EE088A4D
:1053C000B0EE600A9FED271ADFED271A30EE080ACB
:1053D00048EE811A9FED251A08EEA11ADFED241A76
:1053E00048EE811A9FED231A08EEA11A68EE281ADA
:1053F000BDEC028B01EE810A30EE200A10BD4FF0A9
:10540000E440B0EB440F0CD918EE100AFFF77BFF15
:10541000042808BF00F094F9B0EE480ABDEC028BF6
:1054200010BD4FF07F40B0EB440F07D2B0EE480AFA
:10543000BDEC028BBDE8104000F074B90120FBF711
:1054400098F8BDEC028BBDE8104000F071B9000087
:105450000000C9BF22AAFDB90000C93F22AAFD3938
:105460000000000024FE1C3DC78AD83C1E67383D62
:105470001B93993DAFAA2A3E70B54FF068422DEDBF
:10548000048BF0EE408A18EE900AB0EE608A18EEB7
:10549000101A02EB4003B3F1654F3CBF02EB41022F
:1054A000B2F1654F7DD200BFC0F3C753C1F3C752FD
:1054B0009A1A1B2A09DD10F0004F14BF9FED830AD2
:1054C0009FED830ABDEC048B70BD12F11A0F36DA22
:1054D00011F0004F09D010F0004F0CBF9FED7D0A76
:1054E0009FED7D0ABDEC048B70BD88EE889A19EEA5
:1054F000100AFFF708FF042808BF00F021F918EE92
:10550000900AFFF700FF054618EE100AFFF7FBFEB2
:10551000044619EE100AFFF7F6FE042D18BF052DFC
:1055200008D1042C18BF052C04D1002804BF022088
:10553000FBF71FF8B0EE490ABDEC048B70BD4200CA
:10554000B2EB410F3AD910F0004F19BFDFED630AFB
:105550009FED630ADFED630A9FED630AB0EE481A20
:105560000A46B1EE688A80F00041F0EE418A1046AA
:105570000A1A5200B2F1807F34D2484010F0004F36
:10558000DFED5A1A9FED5A2A1DBFBEEE001A70EECB
:10559000E10A30EE420AB6EE001A08BF70EEA10A28
:1055A00000E040E008BF30EE020AB0EE682A01EEEB
:1055B000482A08EE818AC2EE081A15E011F0004F61
:1055C00004BF9FED4C0AF0EE400AD1D010F0004F1E
:1055D00019BFDFED490A9FED490ADFED490A9FED4A
:1055E000490AC5E7C8EE881A21EEA11A9FED462A9E
:1055F000DFED462A41EE022A9FED452A01EE222ADE
:10560000DFED442A41EE022A9FED432ABDEC048BD4
:1056100001EE222A21EE811A01EE020A30EE210A61
:1056200030EE200A70BD4FF07F42B2EB400F28BF32
:10563000B2EB410F09D2F0EE480AB0EE680ABDECB9
:10564000048BBDE8704000F070B840EA01035B00D5
:1056500008BF41F0FF410BD0B2EB400F08BFB2EBE7
:10566000410F08D120F0804008EE900A21F08041DF
:1056700008EE101A18E7B2EB400F12BF5FEA4103C1
:1056800040F0FF4001F000413FF40EAFB2EB410F9C
:1056900012BF5FEA400200F0004041F0FF413FF4DA
:1056A00003AF4A0092EA40033FF5FEAE002AACBFCA
:1056B0009FED1A0A9FED1A0A68EE808A28EE008A8A
:1056C00018EE900A18EE101AEEE60000DB0FC9BFC4
:1056D000DB0FC93FDB0F4940DB0F49C00000C9BFEA
:1056E00022AAFDB90000C93F22AAFD390060ED3EA3
:1056F000C30ACE3700000000000049C022AA7DBACC
:105700000000494022AA7D3A2DAD65BD8FB8D53D38
:105710000FB511BE61C84C3EA8AAAABE0000804FBA
:105720000000802F30EE000A704730EE200A7047EC
:10573000DFED020A80EEA00A7047000000000000C2
:105740009FED020A20EE000A7047000000000010E2
:1057500010B50848FCF786FE00210648FDF79EF8C4
:1057600004210448FDF79AF8BDE8104008210148DB
:10577000FDF794B8F80200200C4910B5020E0A702B
:10578000C0F3074313FB02F34B80C0F3072414FB61
:1057900002F48C80C0B210FB02F20548CA80016896
:1057A0004A6301688C630068C36310BD1001002068
:1057B000F8020020F8B500208DF800000446FAF742
:1057C00047FF8020FBF70CF85520FBF709F8552020
:1057D000FBF706F88DF80000FAF732FF9620FAF78B
:1057E00098FFFAF735FF8020FAF7FAFF5520FAF70D
:1057F000F7FF5520FAF7F4FF8DF80000FAF720FFC5
:105800009620FAF786FFFAF723FFB6217E20FBF7F2
:105810000EF8FAF715FF5020FAF779FFFAF718FF9C
:105820008020FAF7DDFF5520FAF7DAFF5520FAF766
:10583000D7FF8DF80000FAF703FF9620FAF769FF0B
:10584000FAF706FF8020FAF7CBFF5520FAF7C8FFDA
:105850005520FAF7C5FF8DF80000FAF7F1FE962003
:10586000FAF757FF9DF800001E282ED11B4D00BFF0
:10587000FAF7EEFE04EB44067719A85D7978FAF79B
:10588000D6FFFAF7DDFE9620FAF743FFFAF7E0FEBF
:10589000A85D40F08000FAF7A3FF5520FAF7A0FFBB
:1058A0005520FAF79DFF8DF80000FAF7C9FE962003
:1058B000FAF72FFF78789DF80010884207D004EBA4
:1058C000440028448078002800D00120F8BD641CE2
:1058D000E4B2062CCCD30020F8BD0000AC000020C0
:1058E000F0B587B00020019002908DF800000546C9
:1058F000FAF7AEFE8020FAF773FF5520FAF770FF33
:105900005520FAF76DFF8DF80000FAF799FE962002
:10591000FAF7FFFEFAF79CFE8020FAF761FF5520A8
:10592000FAF75EFF5520FAF75BFF8DF80000FAF7F3
:1059300087FE9620FAF7EDFEFAF78AFEB6217E2062
:10594000FAF775FFFAF77CFE5020FAF7E0FEFAF757
:105950007FFE8020FAF744FF5520FAF741FF5520DB
:10596000FAF73EFF8DF80000FAF76AFE9620FAF784
:10597000D0FEFAF76DFE8020FAF732FF5520FAF7D5
:105980002FFF5520FAF72CFF8DF80000FAF758FE8C
:105990009620FAF7BEFE9DF800001E2861D17D4CCE
:1059A000FAF756FE05EB45063719A05D7978FAF748
:1059B0003EFFFAF745FE9620FAF7ABFEFAF748FEEF
:1059C000A05D40F08000FAF70BFF5520FAF708FFC2
:1059D0005520FAF705FF8DF80000FAF731FE962002
:1059E000FAF797FE78789DF80010884204D005EB0E
:1059F00045002044807832E05020FAF788FE6D1C84
:105A0000EDB2042DCCD30025FAF722FE05EB4507B5
:105A10003E19717B307BFAF70AFFFAF711FE9620E8
:105A2000FAF777FEFAF714FE307B40F08000FAF7C1
:105A3000D7FE5520FAF7D4FE5520FAF7D1FE8DF89F
:105A40000000FAF7FDFD9620FAF763FE707B9DF8E3
:105A50000010884208D005EB45002044807B0028D8
:105A600000D0012007B0F0BD5020FAF750FEFAF741
:105A7000EFFD9220FAF7B4FE062201A91220FAF7F0
:105A800092FEFAF7DDFD9DF805006D1C01029DF800
:105A90000400EDB2014303A8022D20F817109DF871
:105AA00007109DF8062000EB470042EA01214180E3
:105AB0009DF809109DF8082042EA01218180A3D3B6
:105AC000FAF7C6FD00216D20FAF7B1FEFAF7B8FD2E
:105AD0009620FAF71EFEFAF7BBFDED20FAF780FEDE
